{
	"PrestamoDefi.sol": {
		"PrestamoDefi": {
			"abi": [
				{
					"inputs": [],
					"stateMutability": "nonpayable",
					"type": "constructor"
				},
				{
					"anonymous": false,
					"inputs": [
						{
							"indexed": true,
							"internalType": "address",
							"name": "prestatario",
							"type": "address"
						},
						{
							"indexed": false,
							"internalType": "uint256",
							"name": "monto",
							"type": "uint256"
						}
					],
					"name": "GarantiaLiquidada",
					"type": "event"
				},
				{
					"anonymous": false,
					"inputs": [
						{
							"indexed": true,
							"internalType": "address",
							"name": "prestatario",
							"type": "address"
						},
						{
							"indexed": false,
							"internalType": "uint256",
							"name": "monto",
							"type": "uint256"
						}
					],
					"name": "PrestamoAprobado",
					"type": "event"
				},
				{
					"anonymous": false,
					"inputs": [
						{
							"indexed": true,
							"internalType": "address",
							"name": "prestatario",
							"type": "address"
						},
						{
							"indexed": false,
							"internalType": "uint256",
							"name": "monto",
							"type": "uint256"
						}
					],
					"name": "PrestamoReembolsado",
					"type": "event"
				},
				{
					"anonymous": false,
					"inputs": [
						{
							"indexed": true,
							"internalType": "address",
							"name": "prestatario",
							"type": "address"
						},
						{
							"indexed": false,
							"internalType": "uint256",
							"name": "monto",
							"type": "uint256"
						},
						{
							"indexed": false,
							"internalType": "uint256",
							"name": "plazo",
							"type": "uint256"
						}
					],
					"name": "SolicitudPrestamo",
					"type": "event"
				},
				{
					"inputs": [
						{
							"internalType": "address",
							"name": "nuevoCliente_",
							"type": "address"
						}
					],
					"name": "altaCliente",
					"outputs": [],
					"stateMutability": "nonpayable",
					"type": "function"
				},
				{
					"inputs": [
						{
							"internalType": "address",
							"name": "nuevoPrestamista_",
							"type": "address"
						}
					],
					"name": "altaPrestamista",
					"outputs": [],
					"stateMutability": "nonpayable",
					"type": "function"
				},
				{
					"inputs": [
						{
							"internalType": "address",
							"name": "prestatario_",
							"type": "address"
						},
						{
							"internalType": "uint256",
							"name": "id_",
							"type": "uint256"
						}
					],
					"name": "aprobarPrestamo",
					"outputs": [],
					"stateMutability": "nonpayable",
					"type": "function"
				},
				{
					"inputs": [
						{
							"internalType": "address",
							"name": "",
							"type": "address"
						}
					],
					"name": "clientes",
					"outputs": [
						{
							"internalType": "bool",
							"name": "activado",
							"type": "bool"
						},
						{
							"internalType": "uint256",
							"name": "saldoGarantia",
							"type": "uint256"
						}
					],
					"stateMutability": "view",
					"type": "function"
				},
				{
					"inputs": [],
					"name": "depositarGarantia",
					"outputs": [],
					"stateMutability": "payable",
					"type": "function"
				},
				{
					"inputs": [
						{
							"internalType": "address",
							"name": "",
							"type": "address"
						}
					],
					"name": "empleadosPrestamista",
					"outputs": [
						{
							"internalType": "bool",
							"name": "",
							"type": "bool"
						}
					],
					"stateMutability": "view",
					"type": "function"
				},
				{
					"inputs": [
						{
							"internalType": "address",
							"name": "prestatario_",
							"type": "address"
						},
						{
							"internalType": "uint256",
							"name": "id_",
							"type": "uint256"
						}
					],
					"name": "liquidarGrantia",
					"outputs": [],
					"stateMutability": "nonpayable",
					"type": "function"
				},
				{
					"inputs": [
						{
							"internalType": "address",
							"name": "prestatario_",
							"type": "address"
						},
						{
							"internalType": "uint256",
							"name": "id_",
							"type": "uint256"
						}
					],
					"name": "obtenerDetallaPrestamo",
					"outputs": [
						{
							"components": [
								{
									"internalType": "uint256",
									"name": "id",
									"type": "uint256"
								},
								{
									"internalType": "address",
									"name": "prestatario",
									"type": "address"
								},
								{
									"internalType": "uint256",
									"name": "monto",
									"type": "uint256"
								},
								{
									"internalType": "uint256",
									"name": "plazo",
									"type": "uint256"
								},
								{
									"internalType": "uint256",
									"name": "tiempoSolicitud",
									"type": "uint256"
								},
								{
									"internalType": "uint256",
									"name": "tiempoLimite",
									"type": "uint256"
								},
								{
									"internalType": "bool",
									"name": "aprobado",
									"type": "bool"
								},
								{
									"internalType": "bool",
									"name": "reembolsado",
									"type": "bool"
								},
								{
									"internalType": "bool",
									"name": "liquidado",
									"type": "bool"
								}
							],
							"internalType": "struct PrestamoDefi.Prestamo",
							"name": "",
							"type": "tuple"
						}
					],
					"stateMutability": "view",
					"type": "function"
				},
				{
					"inputs": [
						{
							"internalType": "address",
							"name": "prestatario_",
							"type": "address"
						}
					],
					"name": "obtenerPrestamosPorPrestatario",
					"outputs": [
						{
							"internalType": "uint256[]",
							"name": "",
							"type": "uint256[]"
						}
					],
					"stateMutability": "view",
					"type": "function"
				},
				{
					"inputs": [
						{
							"internalType": "uint256",
							"name": "id_",
							"type": "uint256"
						}
					],
					"name": "reembolsarPrestamo",
					"outputs": [],
					"stateMutability": "nonpayable",
					"type": "function"
				},
				{
					"inputs": [],
					"name": "socioPrincipal",
					"outputs": [
						{
							"internalType": "address",
							"name": "",
							"type": "address"
						}
					],
					"stateMutability": "view",
					"type": "function"
				},
				{
					"inputs": [
						{
							"internalType": "uint256",
							"name": "monto_",
							"type": "uint256"
						},
						{
							"internalType": "uint256",
							"name": "plazo_",
							"type": "uint256"
						}
					],
					"name": "solicitarPrestamos",
					"outputs": [
						{
							"internalType": "uint256",
							"name": "",
							"type": "uint256"
						}
					],
					"stateMutability": "nonpayable",
					"type": "function"
				}
			],
			"devdoc": {
				"kind": "dev",
				"methods": {},
				"version": 1
			},
			"evm": {
				"assembly": "    /* \"PrestamoDefi.sol\":57:8377  contract PrestamoDefi {... */\n  mstore(0x40, 0x80)\n    /* \"PrestamoDefi.sol\":1783:1894  constructor (){... */\n  callvalue\n  dup1\n  iszero\n  tag_1\n  jumpi\n  0x00\n  dup1\n  revert\ntag_1:\n  pop\n    /* \"PrestamoDefi.sol\":1824:1834  msg.sender */\n  caller\n    /* \"PrestamoDefi.sol\":1807:1821  socioPrincipal */\n  0x00\n  dup1\n    /* \"PrestamoDefi.sol\":1807:1834  socioPrincipal = msg.sender */\n  0x0100\n  exp\n  dup2\n  sload\n  dup2\n  0xffffffffffffffffffffffffffffffffffffffff\n  mul\n  not\n  and\n  swap1\n  dup4\n  0xffffffffffffffffffffffffffffffffffffffff\n  and\n  mul\n  or\n  swap1\n  sstore\n  pop\n    /* \"PrestamoDefi.sol\":1883:1887  true */\n  0x01\n    /* \"PrestamoDefi.sol\":1844:1864  empleadosPrestamista */\n  0x02\n    /* \"PrestamoDefi.sol\":1844:1880  empleadosPrestamista[socioPrincipal] */\n  0x00\n    /* \"PrestamoDefi.sol\":1865:1879  socioPrincipal */\n  dup1\n  0x00\n  swap1\n  sload\n  swap1\n  0x0100\n  exp\n  swap1\n  div\n  0xffffffffffffffffffffffffffffffffffffffff\n  and\n    /* \"PrestamoDefi.sol\":1844:1880  empleadosPrestamista[socioPrincipal] */\n  0xffffffffffffffffffffffffffffffffffffffff\n  and\n  0xffffffffffffffffffffffffffffffffffffffff\n  and\n  dup2\n  mstore\n  0x20\n  add\n  swap1\n  dup2\n  mstore\n  0x20\n  add\n  0x00\n  keccak256\n  0x00\n    /* \"PrestamoDefi.sol\":1844:1887  empleadosPrestamista[socioPrincipal] = true */\n  0x0100\n  exp\n  dup2\n  sload\n  dup2\n  0xff\n  mul\n  not\n  and\n  swap1\n  dup4\n  iszero\n  iszero\n  mul\n  or\n  swap1\n  sstore\n  pop\n    /* \"PrestamoDefi.sol\":57:8377  contract PrestamoDefi {... */\n  dataSize(sub_0)\n  dup1\n  dataOffset(sub_0)\n  0x00\n  codecopy\n  0x00\n  return\nstop\n\nsub_0: assembly {\n        /* \"PrestamoDefi.sol\":57:8377  contract PrestamoDefi {... */\n      mstore(0x40, 0x80)\n      jumpi(tag_1, lt(calldatasize, 0x04))\n      shr(0xe0, calldataload(0x00))\n      dup1\n      0x8b08de28\n      gt\n      tag_14\n      jumpi\n      dup1\n      0x8b08de28\n      eq\n      tag_8\n      jumpi\n      dup1\n      0xc1e83336\n      eq\n      tag_9\n      jumpi\n      dup1\n      0xc2b12461\n      eq\n      tag_10\n      jumpi\n      dup1\n      0xcb4e6b66\n      eq\n      tag_11\n      jumpi\n      dup1\n      0xdea42370\n      eq\n      tag_12\n      jumpi\n      dup1\n      0xf56f47a8\n      eq\n      tag_13\n      jumpi\n      jump(tag_1)\n    tag_14:\n      dup1\n      0x118557e0\n      eq\n      tag_2\n      jumpi\n      dup1\n      0x1b2be6e0\n      eq\n      tag_3\n      jumpi\n      dup1\n      0x3f881611\n      eq\n      tag_4\n      jumpi\n      dup1\n      0x425743bc\n      eq\n      tag_5\n      jumpi\n      dup1\n      0x426cb8e9\n      eq\n      tag_6\n      jumpi\n      dup1\n      0x74b23349\n      eq\n      tag_7\n      jumpi\n    tag_1:\n      0x00\n      dup1\n      revert\n        /* \"PrestamoDefi.sol\":6684:7856  function liquidarGrantia (address prestatario_, uint256 id_) public soloSocioEmpleadoPrestamista{... */\n    tag_2:\n      callvalue\n      dup1\n      iszero\n      tag_15\n      jumpi\n      0x00\n      dup1\n      revert\n    tag_15:\n      pop\n      tag_16\n      0x04\n      dup1\n      calldatasize\n      sub\n      dup2\n      add\n      swap1\n      tag_17\n      swap2\n      swap1\n      tag_18\n      jump\t// in\n    tag_17:\n      tag_19\n      jump\t// in\n    tag_16:\n      stop\n        /* \"PrestamoDefi.sol\":2982:4216  function solicitarPrestamos (uint256 monto_, uint256 plazo_) public  soloClienteRegistrado returns(uint256){... */\n    tag_3:\n      callvalue\n      dup1\n      iszero\n      tag_20\n      jumpi\n      0x00\n      dup1\n      revert\n    tag_20:\n      pop\n      tag_21\n      0x04\n      dup1\n      calldatasize\n      sub\n      dup2\n      add\n      swap1\n      tag_22\n      swap2\n      swap1\n      tag_23\n      jump\t// in\n    tag_22:\n      tag_24\n      jump\t// in\n    tag_21:\n      mload(0x40)\n      tag_25\n      swap2\n      swap1\n      tag_26\n      jump\t// in\n    tag_25:\n      mload(0x40)\n      dup1\n      swap2\n      sub\n      swap1\n      return\n        /* \"PrestamoDefi.sol\":126:155  address public socioPrincipal */\n    tag_4:\n      callvalue\n      dup1\n      iszero\n      tag_27\n      jumpi\n      0x00\n      dup1\n      revert\n    tag_27:\n      pop\n      tag_28\n      tag_29\n      jump\t// in\n    tag_28:\n      mload(0x40)\n      tag_30\n      swap2\n      swap1\n      tag_31\n      jump\t// in\n    tag_30:\n      mload(0x40)\n      dup1\n      swap2\n      sub\n      swap1\n      return\n        /* \"PrestamoDefi.sol\":2322:2758  function altaCliente(address nuevoCliente_) public soloSocioEmpleadoPrestamista{... */\n    tag_5:\n      callvalue\n      dup1\n      iszero\n      tag_32\n      jumpi\n      0x00\n      dup1\n      revert\n    tag_32:\n      pop\n      tag_33\n      0x04\n      dup1\n      calldatasize\n      sub\n      dup2\n      add\n      swap1\n      tag_34\n      swap2\n      swap1\n      tag_35\n      jump\t// in\n    tag_34:\n      tag_36\n      jump\t// in\n    tag_33:\n      stop\n        /* \"PrestamoDefi.sol\":8199:8374  function obtenerDetallaPrestamo(address prestatario_, uint256 id_ ) public view returns(Prestamo memory) {... */\n    tag_6:\n      callvalue\n      dup1\n      iszero\n      tag_37\n      jumpi\n      0x00\n      dup1\n      revert\n    tag_37:\n      pop\n      tag_38\n      0x04\n      dup1\n      calldatasize\n      sub\n      dup2\n      add\n      swap1\n      tag_39\n      swap2\n      swap1\n      tag_18\n      jump\t// in\n    tag_39:\n      tag_40\n      jump\t// in\n    tag_38:\n      mload(0x40)\n      tag_41\n      swap2\n      swap1\n      tag_42\n      jump\t// in\n    tag_41:\n      mload(0x40)\n      dup1\n      swap2\n      sub\n      swap1\n      return\n        /* \"PrestamoDefi.sol\":721:764  mapping(address => Cliente) public clientes */\n    tag_7:\n      callvalue\n      dup1\n      iszero\n      tag_43\n      jumpi\n      0x00\n      dup1\n      revert\n    tag_43:\n      pop\n      tag_44\n      0x04\n      dup1\n      calldatasize\n      sub\n      dup2\n      add\n      swap1\n      tag_45\n      swap2\n      swap1\n      tag_35\n      jump\t// in\n    tag_45:\n      tag_46\n      jump\t// in\n    tag_44:\n      mload(0x40)\n      tag_47\n      swap3\n      swap2\n      swap1\n      tag_48\n      jump\t// in\n    tag_47:\n      mload(0x40)\n      dup1\n      swap2\n      sub\n      swap1\n      return\n        /* \"PrestamoDefi.sol\":4260:5335  function aprobarPrestamo (address prestatario_, uint256 id_) public soloSocioEmpleadoPrestamista{... */\n    tag_8:\n      callvalue\n      dup1\n      iszero\n      tag_49\n      jumpi\n      0x00\n      dup1\n      revert\n    tag_49:\n      pop\n      tag_50\n      0x04\n      dup1\n      calldatasize\n      sub\n      dup2\n      add\n      swap1\n      tag_51\n      swap2\n      swap1\n      tag_18\n      jump\t// in\n    tag_51:\n      tag_52\n      jump\t// in\n    tag_50:\n      stop\n        /* \"PrestamoDefi.sol\":2009:2259  function altaPrestamista (address nuevoPrestamista_) public soloSocioPrincipal{... */\n    tag_9:\n      callvalue\n      dup1\n      iszero\n      tag_53\n      jumpi\n      0x00\n      dup1\n      revert\n    tag_53:\n      pop\n      tag_54\n      0x04\n      dup1\n      calldatasize\n      sub\n      dup2\n      add\n      swap1\n      tag_55\n      swap2\n      swap1\n      tag_35\n      jump\t// in\n    tag_55:\n      tag_56\n      jump\t// in\n    tag_54:\n      stop\n        /* \"PrestamoDefi.sol\":770:822  mapping(address => bool) public empleadosPrestamista */\n    tag_10:\n      callvalue\n      dup1\n      iszero\n      tag_57\n      jumpi\n      0x00\n      dup1\n      revert\n    tag_57:\n      pop\n      tag_58\n      0x04\n      dup1\n      calldatasize\n      sub\n      dup2\n      add\n      swap1\n      tag_59\n      swap2\n      swap1\n      tag_35\n      jump\t// in\n    tag_59:\n      tag_60\n      jump\t// in\n    tag_58:\n      mload(0x40)\n      tag_61\n      swap2\n      swap1\n      tag_62\n      jump\t// in\n    tag_61:\n      mload(0x40)\n      dup1\n      swap2\n      sub\n      swap1\n      return\n        /* \"PrestamoDefi.sol\":7960:8130  function obtenerPrestamosPorPrestatario(address prestatario_) public view returns(uint256[] memory) {... */\n    tag_11:\n      callvalue\n      dup1\n      iszero\n      tag_63\n      jumpi\n      0x00\n      dup1\n      revert\n    tag_63:\n      pop\n      tag_64\n      0x04\n      dup1\n      calldatasize\n      sub\n      dup2\n      add\n      swap1\n      tag_65\n      swap2\n      swap1\n      tag_35\n      jump\t// in\n    tag_65:\n      tag_66\n      jump\t// in\n    tag_64:\n      mload(0x40)\n      tag_67\n      swap2\n      swap1\n      tag_68\n      jump\t// in\n    tag_67:\n      mload(0x40)\n      dup1\n      swap2\n      sub\n      swap1\n      return\n        /* \"PrestamoDefi.sol\":5429:6588  function reembolsarPrestamo(uint256 id_) public soloClienteRegistrado{... */\n    tag_12:\n      callvalue\n      dup1\n      iszero\n      tag_69\n      jumpi\n      0x00\n      dup1\n      revert\n    tag_69:\n      pop\n      tag_70\n      0x04\n      dup1\n      calldatasize\n      sub\n      dup2\n      add\n      swap1\n      tag_71\n      swap2\n      swap1\n      tag_72\n      jump\t// in\n    tag_71:\n      tag_73\n      jump\t// in\n    tag_70:\n      stop\n        /* \"PrestamoDefi.sol\":2806:2917  function depositarGarantia()  public payable {... */\n    tag_13:\n      tag_74\n      tag_75\n      jump\t// in\n    tag_74:\n      stop\n        /* \"PrestamoDefi.sol\":6684:7856  function liquidarGrantia (address prestatario_, uint256 id_) public soloSocioEmpleadoPrestamista{... */\n    tag_19:\n        /* \"PrestamoDefi.sol\":1509:1513  true */\n      0x01\n        /* \"PrestamoDefi.sol\":1473:1513  empleadosPrestamista[msg.sender] == true */\n      iszero\n      iszero\n        /* \"PrestamoDefi.sol\":1473:1493  empleadosPrestamista */\n      0x02\n        /* \"PrestamoDefi.sol\":1473:1505  empleadosPrestamista[msg.sender] */\n      0x00\n        /* \"PrestamoDefi.sol\":1494:1504  msg.sender */\n      caller\n        /* \"PrestamoDefi.sol\":1473:1505  empleadosPrestamista[msg.sender] */\n      0xffffffffffffffffffffffffffffffffffffffff\n      and\n      0xffffffffffffffffffffffffffffffffffffffff\n      and\n      dup2\n      mstore\n      0x20\n      add\n      swap1\n      dup2\n      mstore\n      0x20\n      add\n      0x00\n      keccak256\n      0x00\n      swap1\n      sload\n      swap1\n      0x0100\n      exp\n      swap1\n      div\n      0xff\n      and\n        /* \"PrestamoDefi.sol\":1473:1513  empleadosPrestamista[msg.sender] == true */\n      iszero\n      iszero\n      eq\n        /* \"PrestamoDefi.sol\":1464:1547  require( empleadosPrestamista[msg.sender] == true, \"Error, no estas dado de alta\" ) */\n      tag_77\n      jumpi\n      mload(0x40)\n      0x08c379a000000000000000000000000000000000000000000000000000000000\n      dup2\n      mstore\n      0x04\n      add\n      tag_78\n      swap1\n      tag_79\n      jump\t// in\n    tag_78:\n      mload(0x40)\n      dup1\n      swap2\n      sub\n      swap1\n      revert\n    tag_77:\n        /* \"PrestamoDefi.sol\":6885:6912  Cliente storage prestatario */\n      0x00\n        /* \"PrestamoDefi.sol\":6915:6923  clientes */\n      0x01\n        /* \"PrestamoDefi.sol\":6915:6937  clientes[prestatario_] */\n      0x00\n        /* \"PrestamoDefi.sol\":6924:6936  prestatario_ */\n      dup5\n        /* \"PrestamoDefi.sol\":6915:6937  clientes[prestatario_] */\n      0xffffffffffffffffffffffffffffffffffffffff\n      and\n      0xffffffffffffffffffffffffffffffffffffffff\n      and\n      dup2\n      mstore\n      0x20\n      add\n      swap1\n      dup2\n      mstore\n      0x20\n      add\n      0x00\n      keccak256\n        /* \"PrestamoDefi.sol\":6885:6937  Cliente storage prestatario = clientes[prestatario_] */\n      swap1\n      pop\n        /* \"PrestamoDefi.sol\":7052:7053  0 */\n      0x00\n        /* \"PrestamoDefi.sol\":7046:7049  id_ */\n      dup3\n        /* \"PrestamoDefi.sol\":7046:7053  id_ > 0 */\n      gt\n        /* \"PrestamoDefi.sol\":7046:7094  id_ > 0 && id_ <= prestatario.prestamoIds.length */\n      dup1\n      iszero\n      tag_81\n      jumpi\n      pop\n        /* \"PrestamoDefi.sol\":7064:7075  prestatario */\n      dup1\n        /* \"PrestamoDefi.sol\":7064:7087  prestatario.prestamoIds */\n      0x03\n      add\n        /* \"PrestamoDefi.sol\":7064:7094  prestatario.prestamoIds.length */\n      dup1\n      sload\n      swap1\n      pop\n        /* \"PrestamoDefi.sol\":7057:7060  id_ */\n      dup3\n        /* \"PrestamoDefi.sol\":7057:7094  id_ <= prestatario.prestamoIds.length */\n      gt\n      iszero\n        /* \"PrestamoDefi.sol\":7046:7094  id_ > 0 && id_ <= prestatario.prestamoIds.length */\n    tag_81:\n        /* \"PrestamoDefi.sol\":7038:7124  require(id_ > 0 && id_ <= prestatario.prestamoIds.length, \"Error, la ID no es valido\") */\n      tag_82\n      jumpi\n      mload(0x40)\n      0x08c379a000000000000000000000000000000000000000000000000000000000\n      dup2\n      mstore\n      0x04\n      add\n      tag_83\n      swap1\n      tag_84\n      jump\t// in\n    tag_83:\n      mload(0x40)\n      dup1\n      swap2\n      sub\n      swap1\n      revert\n    tag_82:\n        /* \"PrestamoDefi.sol\":7143:7168  Prestamo storage prestamo */\n      0x00\n        /* \"PrestamoDefi.sol\":7171:7182  prestatario */\n      dup2\n        /* \"PrestamoDefi.sol\":7171:7192  prestatario.prestamos */\n      0x02\n      add\n        /* \"PrestamoDefi.sol\":7171:7197  prestatario.prestamos[id_] */\n      0x00\n        /* \"PrestamoDefi.sol\":7193:7196  id_ */\n      dup5\n        /* \"PrestamoDefi.sol\":7171:7197  prestatario.prestamos[id_] */\n      dup2\n      mstore\n      0x20\n      add\n      swap1\n      dup2\n      mstore\n      0x20\n      add\n      0x00\n      keccak256\n        /* \"PrestamoDefi.sol\":7143:7197  Prestamo storage prestamo = prestatario.prestamos[id_] */\n      swap1\n      pop\n        /* \"PrestamoDefi.sol\":7258:7266  prestamo */\n      dup1\n        /* \"PrestamoDefi.sol\":7258:7275  prestamo.aprobado */\n      0x06\n      add\n      0x00\n      swap1\n      sload\n      swap1\n      0x0100\n      exp\n      swap1\n      div\n      0xff\n      and\n        /* \"PrestamoDefi.sol\":7250:7315  require(prestamo.aprobado, \"Error, el prestamo no esta aprobado\") */\n      tag_85\n      jumpi\n      mload(0x40)\n      0x08c379a000000000000000000000000000000000000000000000000000000000\n      dup2\n      mstore\n      0x04\n      add\n      tag_86\n      swap1\n      tag_87\n      jump\t// in\n    tag_86:\n      mload(0x40)\n      dup1\n      swap2\n      sub\n      swap1\n      revert\n    tag_85:\n        /* \"PrestamoDefi.sol\":7334:7342  prestamo */\n      dup1\n        /* \"PrestamoDefi.sol\":7334:7354  prestamo.reembolsado */\n      0x06\n      add\n      0x01\n      swap1\n      sload\n      swap1\n      0x0100\n      exp\n      swap1\n      div\n      0xff\n      and\n        /* \"PrestamoDefi.sol\":7333:7354  !prestamo.reembolsado */\n      iszero\n        /* \"PrestamoDefi.sol\":7325:7394  require(!prestamo.reembolsado, \"Error, el prestamo esta reembolsado\") */\n      tag_88\n      jumpi\n      mload(0x40)\n      0x08c379a000000000000000000000000000000000000000000000000000000000\n      dup2\n      mstore\n      0x04\n      add\n      tag_89\n      swap1\n      tag_90\n      jump\t// in\n    tag_89:\n      mload(0x40)\n      dup1\n      swap2\n      sub\n      swap1\n      revert\n    tag_88:\n        /* \"PrestamoDefi.sol\":7413:7421  prestamo */\n      dup1\n        /* \"PrestamoDefi.sol\":7413:7431  prestamo.liquidado */\n      0x06\n      add\n      0x02\n      swap1\n      sload\n      swap1\n      0x0100\n      exp\n      swap1\n      div\n      0xff\n      and\n        /* \"PrestamoDefi.sol\":7412:7431  !prestamo.liquidado */\n      iszero\n        /* \"PrestamoDefi.sol\":7404:7469  require(!prestamo.liquidado, \"Error, el prestamo esta liquidado\") */\n      tag_91\n      jumpi\n      mload(0x40)\n      0x08c379a000000000000000000000000000000000000000000000000000000000\n      dup2\n      mstore\n      0x04\n      add\n      tag_92\n      swap1\n      tag_93\n      jump\t// in\n    tag_92:\n      mload(0x40)\n      dup1\n      swap2\n      sub\n      swap1\n      revert\n    tag_91:\n        /* \"PrestamoDefi.sol\":7505:7513  prestamo */\n      dup1\n        /* \"PrestamoDefi.sol\":7505:7526  prestamo.tiempoLimite */\n      0x05\n      add\n      sload\n        /* \"PrestamoDefi.sol\":7487:7502  block.timestamp */\n      timestamp\n        /* \"PrestamoDefi.sol\":7487:7526  block.timestamp > prestamo.tiempoLimite */\n      gt\n        /* \"PrestamoDefi.sol\":7479:7571  require(block.timestamp > prestamo.tiempoLimite, \"Error, no se ha pasado el tiempo de pago\") */\n      tag_94\n      jumpi\n      mload(0x40)\n      0x08c379a000000000000000000000000000000000000000000000000000000000\n      dup2\n      mstore\n      0x04\n      add\n      tag_95\n      swap1\n      tag_96\n      jump\t// in\n    tag_95:\n      mload(0x40)\n      dup1\n      swap2\n      sub\n      swap1\n      revert\n    tag_94:\n        /* \"PrestamoDefi.sol\":7616:7630  socioPrincipal */\n      0x00\n      dup1\n      sload\n      swap1\n      0x0100\n      exp\n      swap1\n      div\n      0xffffffffffffffffffffffffffffffffffffffff\n      and\n        /* \"PrestamoDefi.sol\":7608:7640  payable(socioPrincipal).transfer */\n      0xffffffffffffffffffffffffffffffffffffffff\n      and\n        /* \"PrestamoDefi.sol\":7608:7656  payable(socioPrincipal).transfer(prestamo.monto) */\n      0x08fc\n        /* \"PrestamoDefi.sol\":7641:7649  prestamo */\n      dup3\n        /* \"PrestamoDefi.sol\":7641:7655  prestamo.monto */\n      0x02\n      add\n      sload\n        /* \"PrestamoDefi.sol\":7608:7656  payable(socioPrincipal).transfer(prestamo.monto) */\n      swap1\n      dup2\n      iszero\n      mul\n      swap1\n      mload(0x40)\n      0x00\n      mload(0x40)\n      dup1\n      dup4\n      sub\n      dup2\n      dup6\n      dup9\n      dup9\n      call\n      swap4\n      pop\n      pop\n      pop\n      pop\n      iszero\n      dup1\n      iszero\n      tag_98\n      jumpi\n      returndatasize\n      0x00\n      dup1\n      returndatacopy\n      revert(0x00, returndatasize)\n    tag_98:\n      pop\n        /* \"PrestamoDefi.sol\":7688:7692  true */\n      0x01\n        /* \"PrestamoDefi.sol\":7667:7675  prestamo */\n      dup2\n        /* \"PrestamoDefi.sol\":7667:7685  prestamo.liquidado */\n      0x06\n      add\n      0x02\n        /* \"PrestamoDefi.sol\":7667:7692  prestamo.liquidado = true */\n      0x0100\n      exp\n      dup2\n      sload\n      dup2\n      0xff\n      mul\n      not\n      and\n      swap1\n      dup4\n      iszero\n      iszero\n      mul\n      or\n      swap1\n      sstore\n      pop\n        /* \"PrestamoDefi.sol\":7731:7739  prestamo */\n      dup1\n        /* \"PrestamoDefi.sol\":7731:7745  prestamo.monto */\n      0x02\n      add\n      sload\n        /* \"PrestamoDefi.sol\":7702:7713  prestatario */\n      dup3\n        /* \"PrestamoDefi.sol\":7702:7727  prestatario.saldoGarantia */\n      0x01\n      add\n      0x00\n        /* \"PrestamoDefi.sol\":7702:7745  prestatario.saldoGarantia -= prestamo.monto */\n      dup3\n      dup3\n      sload\n      tag_99\n      swap2\n      swap1\n      tag_100\n      jump\t// in\n    tag_99:\n      swap3\n      pop\n      pop\n      dup2\n      swap1\n      sstore\n      pop\n        /* \"PrestamoDefi.sol\":7815:7827  prestatario_ */\n      dup4\n        /* \"PrestamoDefi.sol\":7797:7844  GarantiaLiquidada(prestatario_, prestamo.monto) */\n      0xffffffffffffffffffffffffffffffffffffffff\n      and\n      0x20a0b1dc781935ba0bbb6a4cd56d8d1fa7c8c14de23b10f7e34ec35bf57856f4\n        /* \"PrestamoDefi.sol\":7829:7837  prestamo */\n      dup3\n        /* \"PrestamoDefi.sol\":7829:7843  prestamo.monto */\n      0x02\n      add\n      sload\n        /* \"PrestamoDefi.sol\":7797:7844  GarantiaLiquidada(prestatario_, prestamo.monto) */\n      mload(0x40)\n      tag_101\n      swap2\n      swap1\n      tag_26\n      jump\t// in\n    tag_101:\n      mload(0x40)\n      dup1\n      swap2\n      sub\n      swap1\n      log2\n        /* \"PrestamoDefi.sol\":6780:7856  {... */\n      pop\n      pop\n        /* \"PrestamoDefi.sol\":6684:7856  function liquidarGrantia (address prestatario_, uint256 id_) public soloSocioEmpleadoPrestamista{... */\n      pop\n      pop\n      jump\t// out\n        /* \"PrestamoDefi.sol\":2982:4216  function solicitarPrestamos (uint256 monto_, uint256 plazo_) public  soloClienteRegistrado returns(uint256){... */\n    tag_24:\n        /* \"PrestamoDefi.sol\":3081:3088  uint256 */\n      0x00\n        /* \"PrestamoDefi.sol\":1655:1659  true */\n      0x01\n        /* \"PrestamoDefi.sol\":1622:1659  clientes[msg.sender].activado == true */\n      iszero\n      iszero\n        /* \"PrestamoDefi.sol\":1622:1630  clientes */\n      0x01\n        /* \"PrestamoDefi.sol\":1622:1642  clientes[msg.sender] */\n      0x00\n        /* \"PrestamoDefi.sol\":1631:1641  msg.sender */\n      caller\n        /* \"PrestamoDefi.sol\":1622:1642  clientes[msg.sender] */\n      0xffffffffffffffffffffffffffffffffffffffff\n      and\n      0xffffffffffffffffffffffffffffffffffffffff\n      and\n      dup2\n      mstore\n      0x20\n      add\n      swap1\n      dup2\n      mstore\n      0x20\n      add\n      0x00\n      keccak256\n        /* \"PrestamoDefi.sol\":1622:1651  clientes[msg.sender].activado */\n      0x00\n      add\n      0x00\n      swap1\n      sload\n      swap1\n      0x0100\n      exp\n      swap1\n      div\n      0xff\n      and\n        /* \"PrestamoDefi.sol\":1622:1659  clientes[msg.sender].activado == true */\n      iszero\n      iszero\n      eq\n        /* \"PrestamoDefi.sol\":1613:1700  require( clientes[msg.sender].activado == true, \"Error, el cliente no esta registrado\") */\n      tag_103\n      jumpi\n      mload(0x40)\n      0x08c379a000000000000000000000000000000000000000000000000000000000\n      dup2\n      mstore\n      0x04\n      add\n      tag_104\n      swap1\n      tag_105\n      jump\t// in\n    tag_104:\n      mload(0x40)\n      dup1\n      swap2\n      sub\n      swap1\n      revert\n    tag_103:\n        /* \"PrestamoDefi.sol\":3145:3151  monto_ */\n      dup3\n        /* \"PrestamoDefi.sol\":3107:3115  clientes */\n      0x01\n        /* \"PrestamoDefi.sol\":3107:3127  clientes[msg.sender] */\n      0x00\n        /* \"PrestamoDefi.sol\":3116:3126  msg.sender */\n      caller\n        /* \"PrestamoDefi.sol\":3107:3127  clientes[msg.sender] */\n      0xffffffffffffffffffffffffffffffffffffffff\n      and\n      0xffffffffffffffffffffffffffffffffffffffff\n      and\n      dup2\n      mstore\n      0x20\n      add\n      swap1\n      dup2\n      mstore\n      0x20\n      add\n      0x00\n      keccak256\n        /* \"PrestamoDefi.sol\":3107:3141  clientes[msg.sender].saldoGarantia */\n      0x01\n      add\n      sload\n        /* \"PrestamoDefi.sol\":3107:3151  clientes[msg.sender].saldoGarantia >= monto_ */\n      lt\n      iszero\n        /* \"PrestamoDefi.sol\":3099:3200  require(clientes[msg.sender].saldoGarantia >= monto_, \"Error, no tiene suficiente saldo de garantia\") */\n      tag_107\n      jumpi\n      mload(0x40)\n      0x08c379a000000000000000000000000000000000000000000000000000000000\n      dup2\n      mstore\n      0x04\n      add\n      tag_108\n      swap1\n      tag_109\n      jump\t// in\n    tag_108:\n      mload(0x40)\n      dup1\n      swap2\n      sub\n      swap1\n      revert\n    tag_107:\n        /* \"PrestamoDefi.sol\":3210:3225  uint256 nuevoId */\n      0x00\n        /* \"PrestamoDefi.sol\":3270:3271  1 */\n      0x01\n        /* \"PrestamoDefi.sol\":3228:3236  clientes */\n      dup1\n        /* \"PrestamoDefi.sol\":3228:3248  clientes[msg.sender] */\n      0x00\n        /* \"PrestamoDefi.sol\":3237:3247  msg.sender */\n      caller\n        /* \"PrestamoDefi.sol\":3228:3248  clientes[msg.sender] */\n      0xffffffffffffffffffffffffffffffffffffffff\n      and\n      0xffffffffffffffffffffffffffffffffffffffff\n      and\n      dup2\n      mstore\n      0x20\n      add\n      swap1\n      dup2\n      mstore\n      0x20\n      add\n      0x00\n      keccak256\n        /* \"PrestamoDefi.sol\":3228:3260  clientes[msg.sender].prestamoIds */\n      0x03\n      add\n        /* \"PrestamoDefi.sol\":3228:3267  clientes[msg.sender].prestamoIds.length */\n      dup1\n      sload\n      swap1\n      pop\n        /* \"PrestamoDefi.sol\":3228:3271  clientes[msg.sender].prestamoIds.length + 1 */\n      tag_110\n      swap2\n      swap1\n      tag_111\n      jump\t// in\n    tag_110:\n        /* \"PrestamoDefi.sol\":3210:3271  uint256 nuevoId = clientes[msg.sender].prestamoIds.length + 1 */\n      swap1\n      pop\n        /* \"PrestamoDefi.sol\":3471:3501  Prestamo storage nuevoPrestamo */\n      0x00\n        /* \"PrestamoDefi.sol\":3504:3512  clientes */\n      0x01\n        /* \"PrestamoDefi.sol\":3504:3524  clientes[msg.sender] */\n      0x00\n        /* \"PrestamoDefi.sol\":3513:3523  msg.sender */\n      caller\n        /* \"PrestamoDefi.sol\":3504:3524  clientes[msg.sender] */\n      0xffffffffffffffffffffffffffffffffffffffff\n      and\n      0xffffffffffffffffffffffffffffffffffffffff\n      and\n      dup2\n      mstore\n      0x20\n      add\n      swap1\n      dup2\n      mstore\n      0x20\n      add\n      0x00\n      keccak256\n        /* \"PrestamoDefi.sol\":3504:3534  clientes[msg.sender].prestamos */\n      0x02\n      add\n        /* \"PrestamoDefi.sol\":3504:3543  clientes[msg.sender].prestamos[nuevoId] */\n      0x00\n        /* \"PrestamoDefi.sol\":3535:3542  nuevoId */\n      dup4\n        /* \"PrestamoDefi.sol\":3504:3543  clientes[msg.sender].prestamos[nuevoId] */\n      dup2\n      mstore\n      0x20\n      add\n      swap1\n      dup2\n      mstore\n      0x20\n      add\n      0x00\n      keccak256\n        /* \"PrestamoDefi.sol\":3471:3543  Prestamo storage nuevoPrestamo = clientes[msg.sender].prestamos[nuevoId] */\n      swap1\n      pop\n        /* \"PrestamoDefi.sol\":3573:3580  nuevoId */\n      dup2\n        /* \"PrestamoDefi.sol\":3554:3567  nuevoPrestamo */\n      dup2\n        /* \"PrestamoDefi.sol\":3554:3570  nuevoPrestamo.id */\n      0x00\n      add\n        /* \"PrestamoDefi.sol\":3554:3580  nuevoPrestamo.id = nuevoId */\n      dup2\n      swap1\n      sstore\n      pop\n        /* \"PrestamoDefi.sol\":3618:3628  msg.sender */\n      caller\n        /* \"PrestamoDefi.sol\":3590:3603  nuevoPrestamo */\n      dup2\n        /* \"PrestamoDefi.sol\":3590:3615  nuevoPrestamo.prestatario */\n      0x01\n      add\n      0x00\n        /* \"PrestamoDefi.sol\":3590:3628  nuevoPrestamo.prestatario = msg.sender */\n      0x0100\n      exp\n      dup2\n      sload\n      dup2\n      0xffffffffffffffffffffffffffffffffffffffff\n      mul\n      not\n      and\n      swap1\n      dup4\n      0xffffffffffffffffffffffffffffffffffffffff\n      and\n      mul\n      or\n      swap1\n      sstore\n      pop\n        /* \"PrestamoDefi.sol\":3660:3666  monto_ */\n      dup5\n        /* \"PrestamoDefi.sol\":3638:3651  nuevoPrestamo */\n      dup2\n        /* \"PrestamoDefi.sol\":3638:3657  nuevoPrestamo.monto */\n      0x02\n      add\n        /* \"PrestamoDefi.sol\":3638:3666  nuevoPrestamo.monto = monto_ */\n      dup2\n      swap1\n      sstore\n      pop\n        /* \"PrestamoDefi.sol\":3698:3704  plazo_ */\n      dup4\n        /* \"PrestamoDefi.sol\":3676:3689  nuevoPrestamo */\n      dup2\n        /* \"PrestamoDefi.sol\":3676:3695  nuevoPrestamo.plazo */\n      0x03\n      add\n        /* \"PrestamoDefi.sol\":3676:3704  nuevoPrestamo.plazo = plazo_ */\n      dup2\n      swap1\n      sstore\n      pop\n        /* \"PrestamoDefi.sol\":3746:3761  block.timestamp */\n      timestamp\n        /* \"PrestamoDefi.sol\":3714:3727  nuevoPrestamo */\n      dup2\n        /* \"PrestamoDefi.sol\":3714:3743  nuevoPrestamo.tiempoSolicitud */\n      0x04\n      add\n        /* \"PrestamoDefi.sol\":3714:3761  nuevoPrestamo.tiempoSolicitud = block.timestamp */\n      dup2\n      swap1\n      sstore\n      pop\n        /* \"PrestamoDefi.sol\":3800:3801  0 */\n      0x00\n        /* \"PrestamoDefi.sol\":3771:3784  nuevoPrestamo */\n      dup2\n        /* \"PrestamoDefi.sol\":3771:3797  nuevoPrestamo.tiempoLimite */\n      0x05\n      add\n        /* \"PrestamoDefi.sol\":3771:3801  nuevoPrestamo.tiempoLimite = 0 */\n      dup2\n      swap1\n      sstore\n      pop\n        /* \"PrestamoDefi.sol\":3836:3841  false */\n      0x00\n        /* \"PrestamoDefi.sol\":3811:3824  nuevoPrestamo */\n      dup2\n        /* \"PrestamoDefi.sol\":3811:3833  nuevoPrestamo.aprobado */\n      0x06\n      add\n      0x00\n        /* \"PrestamoDefi.sol\":3811:3841  nuevoPrestamo.aprobado = false */\n      0x0100\n      exp\n      dup2\n      sload\n      dup2\n      0xff\n      mul\n      not\n      and\n      swap1\n      dup4\n      iszero\n      iszero\n      mul\n      or\n      swap1\n      sstore\n      pop\n        /* \"PrestamoDefi.sol\":3879:3884  false */\n      0x00\n        /* \"PrestamoDefi.sol\":3851:3864  nuevoPrestamo */\n      dup2\n        /* \"PrestamoDefi.sol\":3851:3876  nuevoPrestamo.reembolsado */\n      0x06\n      add\n      0x01\n        /* \"PrestamoDefi.sol\":3851:3884  nuevoPrestamo.reembolsado = false */\n      0x0100\n      exp\n      dup2\n      sload\n      dup2\n      0xff\n      mul\n      not\n      and\n      swap1\n      dup4\n      iszero\n      iszero\n      mul\n      or\n      swap1\n      sstore\n      pop\n        /* \"PrestamoDefi.sol\":3920:3925  false */\n      0x00\n        /* \"PrestamoDefi.sol\":3894:3907  nuevoPrestamo */\n      dup2\n        /* \"PrestamoDefi.sol\":3894:3917  nuevoPrestamo.liquidado */\n      0x06\n      add\n      0x02\n        /* \"PrestamoDefi.sol\":3894:3925  nuevoPrestamo.liquidado = false */\n      0x0100\n      exp\n      dup2\n      sload\n      dup2\n      0xff\n      mul\n      not\n      and\n      swap1\n      dup4\n      iszero\n      iszero\n      mul\n      or\n      swap1\n      sstore\n      pop\n        /* \"PrestamoDefi.sol\":4001:4009  clientes */\n      0x01\n        /* \"PrestamoDefi.sol\":4001:4021  clientes[msg.sender] */\n      0x00\n        /* \"PrestamoDefi.sol\":4010:4020  msg.sender */\n      caller\n        /* \"PrestamoDefi.sol\":4001:4021  clientes[msg.sender] */\n      0xffffffffffffffffffffffffffffffffffffffff\n      and\n      0xffffffffffffffffffffffffffffffffffffffff\n      and\n      dup2\n      mstore\n      0x20\n      add\n      swap1\n      dup2\n      mstore\n      0x20\n      add\n      0x00\n      keccak256\n        /* \"PrestamoDefi.sol\":4001:4033  clientes[msg.sender].prestamoIds */\n      0x03\n      add\n        /* \"PrestamoDefi.sol\":4039:4046  nuevoId */\n      dup3\n        /* \"PrestamoDefi.sol\":4001:4047  clientes[msg.sender].prestamoIds.push(nuevoId) */\n      swap1\n      dup1\n      0x01\n      dup2\n      sload\n      add\n      dup1\n      dup3\n      sstore\n      dup1\n      swap2\n      pop\n      pop\n      0x01\n      swap1\n      sub\n      swap1\n      0x00\n      mstore\n      keccak256(0x00, 0x20)\n      add\n      0x00\n      swap1\n      swap2\n      swap1\n      swap2\n      swap1\n      swap2\n      pop\n      sstore\n        /* \"PrestamoDefi.sol\":4157:4167  msg.sender */\n      caller\n        /* \"PrestamoDefi.sol\":4138:4184  SolicitudPrestamo (msg.sender, monto_, plazo_) */\n      0xffffffffffffffffffffffffffffffffffffffff\n      and\n      0x0d7150be5d539fdc82775ebdc49a82680eda44d3b26a2c76f5d6178c68912d1d\n        /* \"PrestamoDefi.sol\":4169:4175  monto_ */\n      dup7\n        /* \"PrestamoDefi.sol\":4177:4183  plazo_ */\n      dup7\n        /* \"PrestamoDefi.sol\":4138:4184  SolicitudPrestamo (msg.sender, monto_, plazo_) */\n      mload(0x40)\n      tag_113\n      swap3\n      swap2\n      swap1\n      tag_114\n      jump\t// in\n    tag_113:\n      mload(0x40)\n      dup1\n      swap2\n      sub\n      swap1\n      log2\n        /* \"PrestamoDefi.sol\":4201:4208  nuevoId */\n      dup2\n        /* \"PrestamoDefi.sol\":4194:4208  return nuevoId */\n      swap3\n      pop\n      pop\n      pop\n        /* \"PrestamoDefi.sol\":2982:4216  function solicitarPrestamos (uint256 monto_, uint256 plazo_) public  soloClienteRegistrado returns(uint256){... */\n      swap3\n      swap2\n      pop\n      pop\n      jump\t// out\n        /* \"PrestamoDefi.sol\":126:155  address public socioPrincipal */\n    tag_29:\n      0x00\n      dup1\n      sload\n      swap1\n      0x0100\n      exp\n      swap1\n      div\n      0xffffffffffffffffffffffffffffffffffffffff\n      and\n      dup2\n      jump\t// out\n        /* \"PrestamoDefi.sol\":2322:2758  function altaCliente(address nuevoCliente_) public soloSocioEmpleadoPrestamista{... */\n    tag_36:\n        /* \"PrestamoDefi.sol\":1509:1513  true */\n      0x01\n        /* \"PrestamoDefi.sol\":1473:1513  empleadosPrestamista[msg.sender] == true */\n      iszero\n      iszero\n        /* \"PrestamoDefi.sol\":1473:1493  empleadosPrestamista */\n      0x02\n        /* \"PrestamoDefi.sol\":1473:1505  empleadosPrestamista[msg.sender] */\n      0x00\n        /* \"PrestamoDefi.sol\":1494:1504  msg.sender */\n      caller\n        /* \"PrestamoDefi.sol\":1473:1505  empleadosPrestamista[msg.sender] */\n      0xffffffffffffffffffffffffffffffffffffffff\n      and\n      0xffffffffffffffffffffffffffffffffffffffff\n      and\n      dup2\n      mstore\n      0x20\n      add\n      swap1\n      dup2\n      mstore\n      0x20\n      add\n      0x00\n      keccak256\n      0x00\n      swap1\n      sload\n      swap1\n      0x0100\n      exp\n      swap1\n      div\n      0xff\n      and\n        /* \"PrestamoDefi.sol\":1473:1513  empleadosPrestamista[msg.sender] == true */\n      iszero\n      iszero\n      eq\n        /* \"PrestamoDefi.sol\":1464:1547  require( empleadosPrestamista[msg.sender] == true, \"Error, no estas dado de alta\" ) */\n      tag_116\n      jumpi\n      mload(0x40)\n      0x08c379a000000000000000000000000000000000000000000000000000000000\n      dup2\n      mstore\n      0x04\n      add\n      tag_117\n      swap1\n      tag_79\n      jump\t// in\n    tag_117:\n      mload(0x40)\n      dup1\n      swap2\n      sub\n      swap1\n      revert\n    tag_116:\n        /* \"PrestamoDefi.sol\":2421:2429  clientes */\n      0x01\n        /* \"PrestamoDefi.sol\":2421:2444  clientes[nuevoCliente_] */\n      0x00\n        /* \"PrestamoDefi.sol\":2430:2443  nuevoCliente_ */\n      dup3\n        /* \"PrestamoDefi.sol\":2421:2444  clientes[nuevoCliente_] */\n      0xffffffffffffffffffffffffffffffffffffffff\n      and\n      0xffffffffffffffffffffffffffffffffffffffff\n      and\n      dup2\n      mstore\n      0x20\n      add\n      swap1\n      dup2\n      mstore\n      0x20\n      add\n      0x00\n      keccak256\n        /* \"PrestamoDefi.sol\":2421:2453  clientes[nuevoCliente_].activado */\n      0x00\n      add\n      0x00\n      swap1\n      sload\n      swap1\n      0x0100\n      exp\n      swap1\n      div\n      0xff\n      and\n        /* \"PrestamoDefi.sol\":2420:2453  !clientes[nuevoCliente_].activado */\n      iszero\n        /* \"PrestamoDefi.sol\":2411:2498  require (!clientes[nuevoCliente_].activado, \"Error, el cliente ya estaba dado de alta\") */\n      tag_119\n      jumpi\n      mload(0x40)\n      0x08c379a000000000000000000000000000000000000000000000000000000000\n      dup2\n      mstore\n      0x04\n      add\n      tag_120\n      swap1\n      tag_121\n      jump\t// in\n    tag_120:\n      mload(0x40)\n      dup1\n      swap2\n      sub\n      swap1\n      revert\n    tag_119:\n        /* \"PrestamoDefi.sol\":2600:2634  Cliente storage structNuevoCliente */\n      0x00\n        /* \"PrestamoDefi.sol\":2637:2645  clientes */\n      0x01\n        /* \"PrestamoDefi.sol\":2637:2660  clientes[nuevoCliente_] */\n      0x00\n        /* \"PrestamoDefi.sol\":2646:2659  nuevoCliente_ */\n      dup4\n        /* \"PrestamoDefi.sol\":2637:2660  clientes[nuevoCliente_] */\n      0xffffffffffffffffffffffffffffffffffffffff\n      and\n      0xffffffffffffffffffffffffffffffffffffffff\n      and\n      dup2\n      mstore\n      0x20\n      add\n      swap1\n      dup2\n      mstore\n      0x20\n      add\n      0x00\n      keccak256\n        /* \"PrestamoDefi.sol\":2600:2660  Cliente storage structNuevoCliente = clientes[nuevoCliente_] */\n      swap1\n      pop\n        /* \"PrestamoDefi.sol\":2705:2706  0 */\n      0x00\n        /* \"PrestamoDefi.sol\":2670:2688  structNuevoCliente */\n      dup2\n        /* \"PrestamoDefi.sol\":2670:2702  structNuevoCliente.saldoGarantia */\n      0x01\n      add\n        /* \"PrestamoDefi.sol\":2670:2706  structNuevoCliente.saldoGarantia = 0 */\n      dup2\n      swap1\n      sstore\n      pop\n        /* \"PrestamoDefi.sol\":2746:2750  true */\n      0x01\n        /* \"PrestamoDefi.sol\":2716:2734  structNuevoCliente */\n      dup2\n        /* \"PrestamoDefi.sol\":2716:2743  structNuevoCliente.activado */\n      0x00\n      add\n      0x00\n        /* \"PrestamoDefi.sol\":2716:2750  structNuevoCliente.activado = true */\n      0x0100\n      exp\n      dup2\n      sload\n      dup2\n      0xff\n      mul\n      not\n      and\n      swap1\n      dup4\n      iszero\n      iszero\n      mul\n      or\n      swap1\n      sstore\n      pop\n        /* \"PrestamoDefi.sol\":2401:2758  {... */\n      pop\n        /* \"PrestamoDefi.sol\":2322:2758  function altaCliente(address nuevoCliente_) public soloSocioEmpleadoPrestamista{... */\n      pop\n      jump\t// out\n        /* \"PrestamoDefi.sol\":8199:8374  function obtenerDetallaPrestamo(address prestatario_, uint256 id_ ) public view returns(Prestamo memory) {... */\n    tag_40:\n        /* \"PrestamoDefi.sol\":8287:8302  Prestamo memory */\n      tag_122\n      tag_123\n      jump\t// in\n    tag_122:\n        /* \"PrestamoDefi.sol\":8325:8333  clientes */\n      0x01\n        /* \"PrestamoDefi.sol\":8325:8347  clientes[prestatario_] */\n      0x00\n        /* \"PrestamoDefi.sol\":8334:8346  prestatario_ */\n      dup5\n        /* \"PrestamoDefi.sol\":8325:8347  clientes[prestatario_] */\n      0xffffffffffffffffffffffffffffffffffffffff\n      and\n      0xffffffffffffffffffffffffffffffffffffffff\n      and\n      dup2\n      mstore\n      0x20\n      add\n      swap1\n      dup2\n      mstore\n      0x20\n      add\n      0x00\n      keccak256\n        /* \"PrestamoDefi.sol\":8325:8357  clientes[prestatario_].prestamos */\n      0x02\n      add\n        /* \"PrestamoDefi.sol\":8325:8362  clientes[prestatario_].prestamos[id_] */\n      0x00\n        /* \"PrestamoDefi.sol\":8358:8361  id_ */\n      dup4\n        /* \"PrestamoDefi.sol\":8325:8362  clientes[prestatario_].prestamos[id_] */\n      dup2\n      mstore\n      0x20\n      add\n      swap1\n      dup2\n      mstore\n      0x20\n      add\n      0x00\n      keccak256\n        /* \"PrestamoDefi.sol\":8318:8363  return(clientes[prestatario_].prestamos[id_]) */\n      mload(0x40)\n      dup1\n      0x0120\n      add\n      0x40\n      mstore\n      swap1\n      dup2\n      0x00\n      dup3\n      add\n      sload\n      dup2\n      mstore\n      0x20\n      add\n      0x01\n      dup3\n      add\n      0x00\n      swap1\n      sload\n      swap1\n      0x0100\n      exp\n      swap1\n      div\n      0xffffffffffffffffffffffffffffffffffffffff\n      and\n      0xffffffffffffffffffffffffffffffffffffffff\n      and\n      0xffffffffffffffffffffffffffffffffffffffff\n      and\n      dup2\n      mstore\n      0x20\n      add\n      0x02\n      dup3\n      add\n      sload\n      dup2\n      mstore\n      0x20\n      add\n      0x03\n      dup3\n      add\n      sload\n      dup2\n      mstore\n      0x20\n      add\n      0x04\n      dup3\n      add\n      sload\n      dup2\n      mstore\n      0x20\n      add\n      0x05\n      dup3\n      add\n      sload\n      dup2\n      mstore\n      0x20\n      add\n      0x06\n      dup3\n      add\n      0x00\n      swap1\n      sload\n      swap1\n      0x0100\n      exp\n      swap1\n      div\n      0xff\n      and\n      iszero\n      iszero\n      iszero\n      iszero\n      dup2\n      mstore\n      0x20\n      add\n      0x06\n      dup3\n      add\n      0x01\n      swap1\n      sload\n      swap1\n      0x0100\n      exp\n      swap1\n      div\n      0xff\n      and\n      iszero\n      iszero\n      iszero\n      iszero\n      dup2\n      mstore\n      0x20\n      add\n      0x06\n      dup3\n      add\n      0x02\n      swap1\n      sload\n      swap1\n      0x0100\n      exp\n      swap1\n      div\n      0xff\n      and\n      iszero\n      iszero\n      iszero\n      iszero\n      dup2\n      mstore\n      pop\n      pop\n      swap1\n      pop\n        /* \"PrestamoDefi.sol\":8199:8374  function obtenerDetallaPrestamo(address prestatario_, uint256 id_ ) public view returns(Prestamo memory) {... */\n      swap3\n      swap2\n      pop\n      pop\n      jump\t// out\n        /* \"PrestamoDefi.sol\":721:764  mapping(address => Cliente) public clientes */\n    tag_46:\n      mstore(0x20, 0x01)\n      dup1\n      0x00\n      mstore\n      keccak256(0x00, 0x40)\n      0x00\n      swap2\n      pop\n      swap1\n      pop\n      dup1\n      0x00\n      add\n      0x00\n      swap1\n      sload\n      swap1\n      0x0100\n      exp\n      swap1\n      div\n      0xff\n      and\n      swap1\n      dup1\n      0x01\n      add\n      sload\n      swap1\n      pop\n      dup3\n      jump\t// out\n        /* \"PrestamoDefi.sol\":4260:5335  function aprobarPrestamo (address prestatario_, uint256 id_) public soloSocioEmpleadoPrestamista{... */\n    tag_52:\n        /* \"PrestamoDefi.sol\":1509:1513  true */\n      0x01\n        /* \"PrestamoDefi.sol\":1473:1513  empleadosPrestamista[msg.sender] == true */\n      iszero\n      iszero\n        /* \"PrestamoDefi.sol\":1473:1493  empleadosPrestamista */\n      0x02\n        /* \"PrestamoDefi.sol\":1473:1505  empleadosPrestamista[msg.sender] */\n      0x00\n        /* \"PrestamoDefi.sol\":1494:1504  msg.sender */\n      caller\n        /* \"PrestamoDefi.sol\":1473:1505  empleadosPrestamista[msg.sender] */\n      0xffffffffffffffffffffffffffffffffffffffff\n      and\n      0xffffffffffffffffffffffffffffffffffffffff\n      and\n      dup2\n      mstore\n      0x20\n      add\n      swap1\n      dup2\n      mstore\n      0x20\n      add\n      0x00\n      keccak256\n      0x00\n      swap1\n      sload\n      swap1\n      0x0100\n      exp\n      swap1\n      div\n      0xff\n      and\n        /* \"PrestamoDefi.sol\":1473:1513  empleadosPrestamista[msg.sender] == true */\n      iszero\n      iszero\n      eq\n        /* \"PrestamoDefi.sol\":1464:1547  require( empleadosPrestamista[msg.sender] == true, \"Error, no estas dado de alta\" ) */\n      tag_126\n      jumpi\n      mload(0x40)\n      0x08c379a000000000000000000000000000000000000000000000000000000000\n      dup2\n      mstore\n      0x04\n      add\n      tag_127\n      swap1\n      tag_79\n      jump\t// in\n    tag_127:\n      mload(0x40)\n      dup1\n      swap2\n      sub\n      swap1\n      revert\n    tag_126:\n        /* \"PrestamoDefi.sol\":4452:4479  Cliente storage prestatario */\n      0x00\n        /* \"PrestamoDefi.sol\":4482:4490  clientes */\n      0x01\n        /* \"PrestamoDefi.sol\":4482:4504  clientes[prestatario_] */\n      0x00\n        /* \"PrestamoDefi.sol\":4491:4503  prestatario_ */\n      dup5\n        /* \"PrestamoDefi.sol\":4482:4504  clientes[prestatario_] */\n      0xffffffffffffffffffffffffffffffffffffffff\n      and\n      0xffffffffffffffffffffffffffffffffffffffff\n      and\n      dup2\n      mstore\n      0x20\n      add\n      swap1\n      dup2\n      mstore\n      0x20\n      add\n      0x00\n      keccak256\n        /* \"PrestamoDefi.sol\":4452:4504  Cliente storage prestatario = clientes[prestatario_] */\n      swap1\n      pop\n        /* \"PrestamoDefi.sol\":4584:4585  0 */\n      0x00\n        /* \"PrestamoDefi.sol\":4578:4581  id_ */\n      dup3\n        /* \"PrestamoDefi.sol\":4578:4585  id_ > 0 */\n      gt\n        /* \"PrestamoDefi.sol\":4578:4626  id_ > 0 && id_ <= prestatario.prestamoIds.length */\n      dup1\n      iszero\n      tag_129\n      jumpi\n      pop\n        /* \"PrestamoDefi.sol\":4596:4607  prestatario */\n      dup1\n        /* \"PrestamoDefi.sol\":4596:4619  prestatario.prestamoIds */\n      0x03\n      add\n        /* \"PrestamoDefi.sol\":4596:4626  prestatario.prestamoIds.length */\n      dup1\n      sload\n      swap1\n      pop\n        /* \"PrestamoDefi.sol\":4589:4592  id_ */\n      dup3\n        /* \"PrestamoDefi.sol\":4589:4626  id_ <= prestatario.prestamoIds.length */\n      gt\n      iszero\n        /* \"PrestamoDefi.sol\":4578:4626  id_ > 0 && id_ <= prestatario.prestamoIds.length */\n    tag_129:\n        /* \"PrestamoDefi.sol\":4570:4656  require(id_ > 0 && id_ <= prestatario.prestamoIds.length, \"Error, la ID no es valida\") */\n      tag_130\n      jumpi\n      mload(0x40)\n      0x08c379a000000000000000000000000000000000000000000000000000000000\n      dup2\n      mstore\n      0x04\n      add\n      tag_131\n      swap1\n      tag_132\n      jump\t// in\n    tag_131:\n      mload(0x40)\n      dup1\n      swap2\n      sub\n      swap1\n      revert\n    tag_130:\n        /* \"PrestamoDefi.sol\":4736:4761  Prestamo storage prestamo */\n      0x00\n        /* \"PrestamoDefi.sol\":4764:4775  prestatario */\n      dup2\n        /* \"PrestamoDefi.sol\":4764:4785  prestatario.prestamos */\n      0x02\n      add\n        /* \"PrestamoDefi.sol\":4764:4790  prestatario.prestamos[id_] */\n      0x00\n        /* \"PrestamoDefi.sol\":4786:4789  id_ */\n      dup5\n        /* \"PrestamoDefi.sol\":4764:4790  prestatario.prestamos[id_] */\n      dup2\n      mstore\n      0x20\n      add\n      swap1\n      dup2\n      mstore\n      0x20\n      add\n      0x00\n      keccak256\n        /* \"PrestamoDefi.sol\":4736:4790  Prestamo storage prestamo = prestatario.prestamos[id_] */\n      swap1\n      pop\n        /* \"PrestamoDefi.sol\":4846:4854  prestamo */\n      dup1\n        /* \"PrestamoDefi.sol\":4846:4863  prestamo.aprobado */\n      0x06\n      add\n      0x00\n      swap1\n      sload\n      swap1\n      0x0100\n      exp\n      swap1\n      div\n      0xff\n      and\n        /* \"PrestamoDefi.sol\":4845:4863  !prestamo.aprobado */\n      iszero\n        /* \"PrestamoDefi.sol\":4837:4900  require(!prestamo.aprobado, \"Error, el prestamo esta aprobado\") */\n      tag_133\n      jumpi\n      mload(0x40)\n      0x08c379a000000000000000000000000000000000000000000000000000000000\n      dup2\n      mstore\n      0x04\n      add\n      tag_134\n      swap1\n      tag_135\n      jump\t// in\n    tag_134:\n      mload(0x40)\n      dup1\n      swap2\n      sub\n      swap1\n      revert\n    tag_133:\n        /* \"PrestamoDefi.sol\":4919:4927  prestamo */\n      dup1\n        /* \"PrestamoDefi.sol\":4919:4939  prestamo.reembolsado */\n      0x06\n      add\n      0x01\n      swap1\n      sload\n      swap1\n      0x0100\n      exp\n      swap1\n      div\n      0xff\n      and\n        /* \"PrestamoDefi.sol\":4918:4939  !prestamo.reembolsado */\n      iszero\n        /* \"PrestamoDefi.sol\":4910:4982  require(!prestamo.reembolsado, \"Error, el prestamo ha sido reembolsado\") */\n      tag_136\n      jumpi\n      mload(0x40)\n      0x08c379a000000000000000000000000000000000000000000000000000000000\n      dup2\n      mstore\n      0x04\n      add\n      tag_137\n      swap1\n      tag_138\n      jump\t// in\n    tag_137:\n      mload(0x40)\n      dup1\n      swap2\n      sub\n      swap1\n      revert\n    tag_136:\n        /* \"PrestamoDefi.sol\":5001:5009  prestamo */\n      dup1\n        /* \"PrestamoDefi.sol\":5001:5019  prestamo.liquidado */\n      0x06\n      add\n      0x02\n      swap1\n      sload\n      swap1\n      0x0100\n      exp\n      swap1\n      div\n      0xff\n      and\n        /* \"PrestamoDefi.sol\":5000:5019  !prestamo.liquidado */\n      iszero\n        /* \"PrestamoDefi.sol\":4992:5060  require(!prestamo.liquidado, \"Error, el prestamo ha sido liquidado\") */\n      tag_139\n      jumpi\n      mload(0x40)\n      0x08c379a000000000000000000000000000000000000000000000000000000000\n      dup2\n      mstore\n      0x04\n      add\n      tag_140\n      swap1\n      tag_141\n      jump\t// in\n    tag_140:\n      mload(0x40)\n      dup1\n      swap2\n      sub\n      swap1\n      revert\n    tag_139:\n        /* \"PrestamoDefi.sol\":5196:5200  true */\n      0x01\n        /* \"PrestamoDefi.sol\":5176:5184  prestamo */\n      dup2\n        /* \"PrestamoDefi.sol\":5176:5193  prestamo.aprobado */\n      0x06\n      add\n      0x00\n        /* \"PrestamoDefi.sol\":5176:5200  prestamo.aprobado = true */\n      0x0100\n      exp\n      dup2\n      sload\n      dup2\n      0xff\n      mul\n      not\n      and\n      swap1\n      dup4\n      iszero\n      iszero\n      mul\n      or\n      swap1\n      sstore\n      pop\n        /* \"PrestamoDefi.sol\":5252:5260  prestamo */\n      dup1\n        /* \"PrestamoDefi.sol\":5252:5266  prestamo.plazo */\n      0x03\n      add\n      sload\n        /* \"PrestamoDefi.sol\":5234:5249  block.timestamp */\n      timestamp\n        /* \"PrestamoDefi.sol\":5234:5266  block.timestamp + prestamo.plazo */\n      tag_142\n      swap2\n      swap1\n      tag_111\n      jump\t// in\n    tag_142:\n        /* \"PrestamoDefi.sol\":5210:5218  prestamo */\n      dup2\n        /* \"PrestamoDefi.sol\":5210:5231  prestamo.tiempoLimite */\n      0x05\n      add\n        /* \"PrestamoDefi.sol\":5210:5266  prestamo.tiempoLimite = block.timestamp + prestamo.plazo */\n      dup2\n      swap1\n      sstore\n      pop\n        /* \"PrestamoDefi.sol\":5299:5311  prestatario_ */\n      dup4\n        /* \"PrestamoDefi.sol\":5282:5328  PrestamoAprobado(prestatario_, prestamo.monto) */\n      0xffffffffffffffffffffffffffffffffffffffff\n      and\n      0xfc7f7d02b43a7ebb089464354517c20bfb1c1254771258518fa1bd121e3d309a\n        /* \"PrestamoDefi.sol\":5313:5321  prestamo */\n      dup3\n        /* \"PrestamoDefi.sol\":5313:5327  prestamo.monto */\n      0x02\n      add\n      sload\n        /* \"PrestamoDefi.sol\":5282:5328  PrestamoAprobado(prestatario_, prestamo.monto) */\n      mload(0x40)\n      tag_143\n      swap2\n      swap1\n      tag_26\n      jump\t// in\n    tag_143:\n      mload(0x40)\n      dup1\n      swap2\n      sub\n      swap1\n      log2\n        /* \"PrestamoDefi.sol\":4356:5335  {... */\n      pop\n      pop\n        /* \"PrestamoDefi.sol\":4260:5335  function aprobarPrestamo (address prestatario_, uint256 id_) public soloSocioEmpleadoPrestamista{... */\n      pop\n      pop\n      jump\t// out\n        /* \"PrestamoDefi.sol\":2009:2259  function altaPrestamista (address nuevoPrestamista_) public soloSocioPrincipal{... */\n    tag_56:\n        /* \"PrestamoDefi.sol\":1300:1314  socioPrincipal */\n      0x00\n      dup1\n      sload\n      swap1\n      0x0100\n      exp\n      swap1\n      div\n      0xffffffffffffffffffffffffffffffffffffffff\n      and\n        /* \"PrestamoDefi.sol\":1286:1314  msg.sender == socioPrincipal */\n      0xffffffffffffffffffffffffffffffffffffffff\n      and\n        /* \"PrestamoDefi.sol\":1286:1296  msg.sender */\n      caller\n        /* \"PrestamoDefi.sol\":1286:1314  msg.sender == socioPrincipal */\n      0xffffffffffffffffffffffffffffffffffffffff\n      and\n      eq\n        /* \"PrestamoDefi.sol\":1278:1390  require(msg.sender == socioPrincipal, \"Error, no pudes realizar esta accion por que no eres el socio proncipal\") */\n      tag_145\n      jumpi\n      mload(0x40)\n      0x08c379a000000000000000000000000000000000000000000000000000000000\n      dup2\n      mstore\n      0x04\n      add\n      tag_146\n      swap1\n      tag_147\n      jump\t// in\n    tag_146:\n      mload(0x40)\n      dup1\n      swap2\n      sub\n      swap1\n      revert\n    tag_145:\n        /* \"PrestamoDefi.sol\":2108:2128  empleadosPrestamista */\n      0x02\n        /* \"PrestamoDefi.sol\":2108:2148  empleadosPrestamista [nuevoPrestamista_] */\n      0x00\n        /* \"PrestamoDefi.sol\":2130:2147  nuevoPrestamista_ */\n      dup3\n        /* \"PrestamoDefi.sol\":2108:2148  empleadosPrestamista [nuevoPrestamista_] */\n      0xffffffffffffffffffffffffffffffffffffffff\n      and\n      0xffffffffffffffffffffffffffffffffffffffff\n      and\n      dup2\n      mstore\n      0x20\n      add\n      swap1\n      dup2\n      mstore\n      0x20\n      add\n      0x00\n      keccak256\n      0x00\n      swap1\n      sload\n      swap1\n      0x0100\n      exp\n      swap1\n      div\n      0xff\n      and\n        /* \"PrestamoDefi.sol\":2107:2148  !empleadosPrestamista [nuevoPrestamista_] */\n      iszero\n        /* \"PrestamoDefi.sol\":2097:2193  require ( !empleadosPrestamista [nuevoPrestamista_], \"Error el pretamista ya esta dado de alta\") */\n      tag_149\n      jumpi\n      mload(0x40)\n      0x08c379a000000000000000000000000000000000000000000000000000000000\n      dup2\n      mstore\n      0x04\n      add\n      tag_150\n      swap1\n      tag_151\n      jump\t// in\n    tag_150:\n      mload(0x40)\n      dup1\n      swap2\n      sub\n      swap1\n      revert\n    tag_149:\n        /* \"PrestamoDefi.sol\":2247:2251  true */\n      0x01\n        /* \"PrestamoDefi.sol\":2204:2224  empleadosPrestamista */\n      0x02\n        /* \"PrestamoDefi.sol\":2204:2244  empleadosPrestamista [nuevoPrestamista_] */\n      0x00\n        /* \"PrestamoDefi.sol\":2226:2243  nuevoPrestamista_ */\n      dup4\n        /* \"PrestamoDefi.sol\":2204:2244  empleadosPrestamista [nuevoPrestamista_] */\n      0xffffffffffffffffffffffffffffffffffffffff\n      and\n      0xffffffffffffffffffffffffffffffffffffffff\n      and\n      dup2\n      mstore\n      0x20\n      add\n      swap1\n      dup2\n      mstore\n      0x20\n      add\n      0x00\n      keccak256\n      0x00\n        /* \"PrestamoDefi.sol\":2204:2251  empleadosPrestamista [nuevoPrestamista_] = true */\n      0x0100\n      exp\n      dup2\n      sload\n      dup2\n      0xff\n      mul\n      not\n      and\n      swap1\n      dup4\n      iszero\n      iszero\n      mul\n      or\n      swap1\n      sstore\n      pop\n        /* \"PrestamoDefi.sol\":2009:2259  function altaPrestamista (address nuevoPrestamista_) public soloSocioPrincipal{... */\n      pop\n      jump\t// out\n        /* \"PrestamoDefi.sol\":770:822  mapping(address => bool) public empleadosPrestamista */\n    tag_60:\n      mstore(0x20, 0x02)\n      dup1\n      0x00\n      mstore\n      keccak256(0x00, 0x40)\n      0x00\n      swap2\n      pop\n      sload\n      swap1\n      0x0100\n      exp\n      swap1\n      div\n      0xff\n      and\n      dup2\n      jump\t// out\n        /* \"PrestamoDefi.sol\":7960:8130  function obtenerPrestamosPorPrestatario(address prestatario_) public view returns(uint256[] memory) {... */\n    tag_66:\n        /* \"PrestamoDefi.sol\":8042:8058  uint256[] memory */\n      0x60\n        /* \"PrestamoDefi.sol\":8083:8091  clientes */\n      0x01\n        /* \"PrestamoDefi.sol\":8083:8105  clientes[prestatario_] */\n      0x00\n        /* \"PrestamoDefi.sol\":8092:8104  prestatario_ */\n      dup4\n        /* \"PrestamoDefi.sol\":8083:8105  clientes[prestatario_] */\n      0xffffffffffffffffffffffffffffffffffffffff\n      and\n      0xffffffffffffffffffffffffffffffffffffffff\n      and\n      dup2\n      mstore\n      0x20\n      add\n      swap1\n      dup2\n      mstore\n      0x20\n      add\n      0x00\n      keccak256\n        /* \"PrestamoDefi.sol\":8083:8117  clientes[prestatario_].prestamoIds */\n      0x03\n      add\n        /* \"PrestamoDefi.sol\":8075:8118  return (clientes[prestatario_].prestamoIds) */\n      dup1\n      sload\n      dup1\n      0x20\n      mul\n      0x20\n      add\n      mload(0x40)\n      swap1\n      dup2\n      add\n      0x40\n      mstore\n      dup1\n      swap3\n      swap2\n      swap1\n      dup2\n      dup2\n      mstore\n      0x20\n      add\n      dup3\n      dup1\n      sload\n      dup1\n      iszero\n      tag_153\n      jumpi\n      0x20\n      mul\n      dup3\n      add\n      swap2\n      swap1\n      0x00\n      mstore\n      keccak256(0x00, 0x20)\n      swap1\n    tag_154:\n      dup2\n      sload\n      dup2\n      mstore\n      0x20\n      add\n      swap1\n      0x01\n      add\n      swap1\n      dup1\n      dup4\n      gt\n      tag_154\n      jumpi\n    tag_153:\n      pop\n      pop\n      pop\n      pop\n      pop\n      swap1\n      pop\n        /* \"PrestamoDefi.sol\":7960:8130  function obtenerPrestamosPorPrestatario(address prestatario_) public view returns(uint256[] memory) {... */\n      swap2\n      swap1\n      pop\n      jump\t// out\n        /* \"PrestamoDefi.sol\":5429:6588  function reembolsarPrestamo(uint256 id_) public soloClienteRegistrado{... */\n    tag_73:\n        /* \"PrestamoDefi.sol\":1655:1659  true */\n      0x01\n        /* \"PrestamoDefi.sol\":1622:1659  clientes[msg.sender].activado == true */\n      iszero\n      iszero\n        /* \"PrestamoDefi.sol\":1622:1630  clientes */\n      0x01\n        /* \"PrestamoDefi.sol\":1622:1642  clientes[msg.sender] */\n      0x00\n        /* \"PrestamoDefi.sol\":1631:1641  msg.sender */\n      caller\n        /* \"PrestamoDefi.sol\":1622:1642  clientes[msg.sender] */\n      0xffffffffffffffffffffffffffffffffffffffff\n      and\n      0xffffffffffffffffffffffffffffffffffffffff\n      and\n      dup2\n      mstore\n      0x20\n      add\n      swap1\n      dup2\n      mstore\n      0x20\n      add\n      0x00\n      keccak256\n        /* \"PrestamoDefi.sol\":1622:1651  clientes[msg.sender].activado */\n      0x00\n      add\n      0x00\n      swap1\n      sload\n      swap1\n      0x0100\n      exp\n      swap1\n      div\n      0xff\n      and\n        /* \"PrestamoDefi.sol\":1622:1659  clientes[msg.sender].activado == true */\n      iszero\n      iszero\n      eq\n        /* \"PrestamoDefi.sol\":1613:1700  require( clientes[msg.sender].activado == true, \"Error, el cliente no esta registrado\") */\n      tag_156\n      jumpi\n      mload(0x40)\n      0x08c379a000000000000000000000000000000000000000000000000000000000\n      dup2\n      mstore\n      0x04\n      add\n      tag_157\n      swap1\n      tag_105\n      jump\t// in\n    tag_157:\n      mload(0x40)\n      dup1\n      swap2\n      sub\n      swap1\n      revert\n    tag_156:\n        /* \"PrestamoDefi.sol\":5594:5621  Cliente storage prestatario */\n      0x00\n        /* \"PrestamoDefi.sol\":5624:5632  clientes */\n      0x01\n        /* \"PrestamoDefi.sol\":5624:5644  clientes[msg.sender] */\n      0x00\n        /* \"PrestamoDefi.sol\":5633:5643  msg.sender */\n      caller\n        /* \"PrestamoDefi.sol\":5624:5644  clientes[msg.sender] */\n      0xffffffffffffffffffffffffffffffffffffffff\n      and\n      0xffffffffffffffffffffffffffffffffffffffff\n      and\n      dup2\n      mstore\n      0x20\n      add\n      swap1\n      dup2\n      mstore\n      0x20\n      add\n      0x00\n      keccak256\n        /* \"PrestamoDefi.sol\":5594:5644  Cliente storage prestatario = clientes[msg.sender] */\n      swap1\n      pop\n        /* \"PrestamoDefi.sol\":5669:5670  0 */\n      0x00\n        /* \"PrestamoDefi.sol\":5663:5666  id_ */\n      dup3\n        /* \"PrestamoDefi.sol\":5663:5670  id_ > 0 */\n      gt\n        /* \"PrestamoDefi.sol\":5663:5711  id_ > 0 && id_ <= prestatario.prestamoIds.length */\n      dup1\n      iszero\n      tag_159\n      jumpi\n      pop\n        /* \"PrestamoDefi.sol\":5681:5692  prestatario */\n      dup1\n        /* \"PrestamoDefi.sol\":5681:5704  prestatario.prestamoIds */\n      0x03\n      add\n        /* \"PrestamoDefi.sol\":5681:5711  prestatario.prestamoIds.length */\n      dup1\n      sload\n      swap1\n      pop\n        /* \"PrestamoDefi.sol\":5674:5677  id_ */\n      dup3\n        /* \"PrestamoDefi.sol\":5674:5711  id_ <= prestatario.prestamoIds.length */\n      gt\n      iszero\n        /* \"PrestamoDefi.sol\":5663:5711  id_ > 0 && id_ <= prestatario.prestamoIds.length */\n    tag_159:\n        /* \"PrestamoDefi.sol\":5655:5741  require(id_ > 0 && id_ <= prestatario.prestamoIds.length, \"Error, la ID no es valido\") */\n      tag_160\n      jumpi\n      mload(0x40)\n      0x08c379a000000000000000000000000000000000000000000000000000000000\n      dup2\n      mstore\n      0x04\n      add\n      tag_161\n      swap1\n      tag_84\n      jump\t// in\n    tag_161:\n      mload(0x40)\n      dup1\n      swap2\n      sub\n      swap1\n      revert\n    tag_160:\n        /* \"PrestamoDefi.sol\":5847:5872  Prestamo storage prestamo */\n      0x00\n        /* \"PrestamoDefi.sol\":5875:5886  prestatario */\n      dup2\n        /* \"PrestamoDefi.sol\":5875:5896  prestatario.prestamos */\n      0x02\n      add\n        /* \"PrestamoDefi.sol\":5875:5901  prestatario.prestamos[id_] */\n      0x00\n        /* \"PrestamoDefi.sol\":5897:5900  id_ */\n      dup5\n        /* \"PrestamoDefi.sol\":5875:5901  prestatario.prestamos[id_] */\n      dup2\n      mstore\n      0x20\n      add\n      swap1\n      dup2\n      mstore\n      0x20\n      add\n      0x00\n      keccak256\n        /* \"PrestamoDefi.sol\":5847:5901  Prestamo storage prestamo = prestatario.prestamos[id_] */\n      swap1\n      pop\n        /* \"PrestamoDefi.sol\":5934:5942  prestamo */\n      dup1\n        /* \"PrestamoDefi.sol\":5934:5954  prestamo.prestatario */\n      0x01\n      add\n      0x00\n      swap1\n      sload\n      swap1\n      0x0100\n      exp\n      swap1\n      div\n      0xffffffffffffffffffffffffffffffffffffffff\n      and\n        /* \"PrestamoDefi.sol\":5920:5954  msg.sender == prestamo.prestatario */\n      0xffffffffffffffffffffffffffffffffffffffff\n      and\n        /* \"PrestamoDefi.sol\":5920:5930  msg.sender */\n      caller\n        /* \"PrestamoDefi.sol\":5920:5954  msg.sender == prestamo.prestatario */\n      0xffffffffffffffffffffffffffffffffffffffff\n      and\n      eq\n        /* \"PrestamoDefi.sol\":5912:5999  require(msg.sender == prestamo.prestatario, \"Error, no es el prestatario del prestamo\") */\n      tag_162\n      jumpi\n      mload(0x40)\n      0x08c379a000000000000000000000000000000000000000000000000000000000\n      dup2\n      mstore\n      0x04\n      add\n      tag_163\n      swap1\n      tag_164\n      jump\t// in\n    tag_163:\n      mload(0x40)\n      dup1\n      swap2\n      sub\n      swap1\n      revert\n    tag_162:\n        /* \"PrestamoDefi.sol\":6017:6025  prestamo */\n      dup1\n        /* \"PrestamoDefi.sol\":6017:6034  prestamo.aprobado */\n      0x06\n      add\n      0x00\n      swap1\n      sload\n      swap1\n      0x0100\n      exp\n      swap1\n      div\n      0xff\n      and\n        /* \"PrestamoDefi.sol\":6009:6074  require(prestamo.aprobado, \"Error, el prestamo no esta aprobado\") */\n      tag_165\n      jumpi\n      mload(0x40)\n      0x08c379a000000000000000000000000000000000000000000000000000000000\n      dup2\n      mstore\n      0x04\n      add\n      tag_166\n      swap1\n      tag_87\n      jump\t// in\n    tag_166:\n      mload(0x40)\n      dup1\n      swap2\n      sub\n      swap1\n      revert\n    tag_165:\n        /* \"PrestamoDefi.sol\":6093:6101  prestamo */\n      dup1\n        /* \"PrestamoDefi.sol\":6093:6113  prestamo.reembolsado */\n      0x06\n      add\n      0x01\n      swap1\n      sload\n      swap1\n      0x0100\n      exp\n      swap1\n      div\n      0xff\n      and\n        /* \"PrestamoDefi.sol\":6092:6113  !prestamo.reembolsado */\n      iszero\n        /* \"PrestamoDefi.sol\":6084:6153  require(!prestamo.reembolsado, \"Error, el prestamo esta reembolsado\") */\n      tag_167\n      jumpi\n      mload(0x40)\n      0x08c379a000000000000000000000000000000000000000000000000000000000\n      dup2\n      mstore\n      0x04\n      add\n      tag_168\n      swap1\n      tag_90\n      jump\t// in\n    tag_168:\n      mload(0x40)\n      dup1\n      swap2\n      sub\n      swap1\n      revert\n    tag_167:\n        /* \"PrestamoDefi.sol\":6172:6180  prestamo */\n      dup1\n        /* \"PrestamoDefi.sol\":6172:6190  prestamo.liquidado */\n      0x06\n      add\n      0x02\n      swap1\n      sload\n      swap1\n      0x0100\n      exp\n      swap1\n      div\n      0xff\n      and\n        /* \"PrestamoDefi.sol\":6171:6190  !prestamo.liquidado */\n      iszero\n        /* \"PrestamoDefi.sol\":6163:6228  require(!prestamo.liquidado, \"Error, el prestamo esta liquidado\") */\n      tag_169\n      jumpi\n      mload(0x40)\n      0x08c379a000000000000000000000000000000000000000000000000000000000\n      dup2\n      mstore\n      0x04\n      add\n      tag_170\n      swap1\n      tag_93\n      jump\t// in\n    tag_170:\n      mload(0x40)\n      dup1\n      swap2\n      sub\n      swap1\n      revert\n    tag_169:\n        /* \"PrestamoDefi.sol\":6265:6273  prestamo */\n      dup1\n        /* \"PrestamoDefi.sol\":6265:6286  prestamo.tiempoLimite */\n      0x05\n      add\n      sload\n        /* \"PrestamoDefi.sol\":6246:6261  block.timestamp */\n      timestamp\n        /* \"PrestamoDefi.sol\":6246:6286  block.timestamp <= prestamo.tiempoLimite */\n      gt\n      iszero\n        /* \"PrestamoDefi.sol\":6238:6328  require(block.timestamp <= prestamo.tiempoLimite, \"Error, se ha pasado el tiempo de pago\") */\n      tag_171\n      jumpi\n      mload(0x40)\n      0x08c379a000000000000000000000000000000000000000000000000000000000\n      dup2\n      mstore\n      0x04\n      add\n      tag_172\n      swap1\n      tag_173\n      jump\t// in\n    tag_172:\n      mload(0x40)\n      dup1\n      swap2\n      sub\n      swap1\n      revert\n    tag_171:\n        /* \"PrestamoDefi.sol\":6384:6398  socioPrincipal */\n      0x00\n      dup1\n      sload\n      swap1\n      0x0100\n      exp\n      swap1\n      div\n      0xffffffffffffffffffffffffffffffffffffffff\n      and\n        /* \"PrestamoDefi.sol\":6376:6408  payable(socioPrincipal).transfer */\n      0xffffffffffffffffffffffffffffffffffffffff\n      and\n        /* \"PrestamoDefi.sol\":6376:6424  payable(socioPrincipal).transfer(prestamo.monto) */\n      0x08fc\n        /* \"PrestamoDefi.sol\":6409:6417  prestamo */\n      dup3\n        /* \"PrestamoDefi.sol\":6409:6423  prestamo.monto */\n      0x02\n      add\n      sload\n        /* \"PrestamoDefi.sol\":6376:6424  payable(socioPrincipal).transfer(prestamo.monto) */\n      swap1\n      dup2\n      iszero\n      mul\n      swap1\n      mload(0x40)\n      0x00\n      mload(0x40)\n      dup1\n      dup4\n      sub\n      dup2\n      dup6\n      dup9\n      dup9\n      call\n      swap4\n      pop\n      pop\n      pop\n      pop\n      iszero\n      dup1\n      iszero\n      tag_175\n      jumpi\n      returndatasize\n      0x00\n      dup1\n      returndatacopy\n      revert(0x00, returndatasize)\n    tag_175:\n      pop\n        /* \"PrestamoDefi.sol\":6458:6462  true */\n      0x01\n        /* \"PrestamoDefi.sol\":6435:6443  prestamo */\n      dup2\n        /* \"PrestamoDefi.sol\":6435:6455  prestamo.reembolsado */\n      0x06\n      add\n      0x01\n        /* \"PrestamoDefi.sol\":6435:6462  prestamo.reembolsado = true */\n      0x0100\n      exp\n      dup2\n      sload\n      dup2\n      0xff\n      mul\n      not\n      and\n      swap1\n      dup4\n      iszero\n      iszero\n      mul\n      or\n      swap1\n      sstore\n      pop\n        /* \"PrestamoDefi.sol\":6502:6510  prestamo */\n      dup1\n        /* \"PrestamoDefi.sol\":6502:6516  prestamo.monto */\n      0x02\n      add\n      sload\n        /* \"PrestamoDefi.sol\":6473:6484  prestatario */\n      dup3\n        /* \"PrestamoDefi.sol\":6473:6498  prestatario.saldoGarantia */\n      0x01\n      add\n      0x00\n        /* \"PrestamoDefi.sol\":6473:6516  prestatario.saldoGarantia -= prestamo.monto */\n      dup3\n      dup3\n      sload\n      tag_176\n      swap2\n      swap1\n      tag_100\n      jump\t// in\n    tag_176:\n      swap3\n      pop\n      pop\n      dup2\n      swap1\n      sstore\n      pop\n        /* \"PrestamoDefi.sol\":6554:6564  msg.sender */\n      caller\n        /* \"PrestamoDefi.sol\":6534:6581  PrestamoReembolsado(msg.sender, prestamo.monto) */\n      0xffffffffffffffffffffffffffffffffffffffff\n      and\n      0xcafe7262442382b92dbcf9d83f09d266be4eb5af9cf783bc0a28eab4015defd8\n        /* \"PrestamoDefi.sol\":6566:6574  prestamo */\n      dup3\n        /* \"PrestamoDefi.sol\":6566:6580  prestamo.monto */\n      0x02\n      add\n      sload\n        /* \"PrestamoDefi.sol\":6534:6581  PrestamoReembolsado(msg.sender, prestamo.monto) */\n      mload(0x40)\n      tag_177\n      swap2\n      swap1\n      tag_26\n      jump\t// in\n    tag_177:\n      mload(0x40)\n      dup1\n      swap2\n      sub\n      swap1\n      log2\n        /* \"PrestamoDefi.sol\":5498:6588  {... */\n      pop\n      pop\n        /* \"PrestamoDefi.sol\":5429:6588  function reembolsarPrestamo(uint256 id_) public soloClienteRegistrado{... */\n      pop\n      jump\t// out\n        /* \"PrestamoDefi.sol\":2806:2917  function depositarGarantia()  public payable {... */\n    tag_75:\n        /* \"PrestamoDefi.sol\":2900:2909  msg.value */\n      callvalue\n        /* \"PrestamoDefi.sol\":2862:2870  clientes */\n      0x01\n        /* \"PrestamoDefi.sol\":2862:2882  clientes[msg.sender] */\n      0x00\n        /* \"PrestamoDefi.sol\":2871:2881  msg.sender */\n      caller\n        /* \"PrestamoDefi.sol\":2862:2882  clientes[msg.sender] */\n      0xffffffffffffffffffffffffffffffffffffffff\n      and\n      0xffffffffffffffffffffffffffffffffffffffff\n      and\n      dup2\n      mstore\n      0x20\n      add\n      swap1\n      dup2\n      mstore\n      0x20\n      add\n      0x00\n      keccak256\n        /* \"PrestamoDefi.sol\":2862:2896  clientes[msg.sender].saldoGarantia */\n      0x01\n      add\n      0x00\n        /* \"PrestamoDefi.sol\":2862:2909  clientes[msg.sender].saldoGarantia += msg.value */\n      dup3\n      dup3\n      sload\n      tag_179\n      swap2\n      swap1\n      tag_111\n      jump\t// in\n    tag_179:\n      swap3\n      pop\n      pop\n      dup2\n      swap1\n      sstore\n      pop\n        /* \"PrestamoDefi.sol\":2806:2917  function depositarGarantia()  public payable {... */\n      jump\t// out\n    tag_123:\n      mload(0x40)\n      dup1\n      0x0120\n      add\n      0x40\n      mstore\n      dup1\n      0x00\n      dup2\n      mstore\n      0x20\n      add\n      and(0xffffffffffffffffffffffffffffffffffffffff, 0x00)\n      dup2\n      mstore\n      0x20\n      add\n      0x00\n      dup2\n      mstore\n      0x20\n      add\n      0x00\n      dup2\n      mstore\n      0x20\n      add\n      0x00\n      dup2\n      mstore\n      0x20\n      add\n      0x00\n      dup2\n      mstore\n      0x20\n      add\n      iszero(iszero(0x00))\n      dup2\n      mstore\n      0x20\n      add\n      iszero(iszero(0x00))\n      dup2\n      mstore\n      0x20\n      add\n      iszero(iszero(0x00))\n      dup2\n      mstore\n      pop\n      swap1\n      jump\t// out\n        /* \"#utility.yul\":88:205   */\n    tag_181:\n        /* \"#utility.yul\":197:198   */\n      0x00\n        /* \"#utility.yul\":194:195   */\n      dup1\n        /* \"#utility.yul\":187:199   */\n      revert\n        /* \"#utility.yul\":334:460   */\n    tag_183:\n        /* \"#utility.yul\":371:378   */\n      0x00\n        /* \"#utility.yul\":411:453   */\n      0xffffffffffffffffffffffffffffffffffffffff\n        /* \"#utility.yul\":404:409   */\n      dup3\n        /* \"#utility.yul\":400:454   */\n      and\n        /* \"#utility.yul\":389:454   */\n      swap1\n      pop\n        /* \"#utility.yul\":334:460   */\n      swap2\n      swap1\n      pop\n      jump\t// out\n        /* \"#utility.yul\":466:562   */\n    tag_184:\n        /* \"#utility.yul\":503:510   */\n      0x00\n        /* \"#utility.yul\":532:556   */\n      tag_246\n        /* \"#utility.yul\":550:555   */\n      dup3\n        /* \"#utility.yul\":532:556   */\n      tag_183\n      jump\t// in\n    tag_246:\n        /* \"#utility.yul\":521:556   */\n      swap1\n      pop\n        /* \"#utility.yul\":466:562   */\n      swap2\n      swap1\n      pop\n      jump\t// out\n        /* \"#utility.yul\":568:690   */\n    tag_185:\n        /* \"#utility.yul\":641:665   */\n      tag_248\n        /* \"#utility.yul\":659:664   */\n      dup2\n        /* \"#utility.yul\":641:665   */\n      tag_184\n      jump\t// in\n    tag_248:\n        /* \"#utility.yul\":634:639   */\n      dup2\n        /* \"#utility.yul\":631:666   */\n      eq\n        /* \"#utility.yul\":621:684   */\n      tag_249\n      jumpi\n        /* \"#utility.yul\":680:681   */\n      0x00\n        /* \"#utility.yul\":677:678   */\n      dup1\n        /* \"#utility.yul\":670:682   */\n      revert\n        /* \"#utility.yul\":621:684   */\n    tag_249:\n        /* \"#utility.yul\":568:690   */\n      pop\n      jump\t// out\n        /* \"#utility.yul\":696:835   */\n    tag_186:\n        /* \"#utility.yul\":742:747   */\n      0x00\n        /* \"#utility.yul\":780:786   */\n      dup2\n        /* \"#utility.yul\":767:787   */\n      calldataload\n        /* \"#utility.yul\":758:787   */\n      swap1\n      pop\n        /* \"#utility.yul\":796:829   */\n      tag_251\n        /* \"#utility.yul\":823:828   */\n      dup2\n        /* \"#utility.yul\":796:829   */\n      tag_185\n      jump\t// in\n    tag_251:\n        /* \"#utility.yul\":696:835   */\n      swap3\n      swap2\n      pop\n      pop\n      jump\t// out\n        /* \"#utility.yul\":841:918   */\n    tag_187:\n        /* \"#utility.yul\":878:885   */\n      0x00\n        /* \"#utility.yul\":907:912   */\n      dup2\n        /* \"#utility.yul\":896:912   */\n      swap1\n      pop\n        /* \"#utility.yul\":841:918   */\n      swap2\n      swap1\n      pop\n      jump\t// out\n        /* \"#utility.yul\":924:1046   */\n    tag_188:\n        /* \"#utility.yul\":997:1021   */\n      tag_254\n        /* \"#utility.yul\":1015:1020   */\n      dup2\n        /* \"#utility.yul\":997:1021   */\n      tag_187\n      jump\t// in\n    tag_254:\n        /* \"#utility.yul\":990:995   */\n      dup2\n        /* \"#utility.yul\":987:1022   */\n      eq\n        /* \"#utility.yul\":977:1040   */\n      tag_255\n      jumpi\n        /* \"#utility.yul\":1036:1037   */\n      0x00\n        /* \"#utility.yul\":1033:1034   */\n      dup1\n        /* \"#utility.yul\":1026:1038   */\n      revert\n        /* \"#utility.yul\":977:1040   */\n    tag_255:\n        /* \"#utility.yul\":924:1046   */\n      pop\n      jump\t// out\n        /* \"#utility.yul\":1052:1191   */\n    tag_189:\n        /* \"#utility.yul\":1098:1103   */\n      0x00\n        /* \"#utility.yul\":1136:1142   */\n      dup2\n        /* \"#utility.yul\":1123:1143   */\n      calldataload\n        /* \"#utility.yul\":1114:1143   */\n      swap1\n      pop\n        /* \"#utility.yul\":1152:1185   */\n      tag_257\n        /* \"#utility.yul\":1179:1184   */\n      dup2\n        /* \"#utility.yul\":1152:1185   */\n      tag_188\n      jump\t// in\n    tag_257:\n        /* \"#utility.yul\":1052:1191   */\n      swap3\n      swap2\n      pop\n      pop\n      jump\t// out\n        /* \"#utility.yul\":1197:1671   */\n    tag_18:\n        /* \"#utility.yul\":1265:1271   */\n      0x00\n        /* \"#utility.yul\":1273:1279   */\n      dup1\n        /* \"#utility.yul\":1322:1324   */\n      0x40\n        /* \"#utility.yul\":1310:1319   */\n      dup4\n        /* \"#utility.yul\":1301:1308   */\n      dup6\n        /* \"#utility.yul\":1297:1320   */\n      sub\n        /* \"#utility.yul\":1293:1325   */\n      slt\n        /* \"#utility.yul\":1290:1409   */\n      iszero\n      tag_259\n      jumpi\n        /* \"#utility.yul\":1328:1407   */\n      tag_260\n      tag_181\n      jump\t// in\n    tag_260:\n        /* \"#utility.yul\":1290:1409   */\n    tag_259:\n        /* \"#utility.yul\":1448:1449   */\n      0x00\n        /* \"#utility.yul\":1473:1526   */\n      tag_261\n        /* \"#utility.yul\":1518:1525   */\n      dup6\n        /* \"#utility.yul\":1509:1515   */\n      dup3\n        /* \"#utility.yul\":1498:1507   */\n      dup7\n        /* \"#utility.yul\":1494:1516   */\n      add\n        /* \"#utility.yul\":1473:1526   */\n      tag_186\n      jump\t// in\n    tag_261:\n        /* \"#utility.yul\":1463:1526   */\n      swap3\n      pop\n        /* \"#utility.yul\":1419:1536   */\n      pop\n        /* \"#utility.yul\":1575:1577   */\n      0x20\n        /* \"#utility.yul\":1601:1654   */\n      tag_262\n        /* \"#utility.yul\":1646:1653   */\n      dup6\n        /* \"#utility.yul\":1637:1643   */\n      dup3\n        /* \"#utility.yul\":1626:1635   */\n      dup7\n        /* \"#utility.yul\":1622:1644   */\n      add\n        /* \"#utility.yul\":1601:1654   */\n      tag_189\n      jump\t// in\n    tag_262:\n        /* \"#utility.yul\":1591:1654   */\n      swap2\n      pop\n        /* \"#utility.yul\":1546:1664   */\n      pop\n        /* \"#utility.yul\":1197:1671   */\n      swap3\n      pop\n      swap3\n      swap1\n      pop\n      jump\t// out\n        /* \"#utility.yul\":1677:2151   */\n    tag_23:\n        /* \"#utility.yul\":1745:1751   */\n      0x00\n        /* \"#utility.yul\":1753:1759   */\n      dup1\n        /* \"#utility.yul\":1802:1804   */\n      0x40\n        /* \"#utility.yul\":1790:1799   */\n      dup4\n        /* \"#utility.yul\":1781:1788   */\n      dup6\n        /* \"#utility.yul\":1777:1800   */\n      sub\n        /* \"#utility.yul\":1773:1805   */\n      slt\n        /* \"#utility.yul\":1770:1889   */\n      iszero\n      tag_264\n      jumpi\n        /* \"#utility.yul\":1808:1887   */\n      tag_265\n      tag_181\n      jump\t// in\n    tag_265:\n        /* \"#utility.yul\":1770:1889   */\n    tag_264:\n        /* \"#utility.yul\":1928:1929   */\n      0x00\n        /* \"#utility.yul\":1953:2006   */\n      tag_266\n        /* \"#utility.yul\":1998:2005   */\n      dup6\n        /* \"#utility.yul\":1989:1995   */\n      dup3\n        /* \"#utility.yul\":1978:1987   */\n      dup7\n        /* \"#utility.yul\":1974:1996   */\n      add\n        /* \"#utility.yul\":1953:2006   */\n      tag_189\n      jump\t// in\n    tag_266:\n        /* \"#utility.yul\":1943:2006   */\n      swap3\n      pop\n        /* \"#utility.yul\":1899:2016   */\n      pop\n        /* \"#utility.yul\":2055:2057   */\n      0x20\n        /* \"#utility.yul\":2081:2134   */\n      tag_267\n        /* \"#utility.yul\":2126:2133   */\n      dup6\n        /* \"#utility.yul\":2117:2123   */\n      dup3\n        /* \"#utility.yul\":2106:2115   */\n      dup7\n        /* \"#utility.yul\":2102:2124   */\n      add\n        /* \"#utility.yul\":2081:2134   */\n      tag_189\n      jump\t// in\n    tag_267:\n        /* \"#utility.yul\":2071:2134   */\n      swap2\n      pop\n        /* \"#utility.yul\":2026:2144   */\n      pop\n        /* \"#utility.yul\":1677:2151   */\n      swap3\n      pop\n      swap3\n      swap1\n      pop\n      jump\t// out\n        /* \"#utility.yul\":2157:2275   */\n    tag_190:\n        /* \"#utility.yul\":2244:2268   */\n      tag_269\n        /* \"#utility.yul\":2262:2267   */\n      dup2\n        /* \"#utility.yul\":2244:2268   */\n      tag_187\n      jump\t// in\n    tag_269:\n        /* \"#utility.yul\":2239:2242   */\n      dup3\n        /* \"#utility.yul\":2232:2269   */\n      mstore\n        /* \"#utility.yul\":2157:2275   */\n      pop\n      pop\n      jump\t// out\n        /* \"#utility.yul\":2281:2503   */\n    tag_26:\n        /* \"#utility.yul\":2374:2378   */\n      0x00\n        /* \"#utility.yul\":2412:2414   */\n      0x20\n        /* \"#utility.yul\":2401:2410   */\n      dup3\n        /* \"#utility.yul\":2397:2415   */\n      add\n        /* \"#utility.yul\":2389:2415   */\n      swap1\n      pop\n        /* \"#utility.yul\":2425:2496   */\n      tag_271\n        /* \"#utility.yul\":2493:2494   */\n      0x00\n        /* \"#utility.yul\":2482:2491   */\n      dup4\n        /* \"#utility.yul\":2478:2495   */\n      add\n        /* \"#utility.yul\":2469:2475   */\n      dup5\n        /* \"#utility.yul\":2425:2496   */\n      tag_190\n      jump\t// in\n    tag_271:\n        /* \"#utility.yul\":2281:2503   */\n      swap3\n      swap2\n      pop\n      pop\n      jump\t// out\n        /* \"#utility.yul\":2509:2627   */\n    tag_191:\n        /* \"#utility.yul\":2596:2620   */\n      tag_273\n        /* \"#utility.yul\":2614:2619   */\n      dup2\n        /* \"#utility.yul\":2596:2620   */\n      tag_184\n      jump\t// in\n    tag_273:\n        /* \"#utility.yul\":2591:2594   */\n      dup3\n        /* \"#utility.yul\":2584:2621   */\n      mstore\n        /* \"#utility.yul\":2509:2627   */\n      pop\n      pop\n      jump\t// out\n        /* \"#utility.yul\":2633:2855   */\n    tag_31:\n        /* \"#utility.yul\":2726:2730   */\n      0x00\n        /* \"#utility.yul\":2764:2766   */\n      0x20\n        /* \"#utility.yul\":2753:2762   */\n      dup3\n        /* \"#utility.yul\":2749:2767   */\n      add\n        /* \"#utility.yul\":2741:2767   */\n      swap1\n      pop\n        /* \"#utility.yul\":2777:2848   */\n      tag_275\n        /* \"#utility.yul\":2845:2846   */\n      0x00\n        /* \"#utility.yul\":2834:2843   */\n      dup4\n        /* \"#utility.yul\":2830:2847   */\n      add\n        /* \"#utility.yul\":2821:2827   */\n      dup5\n        /* \"#utility.yul\":2777:2848   */\n      tag_191\n      jump\t// in\n    tag_275:\n        /* \"#utility.yul\":2633:2855   */\n      swap3\n      swap2\n      pop\n      pop\n      jump\t// out\n        /* \"#utility.yul\":2861:3190   */\n    tag_35:\n        /* \"#utility.yul\":2920:2926   */\n      0x00\n        /* \"#utility.yul\":2969:2971   */\n      0x20\n        /* \"#utility.yul\":2957:2966   */\n      dup3\n        /* \"#utility.yul\":2948:2955   */\n      dup5\n        /* \"#utility.yul\":2944:2967   */\n      sub\n        /* \"#utility.yul\":2940:2972   */\n      slt\n        /* \"#utility.yul\":2937:3056   */\n      iszero\n      tag_277\n      jumpi\n        /* \"#utility.yul\":2975:3054   */\n      tag_278\n      tag_181\n      jump\t// in\n    tag_278:\n        /* \"#utility.yul\":2937:3056   */\n    tag_277:\n        /* \"#utility.yul\":3095:3096   */\n      0x00\n        /* \"#utility.yul\":3120:3173   */\n      tag_279\n        /* \"#utility.yul\":3165:3172   */\n      dup5\n        /* \"#utility.yul\":3156:3162   */\n      dup3\n        /* \"#utility.yul\":3145:3154   */\n      dup6\n        /* \"#utility.yul\":3141:3163   */\n      add\n        /* \"#utility.yul\":3120:3173   */\n      tag_186\n      jump\t// in\n    tag_279:\n        /* \"#utility.yul\":3110:3173   */\n      swap2\n      pop\n        /* \"#utility.yul\":3066:3183   */\n      pop\n        /* \"#utility.yul\":2861:3190   */\n      swap3\n      swap2\n      pop\n      pop\n      jump\t// out\n        /* \"#utility.yul\":3196:3304   */\n    tag_192:\n        /* \"#utility.yul\":3273:3297   */\n      tag_281\n        /* \"#utility.yul\":3291:3296   */\n      dup2\n        /* \"#utility.yul\":3273:3297   */\n      tag_187\n      jump\t// in\n    tag_281:\n        /* \"#utility.yul\":3268:3271   */\n      dup3\n        /* \"#utility.yul\":3261:3298   */\n      mstore\n        /* \"#utility.yul\":3196:3304   */\n      pop\n      pop\n      jump\t// out\n        /* \"#utility.yul\":3310:3418   */\n    tag_193:\n        /* \"#utility.yul\":3387:3411   */\n      tag_283\n        /* \"#utility.yul\":3405:3410   */\n      dup2\n        /* \"#utility.yul\":3387:3411   */\n      tag_184\n      jump\t// in\n    tag_283:\n        /* \"#utility.yul\":3382:3385   */\n      dup3\n        /* \"#utility.yul\":3375:3412   */\n      mstore\n        /* \"#utility.yul\":3310:3418   */\n      pop\n      pop\n      jump\t// out\n        /* \"#utility.yul\":3424:3514   */\n    tag_194:\n        /* \"#utility.yul\":3458:3465   */\n      0x00\n        /* \"#utility.yul\":3501:3506   */\n      dup2\n        /* \"#utility.yul\":3494:3507   */\n      iszero\n        /* \"#utility.yul\":3487:3508   */\n      iszero\n        /* \"#utility.yul\":3476:3508   */\n      swap1\n      pop\n        /* \"#utility.yul\":3424:3514   */\n      swap2\n      swap1\n      pop\n      jump\t// out\n        /* \"#utility.yul\":3520:3619   */\n    tag_195:\n        /* \"#utility.yul\":3591:3612   */\n      tag_286\n        /* \"#utility.yul\":3606:3611   */\n      dup2\n        /* \"#utility.yul\":3591:3612   */\n      tag_194\n      jump\t// in\n    tag_286:\n        /* \"#utility.yul\":3586:3589   */\n      dup3\n        /* \"#utility.yul\":3579:3613   */\n      mstore\n        /* \"#utility.yul\":3520:3619   */\n      pop\n      pop\n      jump\t// out\n        /* \"#utility.yul\":3693:5446   */\n    tag_196:\n        /* \"#utility.yul\":3838:3844   */\n      0x0120\n        /* \"#utility.yul\":3833:3836   */\n      dup3\n        /* \"#utility.yul\":3829:3845   */\n      add\n        /* \"#utility.yul\":3925:3929   */\n      0x00\n        /* \"#utility.yul\":3918:3923   */\n      dup3\n        /* \"#utility.yul\":3914:3930   */\n      add\n        /* \"#utility.yul\":3908:3931   */\n      mload\n        /* \"#utility.yul\":3944:4007   */\n      tag_288\n        /* \"#utility.yul\":4001:4005   */\n      0x00\n        /* \"#utility.yul\":3996:3999   */\n      dup6\n        /* \"#utility.yul\":3992:4006   */\n      add\n        /* \"#utility.yul\":3978:3990   */\n      dup3\n        /* \"#utility.yul\":3944:4007   */\n      tag_192\n      jump\t// in\n    tag_288:\n        /* \"#utility.yul\":3855:4017   */\n      pop\n        /* \"#utility.yul\":4106:4110   */\n      0x20\n        /* \"#utility.yul\":4099:4104   */\n      dup3\n        /* \"#utility.yul\":4095:4111   */\n      add\n        /* \"#utility.yul\":4089:4112   */\n      mload\n        /* \"#utility.yul\":4125:4188   */\n      tag_289\n        /* \"#utility.yul\":4182:4186   */\n      0x20\n        /* \"#utility.yul\":4177:4180   */\n      dup6\n        /* \"#utility.yul\":4173:4187   */\n      add\n        /* \"#utility.yul\":4159:4171   */\n      dup3\n        /* \"#utility.yul\":4125:4188   */\n      tag_193\n      jump\t// in\n    tag_289:\n        /* \"#utility.yul\":4027:4198   */\n      pop\n        /* \"#utility.yul\":4281:4285   */\n      0x40\n        /* \"#utility.yul\":4274:4279   */\n      dup3\n        /* \"#utility.yul\":4270:4286   */\n      add\n        /* \"#utility.yul\":4264:4287   */\n      mload\n        /* \"#utility.yul\":4300:4363   */\n      tag_290\n        /* \"#utility.yul\":4357:4361   */\n      0x40\n        /* \"#utility.yul\":4352:4355   */\n      dup6\n        /* \"#utility.yul\":4348:4362   */\n      add\n        /* \"#utility.yul\":4334:4346   */\n      dup3\n        /* \"#utility.yul\":4300:4363   */\n      tag_192\n      jump\t// in\n    tag_290:\n        /* \"#utility.yul\":4208:4373   */\n      pop\n        /* \"#utility.yul\":4456:4460   */\n      0x60\n        /* \"#utility.yul\":4449:4454   */\n      dup3\n        /* \"#utility.yul\":4445:4461   */\n      add\n        /* \"#utility.yul\":4439:4462   */\n      mload\n        /* \"#utility.yul\":4475:4538   */\n      tag_291\n        /* \"#utility.yul\":4532:4536   */\n      0x60\n        /* \"#utility.yul\":4527:4530   */\n      dup6\n        /* \"#utility.yul\":4523:4537   */\n      add\n        /* \"#utility.yul\":4509:4521   */\n      dup3\n        /* \"#utility.yul\":4475:4538   */\n      tag_192\n      jump\t// in\n    tag_291:\n        /* \"#utility.yul\":4383:4548   */\n      pop\n        /* \"#utility.yul\":4641:4645   */\n      0x80\n        /* \"#utility.yul\":4634:4639   */\n      dup3\n        /* \"#utility.yul\":4630:4646   */\n      add\n        /* \"#utility.yul\":4624:4647   */\n      mload\n        /* \"#utility.yul\":4660:4723   */\n      tag_292\n        /* \"#utility.yul\":4717:4721   */\n      0x80\n        /* \"#utility.yul\":4712:4715   */\n      dup6\n        /* \"#utility.yul\":4708:4722   */\n      add\n        /* \"#utility.yul\":4694:4706   */\n      dup3\n        /* \"#utility.yul\":4660:4723   */\n      tag_192\n      jump\t// in\n    tag_292:\n        /* \"#utility.yul\":4558:4733   */\n      pop\n        /* \"#utility.yul\":4823:4827   */\n      0xa0\n        /* \"#utility.yul\":4816:4821   */\n      dup3\n        /* \"#utility.yul\":4812:4828   */\n      add\n        /* \"#utility.yul\":4806:4829   */\n      mload\n        /* \"#utility.yul\":4842:4905   */\n      tag_293\n        /* \"#utility.yul\":4899:4903   */\n      0xa0\n        /* \"#utility.yul\":4894:4897   */\n      dup6\n        /* \"#utility.yul\":4890:4904   */\n      add\n        /* \"#utility.yul\":4876:4888   */\n      dup3\n        /* \"#utility.yul\":4842:4905   */\n      tag_192\n      jump\t// in\n    tag_293:\n        /* \"#utility.yul\":4743:4915   */\n      pop\n        /* \"#utility.yul\":5001:5005   */\n      0xc0\n        /* \"#utility.yul\":4994:4999   */\n      dup3\n        /* \"#utility.yul\":4990:5006   */\n      add\n        /* \"#utility.yul\":4984:5007   */\n      mload\n        /* \"#utility.yul\":5020:5077   */\n      tag_294\n        /* \"#utility.yul\":5071:5075   */\n      0xc0\n        /* \"#utility.yul\":5066:5069   */\n      dup6\n        /* \"#utility.yul\":5062:5076   */\n      add\n        /* \"#utility.yul\":5048:5060   */\n      dup3\n        /* \"#utility.yul\":5020:5077   */\n      tag_195\n      jump\t// in\n    tag_294:\n        /* \"#utility.yul\":4925:5087   */\n      pop\n        /* \"#utility.yul\":5176:5180   */\n      0xe0\n        /* \"#utility.yul\":5169:5174   */\n      dup3\n        /* \"#utility.yul\":5165:5181   */\n      add\n        /* \"#utility.yul\":5159:5182   */\n      mload\n        /* \"#utility.yul\":5195:5252   */\n      tag_295\n        /* \"#utility.yul\":5246:5250   */\n      0xe0\n        /* \"#utility.yul\":5241:5244   */\n      dup6\n        /* \"#utility.yul\":5237:5251   */\n      add\n        /* \"#utility.yul\":5223:5235   */\n      dup3\n        /* \"#utility.yul\":5195:5252   */\n      tag_195\n      jump\t// in\n    tag_295:\n        /* \"#utility.yul\":5097:5262   */\n      pop\n        /* \"#utility.yul\":5349:5355   */\n      0x0100\n        /* \"#utility.yul\":5342:5347   */\n      dup3\n        /* \"#utility.yul\":5338:5356   */\n      add\n        /* \"#utility.yul\":5332:5357   */\n      mload\n        /* \"#utility.yul\":5370:5429   */\n      tag_296\n        /* \"#utility.yul\":5421:5427   */\n      0x0100\n        /* \"#utility.yul\":5416:5419   */\n      dup6\n        /* \"#utility.yul\":5412:5428   */\n      add\n        /* \"#utility.yul\":5398:5410   */\n      dup3\n        /* \"#utility.yul\":5370:5429   */\n      tag_195\n      jump\t// in\n    tag_296:\n        /* \"#utility.yul\":5272:5439   */\n      pop\n        /* \"#utility.yul\":3807:5446   */\n      pop\n        /* \"#utility.yul\":3693:5446   */\n      pop\n      pop\n      jump\t// out\n        /* \"#utility.yul\":5452:5771   */\n    tag_42:\n        /* \"#utility.yul\":5593:5597   */\n      0x00\n        /* \"#utility.yul\":5631:5634   */\n      0x0120\n        /* \"#utility.yul\":5620:5629   */\n      dup3\n        /* \"#utility.yul\":5616:5635   */\n      add\n        /* \"#utility.yul\":5608:5635   */\n      swap1\n      pop\n        /* \"#utility.yul\":5645:5764   */\n      tag_298\n        /* \"#utility.yul\":5761:5762   */\n      0x00\n        /* \"#utility.yul\":5750:5759   */\n      dup4\n        /* \"#utility.yul\":5746:5763   */\n      add\n        /* \"#utility.yul\":5737:5743   */\n      dup5\n        /* \"#utility.yul\":5645:5764   */\n      tag_196\n      jump\t// in\n    tag_298:\n        /* \"#utility.yul\":5452:5771   */\n      swap3\n      swap2\n      pop\n      pop\n      jump\t// out\n        /* \"#utility.yul\":5777:5886   */\n    tag_197:\n        /* \"#utility.yul\":5858:5879   */\n      tag_300\n        /* \"#utility.yul\":5873:5878   */\n      dup2\n        /* \"#utility.yul\":5858:5879   */\n      tag_194\n      jump\t// in\n    tag_300:\n        /* \"#utility.yul\":5853:5856   */\n      dup3\n        /* \"#utility.yul\":5846:5880   */\n      mstore\n        /* \"#utility.yul\":5777:5886   */\n      pop\n      pop\n      jump\t// out\n        /* \"#utility.yul\":5892:6212   */\n    tag_48:\n        /* \"#utility.yul\":6007:6011   */\n      0x00\n        /* \"#utility.yul\":6045:6047   */\n      0x40\n        /* \"#utility.yul\":6034:6043   */\n      dup3\n        /* \"#utility.yul\":6030:6048   */\n      add\n        /* \"#utility.yul\":6022:6048   */\n      swap1\n      pop\n        /* \"#utility.yul\":6058:6123   */\n      tag_302\n        /* \"#utility.yul\":6120:6121   */\n      0x00\n        /* \"#utility.yul\":6109:6118   */\n      dup4\n        /* \"#utility.yul\":6105:6122   */\n      add\n        /* \"#utility.yul\":6096:6102   */\n      dup6\n        /* \"#utility.yul\":6058:6123   */\n      tag_197\n      jump\t// in\n    tag_302:\n        /* \"#utility.yul\":6133:6205   */\n      tag_303\n        /* \"#utility.yul\":6201:6203   */\n      0x20\n        /* \"#utility.yul\":6190:6199   */\n      dup4\n        /* \"#utility.yul\":6186:6204   */\n      add\n        /* \"#utility.yul\":6177:6183   */\n      dup5\n        /* \"#utility.yul\":6133:6205   */\n      tag_190\n      jump\t// in\n    tag_303:\n        /* \"#utility.yul\":5892:6212   */\n      swap4\n      swap3\n      pop\n      pop\n      pop\n      jump\t// out\n        /* \"#utility.yul\":6218:6428   */\n    tag_62:\n        /* \"#utility.yul\":6305:6309   */\n      0x00\n        /* \"#utility.yul\":6343:6345   */\n      0x20\n        /* \"#utility.yul\":6332:6341   */\n      dup3\n        /* \"#utility.yul\":6328:6346   */\n      add\n        /* \"#utility.yul\":6320:6346   */\n      swap1\n      pop\n        /* \"#utility.yul\":6356:6421   */\n      tag_305\n        /* \"#utility.yul\":6418:6419   */\n      0x00\n        /* \"#utility.yul\":6407:6416   */\n      dup4\n        /* \"#utility.yul\":6403:6420   */\n      add\n        /* \"#utility.yul\":6394:6400   */\n      dup5\n        /* \"#utility.yul\":6356:6421   */\n      tag_197\n      jump\t// in\n    tag_305:\n        /* \"#utility.yul\":6218:6428   */\n      swap3\n      swap2\n      pop\n      pop\n      jump\t// out\n        /* \"#utility.yul\":6434:6548   */\n    tag_198:\n        /* \"#utility.yul\":6501:6507   */\n      0x00\n        /* \"#utility.yul\":6535:6540   */\n      dup2\n        /* \"#utility.yul\":6529:6541   */\n      mload\n        /* \"#utility.yul\":6519:6541   */\n      swap1\n      pop\n        /* \"#utility.yul\":6434:6548   */\n      swap2\n      swap1\n      pop\n      jump\t// out\n        /* \"#utility.yul\":6554:6738   */\n    tag_199:\n        /* \"#utility.yul\":6653:6664   */\n      0x00\n        /* \"#utility.yul\":6687:6693   */\n      dup3\n        /* \"#utility.yul\":6682:6685   */\n      dup3\n        /* \"#utility.yul\":6675:6694   */\n      mstore\n        /* \"#utility.yul\":6727:6731   */\n      0x20\n        /* \"#utility.yul\":6722:6725   */\n      dup3\n        /* \"#utility.yul\":6718:6732   */\n      add\n        /* \"#utility.yul\":6703:6732   */\n      swap1\n      pop\n        /* \"#utility.yul\":6554:6738   */\n      swap3\n      swap2\n      pop\n      pop\n      jump\t// out\n        /* \"#utility.yul\":6744:6876   */\n    tag_200:\n        /* \"#utility.yul\":6811:6815   */\n      0x00\n        /* \"#utility.yul\":6834:6837   */\n      dup2\n        /* \"#utility.yul\":6826:6837   */\n      swap1\n      pop\n        /* \"#utility.yul\":6864:6868   */\n      0x20\n        /* \"#utility.yul\":6859:6862   */\n      dup3\n        /* \"#utility.yul\":6855:6869   */\n      add\n        /* \"#utility.yul\":6847:6869   */\n      swap1\n      pop\n        /* \"#utility.yul\":6744:6876   */\n      swap2\n      swap1\n      pop\n      jump\t// out\n        /* \"#utility.yul\":6882:7061   */\n    tag_201:\n        /* \"#utility.yul\":6951:6961   */\n      0x00\n        /* \"#utility.yul\":6972:7018   */\n      tag_310\n        /* \"#utility.yul\":7014:7017   */\n      dup4\n        /* \"#utility.yul\":7006:7012   */\n      dup4\n        /* \"#utility.yul\":6972:7018   */\n      tag_192\n      jump\t// in\n    tag_310:\n        /* \"#utility.yul\":7050:7054   */\n      0x20\n        /* \"#utility.yul\":7045:7048   */\n      dup4\n        /* \"#utility.yul\":7041:7055   */\n      add\n        /* \"#utility.yul\":7027:7055   */\n      swap1\n      pop\n        /* \"#utility.yul\":6882:7061   */\n      swap3\n      swap2\n      pop\n      pop\n      jump\t// out\n        /* \"#utility.yul\":7067:7180   */\n    tag_202:\n        /* \"#utility.yul\":7137:7141   */\n      0x00\n        /* \"#utility.yul\":7169:7173   */\n      0x20\n        /* \"#utility.yul\":7164:7167   */\n      dup3\n        /* \"#utility.yul\":7160:7174   */\n      add\n        /* \"#utility.yul\":7152:7174   */\n      swap1\n      pop\n        /* \"#utility.yul\":7067:7180   */\n      swap2\n      swap1\n      pop\n      jump\t// out\n        /* \"#utility.yul\":7216:7948   */\n    tag_203:\n        /* \"#utility.yul\":7335:7338   */\n      0x00\n        /* \"#utility.yul\":7364:7418   */\n      tag_313\n        /* \"#utility.yul\":7412:7417   */\n      dup3\n        /* \"#utility.yul\":7364:7418   */\n      tag_198\n      jump\t// in\n    tag_313:\n        /* \"#utility.yul\":7434:7520   */\n      tag_314\n        /* \"#utility.yul\":7513:7519   */\n      dup2\n        /* \"#utility.yul\":7508:7511   */\n      dup6\n        /* \"#utility.yul\":7434:7520   */\n      tag_199\n      jump\t// in\n    tag_314:\n        /* \"#utility.yul\":7427:7520   */\n      swap4\n      pop\n        /* \"#utility.yul\":7544:7600   */\n      tag_315\n        /* \"#utility.yul\":7594:7599   */\n      dup4\n        /* \"#utility.yul\":7544:7600   */\n      tag_200\n      jump\t// in\n    tag_315:\n        /* \"#utility.yul\":7623:7630   */\n      dup1\n        /* \"#utility.yul\":7654:7655   */\n      0x00\n        /* \"#utility.yul\":7639:7923   */\n    tag_316:\n        /* \"#utility.yul\":7664:7670   */\n      dup4\n        /* \"#utility.yul\":7661:7662   */\n      dup2\n        /* \"#utility.yul\":7658:7671   */\n      lt\n        /* \"#utility.yul\":7639:7923   */\n      iszero\n      tag_318\n      jumpi\n        /* \"#utility.yul\":7740:7746   */\n      dup2\n        /* \"#utility.yul\":7734:7747   */\n      mload\n        /* \"#utility.yul\":7767:7830   */\n      tag_319\n        /* \"#utility.yul\":7826:7829   */\n      dup9\n        /* \"#utility.yul\":7811:7824   */\n      dup3\n        /* \"#utility.yul\":7767:7830   */\n      tag_201\n      jump\t// in\n    tag_319:\n        /* \"#utility.yul\":7760:7830   */\n      swap8\n      pop\n        /* \"#utility.yul\":7853:7913   */\n      tag_320\n        /* \"#utility.yul\":7906:7912   */\n      dup4\n        /* \"#utility.yul\":7853:7913   */\n      tag_202\n      jump\t// in\n    tag_320:\n        /* \"#utility.yul\":7843:7913   */\n      swap3\n      pop\n        /* \"#utility.yul\":7699:7923   */\n      pop\n        /* \"#utility.yul\":7686:7687   */\n      0x01\n        /* \"#utility.yul\":7683:7684   */\n      dup2\n        /* \"#utility.yul\":7679:7688   */\n      add\n        /* \"#utility.yul\":7674:7688   */\n      swap1\n      pop\n        /* \"#utility.yul\":7639:7923   */\n      jump(tag_316)\n    tag_318:\n        /* \"#utility.yul\":7643:7657   */\n      pop\n        /* \"#utility.yul\":7939:7942   */\n      dup6\n        /* \"#utility.yul\":7932:7942   */\n      swap4\n      pop\n        /* \"#utility.yul\":7340:7948   */\n      pop\n      pop\n      pop\n        /* \"#utility.yul\":7216:7948   */\n      swap3\n      swap2\n      pop\n      pop\n      jump\t// out\n        /* \"#utility.yul\":7954:8327   */\n    tag_68:\n        /* \"#utility.yul\":8097:8101   */\n      0x00\n        /* \"#utility.yul\":8135:8137   */\n      0x20\n        /* \"#utility.yul\":8124:8133   */\n      dup3\n        /* \"#utility.yul\":8120:8138   */\n      add\n        /* \"#utility.yul\":8112:8138   */\n      swap1\n      pop\n        /* \"#utility.yul\":8184:8193   */\n      dup2\n        /* \"#utility.yul\":8178:8182   */\n      dup2\n        /* \"#utility.yul\":8174:8194   */\n      sub\n        /* \"#utility.yul\":8170:8171   */\n      0x00\n        /* \"#utility.yul\":8159:8168   */\n      dup4\n        /* \"#utility.yul\":8155:8172   */\n      add\n        /* \"#utility.yul\":8148:8195   */\n      mstore\n        /* \"#utility.yul\":8212:8320   */\n      tag_322\n        /* \"#utility.yul\":8315:8319   */\n      dup2\n        /* \"#utility.yul\":8306:8312   */\n      dup5\n        /* \"#utility.yul\":8212:8320   */\n      tag_203\n      jump\t// in\n    tag_322:\n        /* \"#utility.yul\":8204:8320   */\n      swap1\n      pop\n        /* \"#utility.yul\":7954:8327   */\n      swap3\n      swap2\n      pop\n      pop\n      jump\t// out\n        /* \"#utility.yul\":8333:8662   */\n    tag_72:\n        /* \"#utility.yul\":8392:8398   */\n      0x00\n        /* \"#utility.yul\":8441:8443   */\n      0x20\n        /* \"#utility.yul\":8429:8438   */\n      dup3\n        /* \"#utility.yul\":8420:8427   */\n      dup5\n        /* \"#utility.yul\":8416:8439   */\n      sub\n        /* \"#utility.yul\":8412:8444   */\n      slt\n        /* \"#utility.yul\":8409:8528   */\n      iszero\n      tag_324\n      jumpi\n        /* \"#utility.yul\":8447:8526   */\n      tag_325\n      tag_181\n      jump\t// in\n    tag_325:\n        /* \"#utility.yul\":8409:8528   */\n    tag_324:\n        /* \"#utility.yul\":8567:8568   */\n      0x00\n        /* \"#utility.yul\":8592:8645   */\n      tag_326\n        /* \"#utility.yul\":8637:8644   */\n      dup5\n        /* \"#utility.yul\":8628:8634   */\n      dup3\n        /* \"#utility.yul\":8617:8626   */\n      dup6\n        /* \"#utility.yul\":8613:8635   */\n      add\n        /* \"#utility.yul\":8592:8645   */\n      tag_189\n      jump\t// in\n    tag_326:\n        /* \"#utility.yul\":8582:8645   */\n      swap2\n      pop\n        /* \"#utility.yul\":8538:8655   */\n      pop\n        /* \"#utility.yul\":8333:8662   */\n      swap3\n      swap2\n      pop\n      pop\n      jump\t// out\n        /* \"#utility.yul\":8668:8837   */\n    tag_204:\n        /* \"#utility.yul\":8752:8763   */\n      0x00\n        /* \"#utility.yul\":8786:8792   */\n      dup3\n        /* \"#utility.yul\":8781:8784   */\n      dup3\n        /* \"#utility.yul\":8774:8793   */\n      mstore\n        /* \"#utility.yul\":8826:8830   */\n      0x20\n        /* \"#utility.yul\":8821:8824   */\n      dup3\n        /* \"#utility.yul\":8817:8831   */\n      add\n        /* \"#utility.yul\":8802:8831   */\n      swap1\n      pop\n        /* \"#utility.yul\":8668:8837   */\n      swap3\n      swap2\n      pop\n      pop\n      jump\t// out\n        /* \"#utility.yul\":8843:9021   */\n    tag_205:\n        /* \"#utility.yul\":8983:9013   */\n      0x4572726f722c206e6f206573746173206461646f20646520616c746100000000\n        /* \"#utility.yul\":8979:8980   */\n      0x00\n        /* \"#utility.yul\":8971:8977   */\n      dup3\n        /* \"#utility.yul\":8967:8981   */\n      add\n        /* \"#utility.yul\":8960:9014   */\n      mstore\n        /* \"#utility.yul\":8843:9021   */\n      pop\n      jump\t// out\n        /* \"#utility.yul\":9027:9393   */\n    tag_206:\n        /* \"#utility.yul\":9169:9172   */\n      0x00\n        /* \"#utility.yul\":9190:9257   */\n      tag_330\n        /* \"#utility.yul\":9254:9256   */\n      0x1c\n        /* \"#utility.yul\":9249:9252   */\n      dup4\n        /* \"#utility.yul\":9190:9257   */\n      tag_204\n      jump\t// in\n    tag_330:\n        /* \"#utility.yul\":9183:9257   */\n      swap2\n      pop\n        /* \"#utility.yul\":9266:9359   */\n      tag_331\n        /* \"#utility.yul\":9355:9358   */\n      dup3\n        /* \"#utility.yul\":9266:9359   */\n      tag_205\n      jump\t// in\n    tag_331:\n        /* \"#utility.yul\":9384:9386   */\n      0x20\n        /* \"#utility.yul\":9379:9382   */\n      dup3\n        /* \"#utility.yul\":9375:9387   */\n      add\n        /* \"#utility.yul\":9368:9387   */\n      swap1\n      pop\n        /* \"#utility.yul\":9027:9393   */\n      swap2\n      swap1\n      pop\n      jump\t// out\n        /* \"#utility.yul\":9399:9818   */\n    tag_79:\n        /* \"#utility.yul\":9565:9569   */\n      0x00\n        /* \"#utility.yul\":9603:9605   */\n      0x20\n        /* \"#utility.yul\":9592:9601   */\n      dup3\n        /* \"#utility.yul\":9588:9606   */\n      add\n        /* \"#utility.yul\":9580:9606   */\n      swap1\n      pop\n        /* \"#utility.yul\":9652:9661   */\n      dup2\n        /* \"#utility.yul\":9646:9650   */\n      dup2\n        /* \"#utility.yul\":9642:9662   */\n      sub\n        /* \"#utility.yul\":9638:9639   */\n      0x00\n        /* \"#utility.yul\":9627:9636   */\n      dup4\n        /* \"#utility.yul\":9623:9640   */\n      add\n        /* \"#utility.yul\":9616:9663   */\n      mstore\n        /* \"#utility.yul\":9680:9811   */\n      tag_333\n        /* \"#utility.yul\":9806:9810   */\n      dup2\n        /* \"#utility.yul\":9680:9811   */\n      tag_206\n      jump\t// in\n    tag_333:\n        /* \"#utility.yul\":9672:9811   */\n      swap1\n      pop\n        /* \"#utility.yul\":9399:9818   */\n      swap2\n      swap1\n      pop\n      jump\t// out\n        /* \"#utility.yul\":9824:9999   */\n    tag_207:\n        /* \"#utility.yul\":9964:9991   */\n      0x4572726f722c206c61204944206e6f2065732076616c69646f00000000000000\n        /* \"#utility.yul\":9960:9961   */\n      0x00\n        /* \"#utility.yul\":9952:9958   */\n      dup3\n        /* \"#utility.yul\":9948:9962   */\n      add\n        /* \"#utility.yul\":9941:9992   */\n      mstore\n        /* \"#utility.yul\":9824:9999   */\n      pop\n      jump\t// out\n        /* \"#utility.yul\":10005:10371   */\n    tag_208:\n        /* \"#utility.yul\":10147:10150   */\n      0x00\n        /* \"#utility.yul\":10168:10235   */\n      tag_336\n        /* \"#utility.yul\":10232:10234   */\n      0x19\n        /* \"#utility.yul\":10227:10230   */\n      dup4\n        /* \"#utility.yul\":10168:10235   */\n      tag_204\n      jump\t// in\n    tag_336:\n        /* \"#utility.yul\":10161:10235   */\n      swap2\n      pop\n        /* \"#utility.yul\":10244:10337   */\n      tag_337\n        /* \"#utility.yul\":10333:10336   */\n      dup3\n        /* \"#utility.yul\":10244:10337   */\n      tag_207\n      jump\t// in\n    tag_337:\n        /* \"#utility.yul\":10362:10364   */\n      0x20\n        /* \"#utility.yul\":10357:10360   */\n      dup3\n        /* \"#utility.yul\":10353:10365   */\n      add\n        /* \"#utility.yul\":10346:10365   */\n      swap1\n      pop\n        /* \"#utility.yul\":10005:10371   */\n      swap2\n      swap1\n      pop\n      jump\t// out\n        /* \"#utility.yul\":10377:10796   */\n    tag_84:\n        /* \"#utility.yul\":10543:10547   */\n      0x00\n        /* \"#utility.yul\":10581:10583   */\n      0x20\n        /* \"#utility.yul\":10570:10579   */\n      dup3\n        /* \"#utility.yul\":10566:10584   */\n      add\n        /* \"#utility.yul\":10558:10584   */\n      swap1\n      pop\n        /* \"#utility.yul\":10630:10639   */\n      dup2\n        /* \"#utility.yul\":10624:10628   */\n      dup2\n        /* \"#utility.yul\":10620:10640   */\n      sub\n        /* \"#utility.yul\":10616:10617   */\n      0x00\n        /* \"#utility.yul\":10605:10614   */\n      dup4\n        /* \"#utility.yul\":10601:10618   */\n      add\n        /* \"#utility.yul\":10594:10641   */\n      mstore\n        /* \"#utility.yul\":10658:10789   */\n      tag_339\n        /* \"#utility.yul\":10784:10788   */\n      dup2\n        /* \"#utility.yul\":10658:10789   */\n      tag_208\n      jump\t// in\n    tag_339:\n        /* \"#utility.yul\":10650:10789   */\n      swap1\n      pop\n        /* \"#utility.yul\":10377:10796   */\n      swap2\n      swap1\n      pop\n      jump\t// out\n        /* \"#utility.yul\":10802:11024   */\n    tag_209:\n        /* \"#utility.yul\":10942:10976   */\n      0x4572726f722c20656c207072657374616d6f206e6f2065737461206170726f62\n        /* \"#utility.yul\":10938:10939   */\n      0x00\n        /* \"#utility.yul\":10930:10936   */\n      dup3\n        /* \"#utility.yul\":10926:10940   */\n      add\n        /* \"#utility.yul\":10919:10977   */\n      mstore\n        /* \"#utility.yul\":11011:11016   */\n      0x61646f0000000000000000000000000000000000000000000000000000000000\n        /* \"#utility.yul\":11006:11008   */\n      0x20\n        /* \"#utility.yul\":10998:11004   */\n      dup3\n        /* \"#utility.yul\":10994:11009   */\n      add\n        /* \"#utility.yul\":10987:11017   */\n      mstore\n        /* \"#utility.yul\":10802:11024   */\n      pop\n      jump\t// out\n        /* \"#utility.yul\":11030:11396   */\n    tag_210:\n        /* \"#utility.yul\":11172:11175   */\n      0x00\n        /* \"#utility.yul\":11193:11260   */\n      tag_342\n        /* \"#utility.yul\":11257:11259   */\n      0x23\n        /* \"#utility.yul\":11252:11255   */\n      dup4\n        /* \"#utility.yul\":11193:11260   */\n      tag_204\n      jump\t// in\n    tag_342:\n        /* \"#utility.yul\":11186:11260   */\n      swap2\n      pop\n        /* \"#utility.yul\":11269:11362   */\n      tag_343\n        /* \"#utility.yul\":11358:11361   */\n      dup3\n        /* \"#utility.yul\":11269:11362   */\n      tag_209\n      jump\t// in\n    tag_343:\n        /* \"#utility.yul\":11387:11389   */\n      0x40\n        /* \"#utility.yul\":11382:11385   */\n      dup3\n        /* \"#utility.yul\":11378:11390   */\n      add\n        /* \"#utility.yul\":11371:11390   */\n      swap1\n      pop\n        /* \"#utility.yul\":11030:11396   */\n      swap2\n      swap1\n      pop\n      jump\t// out\n        /* \"#utility.yul\":11402:11821   */\n    tag_87:\n        /* \"#utility.yul\":11568:11572   */\n      0x00\n        /* \"#utility.yul\":11606:11608   */\n      0x20\n        /* \"#utility.yul\":11595:11604   */\n      dup3\n        /* \"#utility.yul\":11591:11609   */\n      add\n        /* \"#utility.yul\":11583:11609   */\n      swap1\n      pop\n        /* \"#utility.yul\":11655:11664   */\n      dup2\n        /* \"#utility.yul\":11649:11653   */\n      dup2\n        /* \"#utility.yul\":11645:11665   */\n      sub\n        /* \"#utility.yul\":11641:11642   */\n      0x00\n        /* \"#utility.yul\":11630:11639   */\n      dup4\n        /* \"#utility.yul\":11626:11643   */\n      add\n        /* \"#utility.yul\":11619:11666   */\n      mstore\n        /* \"#utility.yul\":11683:11814   */\n      tag_345\n        /* \"#utility.yul\":11809:11813   */\n      dup2\n        /* \"#utility.yul\":11683:11814   */\n      tag_210\n      jump\t// in\n    tag_345:\n        /* \"#utility.yul\":11675:11814   */\n      swap1\n      pop\n        /* \"#utility.yul\":11402:11821   */\n      swap2\n      swap1\n      pop\n      jump\t// out\n        /* \"#utility.yul\":11827:12049   */\n    tag_211:\n        /* \"#utility.yul\":11967:12001   */\n      0x4572726f722c20656c207072657374616d6f2065737461207265656d626f6c73\n        /* \"#utility.yul\":11963:11964   */\n      0x00\n        /* \"#utility.yul\":11955:11961   */\n      dup3\n        /* \"#utility.yul\":11951:11965   */\n      add\n        /* \"#utility.yul\":11944:12002   */\n      mstore\n        /* \"#utility.yul\":12036:12041   */\n      0x61646f0000000000000000000000000000000000000000000000000000000000\n        /* \"#utility.yul\":12031:12033   */\n      0x20\n        /* \"#utility.yul\":12023:12029   */\n      dup3\n        /* \"#utility.yul\":12019:12034   */\n      add\n        /* \"#utility.yul\":12012:12042   */\n      mstore\n        /* \"#utility.yul\":11827:12049   */\n      pop\n      jump\t// out\n        /* \"#utility.yul\":12055:12421   */\n    tag_212:\n        /* \"#utility.yul\":12197:12200   */\n      0x00\n        /* \"#utility.yul\":12218:12285   */\n      tag_348\n        /* \"#utility.yul\":12282:12284   */\n      0x23\n        /* \"#utility.yul\":12277:12280   */\n      dup4\n        /* \"#utility.yul\":12218:12285   */\n      tag_204\n      jump\t// in\n    tag_348:\n        /* \"#utility.yul\":12211:12285   */\n      swap2\n      pop\n        /* \"#utility.yul\":12294:12387   */\n      tag_349\n        /* \"#utility.yul\":12383:12386   */\n      dup3\n        /* \"#utility.yul\":12294:12387   */\n      tag_211\n      jump\t// in\n    tag_349:\n        /* \"#utility.yul\":12412:12414   */\n      0x40\n        /* \"#utility.yul\":12407:12410   */\n      dup3\n        /* \"#utility.yul\":12403:12415   */\n      add\n        /* \"#utility.yul\":12396:12415   */\n      swap1\n      pop\n        /* \"#utility.yul\":12055:12421   */\n      swap2\n      swap1\n      pop\n      jump\t// out\n        /* \"#utility.yul\":12427:12846   */\n    tag_90:\n        /* \"#utility.yul\":12593:12597   */\n      0x00\n        /* \"#utility.yul\":12631:12633   */\n      0x20\n        /* \"#utility.yul\":12620:12629   */\n      dup3\n        /* \"#utility.yul\":12616:12634   */\n      add\n        /* \"#utility.yul\":12608:12634   */\n      swap1\n      pop\n        /* \"#utility.yul\":12680:12689   */\n      dup2\n        /* \"#utility.yul\":12674:12678   */\n      dup2\n        /* \"#utility.yul\":12670:12690   */\n      sub\n        /* \"#utility.yul\":12666:12667   */\n      0x00\n        /* \"#utility.yul\":12655:12664   */\n      dup4\n        /* \"#utility.yul\":12651:12668   */\n      add\n        /* \"#utility.yul\":12644:12691   */\n      mstore\n        /* \"#utility.yul\":12708:12839   */\n      tag_351\n        /* \"#utility.yul\":12834:12838   */\n      dup2\n        /* \"#utility.yul\":12708:12839   */\n      tag_212\n      jump\t// in\n    tag_351:\n        /* \"#utility.yul\":12700:12839   */\n      swap1\n      pop\n        /* \"#utility.yul\":12427:12846   */\n      swap2\n      swap1\n      pop\n      jump\t// out\n        /* \"#utility.yul\":12852:13072   */\n    tag_213:\n        /* \"#utility.yul\":12992:13026   */\n      0x4572726f722c20656c207072657374616d6f2065737461206c69717569646164\n        /* \"#utility.yul\":12988:12989   */\n      0x00\n        /* \"#utility.yul\":12980:12986   */\n      dup3\n        /* \"#utility.yul\":12976:12990   */\n      add\n        /* \"#utility.yul\":12969:13027   */\n      mstore\n        /* \"#utility.yul\":13061:13064   */\n      0x6f00000000000000000000000000000000000000000000000000000000000000\n        /* \"#utility.yul\":13056:13058   */\n      0x20\n        /* \"#utility.yul\":13048:13054   */\n      dup3\n        /* \"#utility.yul\":13044:13059   */\n      add\n        /* \"#utility.yul\":13037:13065   */\n      mstore\n        /* \"#utility.yul\":12852:13072   */\n      pop\n      jump\t// out\n        /* \"#utility.yul\":13078:13444   */\n    tag_214:\n        /* \"#utility.yul\":13220:13223   */\n      0x00\n        /* \"#utility.yul\":13241:13308   */\n      tag_354\n        /* \"#utility.yul\":13305:13307   */\n      0x21\n        /* \"#utility.yul\":13300:13303   */\n      dup4\n        /* \"#utility.yul\":13241:13308   */\n      tag_204\n      jump\t// in\n    tag_354:\n        /* \"#utility.yul\":13234:13308   */\n      swap2\n      pop\n        /* \"#utility.yul\":13317:13410   */\n      tag_355\n        /* \"#utility.yul\":13406:13409   */\n      dup3\n        /* \"#utility.yul\":13317:13410   */\n      tag_213\n      jump\t// in\n    tag_355:\n        /* \"#utility.yul\":13435:13437   */\n      0x40\n        /* \"#utility.yul\":13430:13433   */\n      dup3\n        /* \"#utility.yul\":13426:13438   */\n      add\n        /* \"#utility.yul\":13419:13438   */\n      swap1\n      pop\n        /* \"#utility.yul\":13078:13444   */\n      swap2\n      swap1\n      pop\n      jump\t// out\n        /* \"#utility.yul\":13450:13869   */\n    tag_93:\n        /* \"#utility.yul\":13616:13620   */\n      0x00\n        /* \"#utility.yul\":13654:13656   */\n      0x20\n        /* \"#utility.yul\":13643:13652   */\n      dup3\n        /* \"#utility.yul\":13639:13657   */\n      add\n        /* \"#utility.yul\":13631:13657   */\n      swap1\n      pop\n        /* \"#utility.yul\":13703:13712   */\n      dup2\n        /* \"#utility.yul\":13697:13701   */\n      dup2\n        /* \"#utility.yul\":13693:13713   */\n      sub\n        /* \"#utility.yul\":13689:13690   */\n      0x00\n        /* \"#utility.yul\":13678:13687   */\n      dup4\n        /* \"#utility.yul\":13674:13691   */\n      add\n        /* \"#utility.yul\":13667:13714   */\n      mstore\n        /* \"#utility.yul\":13731:13862   */\n      tag_357\n        /* \"#utility.yul\":13857:13861   */\n      dup2\n        /* \"#utility.yul\":13731:13862   */\n      tag_214\n      jump\t// in\n    tag_357:\n        /* \"#utility.yul\":13723:13862   */\n      swap1\n      pop\n        /* \"#utility.yul\":13450:13869   */\n      swap2\n      swap1\n      pop\n      jump\t// out\n        /* \"#utility.yul\":13875:14102   */\n    tag_215:\n        /* \"#utility.yul\":14015:14049   */\n      0x4572726f722c206e6f2073652068612070617361646f20656c207469656d706f\n        /* \"#utility.yul\":14011:14012   */\n      0x00\n        /* \"#utility.yul\":14003:14009   */\n      dup3\n        /* \"#utility.yul\":13999:14013   */\n      add\n        /* \"#utility.yul\":13992:14050   */\n      mstore\n        /* \"#utility.yul\":14084:14094   */\n      0x206465207061676f000000000000000000000000000000000000000000000000\n        /* \"#utility.yul\":14079:14081   */\n      0x20\n        /* \"#utility.yul\":14071:14077   */\n      dup3\n        /* \"#utility.yul\":14067:14082   */\n      add\n        /* \"#utility.yul\":14060:14095   */\n      mstore\n        /* \"#utility.yul\":13875:14102   */\n      pop\n      jump\t// out\n        /* \"#utility.yul\":14108:14474   */\n    tag_216:\n        /* \"#utility.yul\":14250:14253   */\n      0x00\n        /* \"#utility.yul\":14271:14338   */\n      tag_360\n        /* \"#utility.yul\":14335:14337   */\n      0x28\n        /* \"#utility.yul\":14330:14333   */\n      dup4\n        /* \"#utility.yul\":14271:14338   */\n      tag_204\n      jump\t// in\n    tag_360:\n        /* \"#utility.yul\":14264:14338   */\n      swap2\n      pop\n        /* \"#utility.yul\":14347:14440   */\n      tag_361\n        /* \"#utility.yul\":14436:14439   */\n      dup3\n        /* \"#utility.yul\":14347:14440   */\n      tag_215\n      jump\t// in\n    tag_361:\n        /* \"#utility.yul\":14465:14467   */\n      0x40\n        /* \"#utility.yul\":14460:14463   */\n      dup3\n        /* \"#utility.yul\":14456:14468   */\n      add\n        /* \"#utility.yul\":14449:14468   */\n      swap1\n      pop\n        /* \"#utility.yul\":14108:14474   */\n      swap2\n      swap1\n      pop\n      jump\t// out\n        /* \"#utility.yul\":14480:14899   */\n    tag_96:\n        /* \"#utility.yul\":14646:14650   */\n      0x00\n        /* \"#utility.yul\":14684:14686   */\n      0x20\n        /* \"#utility.yul\":14673:14682   */\n      dup3\n        /* \"#utility.yul\":14669:14687   */\n      add\n        /* \"#utility.yul\":14661:14687   */\n      swap1\n      pop\n        /* \"#utility.yul\":14733:14742   */\n      dup2\n        /* \"#utility.yul\":14727:14731   */\n      dup2\n        /* \"#utility.yul\":14723:14743   */\n      sub\n        /* \"#utility.yul\":14719:14720   */\n      0x00\n        /* \"#utility.yul\":14708:14717   */\n      dup4\n        /* \"#utility.yul\":14704:14721   */\n      add\n        /* \"#utility.yul\":14697:14744   */\n      mstore\n        /* \"#utility.yul\":14761:14892   */\n      tag_363\n        /* \"#utility.yul\":14887:14891   */\n      dup2\n        /* \"#utility.yul\":14761:14892   */\n      tag_216\n      jump\t// in\n    tag_363:\n        /* \"#utility.yul\":14753:14892   */\n      swap1\n      pop\n        /* \"#utility.yul\":14480:14899   */\n      swap2\n      swap1\n      pop\n      jump\t// out\n        /* \"#utility.yul\":14905:15085   */\n    tag_217:\n        /* \"#utility.yul\":14953:15030   */\n      0x4e487b7100000000000000000000000000000000000000000000000000000000\n        /* \"#utility.yul\":14950:14951   */\n      0x00\n        /* \"#utility.yul\":14943:15031   */\n      mstore\n        /* \"#utility.yul\":15050:15054   */\n      0x11\n        /* \"#utility.yul\":15047:15048   */\n      0x04\n        /* \"#utility.yul\":15040:15055   */\n      mstore\n        /* \"#utility.yul\":15074:15078   */\n      0x24\n        /* \"#utility.yul\":15071:15072   */\n      0x00\n        /* \"#utility.yul\":15064:15079   */\n      revert\n        /* \"#utility.yul\":15091:15285   */\n    tag_100:\n        /* \"#utility.yul\":15131:15135   */\n      0x00\n        /* \"#utility.yul\":15151:15171   */\n      tag_366\n        /* \"#utility.yul\":15169:15170   */\n      dup3\n        /* \"#utility.yul\":15151:15171   */\n      tag_187\n      jump\t// in\n    tag_366:\n        /* \"#utility.yul\":15146:15171   */\n      swap2\n      pop\n        /* \"#utility.yul\":15185:15205   */\n      tag_367\n        /* \"#utility.yul\":15203:15204   */\n      dup4\n        /* \"#utility.yul\":15185:15205   */\n      tag_187\n      jump\t// in\n    tag_367:\n        /* \"#utility.yul\":15180:15205   */\n      swap3\n      pop\n        /* \"#utility.yul\":15229:15230   */\n      dup3\n        /* \"#utility.yul\":15226:15227   */\n      dup3\n        /* \"#utility.yul\":15222:15231   */\n      sub\n        /* \"#utility.yul\":15214:15231   */\n      swap1\n      pop\n        /* \"#utility.yul\":15253:15254   */\n      dup2\n        /* \"#utility.yul\":15247:15251   */\n      dup2\n        /* \"#utility.yul\":15244:15255   */\n      gt\n        /* \"#utility.yul\":15241:15278   */\n      iszero\n      tag_368\n      jumpi\n        /* \"#utility.yul\":15258:15276   */\n      tag_369\n      tag_217\n      jump\t// in\n    tag_369:\n        /* \"#utility.yul\":15241:15278   */\n    tag_368:\n        /* \"#utility.yul\":15091:15285   */\n      swap3\n      swap2\n      pop\n      pop\n      jump\t// out\n        /* \"#utility.yul\":15291:15514   */\n    tag_218:\n        /* \"#utility.yul\":15431:15465   */\n      0x4572726f722c20656c20636c69656e7465206e6f206573746120726567697374\n        /* \"#utility.yul\":15427:15428   */\n      0x00\n        /* \"#utility.yul\":15419:15425   */\n      dup3\n        /* \"#utility.yul\":15415:15429   */\n      add\n        /* \"#utility.yul\":15408:15466   */\n      mstore\n        /* \"#utility.yul\":15500:15506   */\n      0x7261646f00000000000000000000000000000000000000000000000000000000\n        /* \"#utility.yul\":15495:15497   */\n      0x20\n        /* \"#utility.yul\":15487:15493   */\n      dup3\n        /* \"#utility.yul\":15483:15498   */\n      add\n        /* \"#utility.yul\":15476:15507   */\n      mstore\n        /* \"#utility.yul\":15291:15514   */\n      pop\n      jump\t// out\n        /* \"#utility.yul\":15520:15886   */\n    tag_219:\n        /* \"#utility.yul\":15662:15665   */\n      0x00\n        /* \"#utility.yul\":15683:15750   */\n      tag_372\n        /* \"#utility.yul\":15747:15749   */\n      0x24\n        /* \"#utility.yul\":15742:15745   */\n      dup4\n        /* \"#utility.yul\":15683:15750   */\n      tag_204\n      jump\t// in\n    tag_372:\n        /* \"#utility.yul\":15676:15750   */\n      swap2\n      pop\n        /* \"#utility.yul\":15759:15852   */\n      tag_373\n        /* \"#utility.yul\":15848:15851   */\n      dup3\n        /* \"#utility.yul\":15759:15852   */\n      tag_218\n      jump\t// in\n    tag_373:\n        /* \"#utility.yul\":15877:15879   */\n      0x40\n        /* \"#utility.yul\":15872:15875   */\n      dup3\n        /* \"#utility.yul\":15868:15880   */\n      add\n        /* \"#utility.yul\":15861:15880   */\n      swap1\n      pop\n        /* \"#utility.yul\":15520:15886   */\n      swap2\n      swap1\n      pop\n      jump\t// out\n        /* \"#utility.yul\":15892:16311   */\n    tag_105:\n        /* \"#utility.yul\":16058:16062   */\n      0x00\n        /* \"#utility.yul\":16096:16098   */\n      0x20\n        /* \"#utility.yul\":16085:16094   */\n      dup3\n        /* \"#utility.yul\":16081:16099   */\n      add\n        /* \"#utility.yul\":16073:16099   */\n      swap1\n      pop\n        /* \"#utility.yul\":16145:16154   */\n      dup2\n        /* \"#utility.yul\":16139:16143   */\n      dup2\n        /* \"#utility.yul\":16135:16155   */\n      sub\n        /* \"#utility.yul\":16131:16132   */\n      0x00\n        /* \"#utility.yul\":16120:16129   */\n      dup4\n        /* \"#utility.yul\":16116:16133   */\n      add\n        /* \"#utility.yul\":16109:16156   */\n      mstore\n        /* \"#utility.yul\":16173:16304   */\n      tag_375\n        /* \"#utility.yul\":16299:16303   */\n      dup2\n        /* \"#utility.yul\":16173:16304   */\n      tag_219\n      jump\t// in\n    tag_375:\n        /* \"#utility.yul\":16165:16304   */\n      swap1\n      pop\n        /* \"#utility.yul\":15892:16311   */\n      swap2\n      swap1\n      pop\n      jump\t// out\n        /* \"#utility.yul\":16317:16548   */\n    tag_220:\n        /* \"#utility.yul\":16457:16491   */\n      0x4572726f722c206e6f207469656e6520737566696369656e74652073616c646f\n        /* \"#utility.yul\":16453:16454   */\n      0x00\n        /* \"#utility.yul\":16445:16451   */\n      dup3\n        /* \"#utility.yul\":16441:16455   */\n      add\n        /* \"#utility.yul\":16434:16492   */\n      mstore\n        /* \"#utility.yul\":16526:16540   */\n      0x20646520676172616e7469610000000000000000000000000000000000000000\n        /* \"#utility.yul\":16521:16523   */\n      0x20\n        /* \"#utility.yul\":16513:16519   */\n      dup3\n        /* \"#utility.yul\":16509:16524   */\n      add\n        /* \"#utility.yul\":16502:16541   */\n      mstore\n        /* \"#utility.yul\":16317:16548   */\n      pop\n      jump\t// out\n        /* \"#utility.yul\":16554:16920   */\n    tag_221:\n        /* \"#utility.yul\":16696:16699   */\n      0x00\n        /* \"#utility.yul\":16717:16784   */\n      tag_378\n        /* \"#utility.yul\":16781:16783   */\n      0x2c\n        /* \"#utility.yul\":16776:16779   */\n      dup4\n        /* \"#utility.yul\":16717:16784   */\n      tag_204\n      jump\t// in\n    tag_378:\n        /* \"#utility.yul\":16710:16784   */\n      swap2\n      pop\n        /* \"#utility.yul\":16793:16886   */\n      tag_379\n        /* \"#utility.yul\":16882:16885   */\n      dup3\n        /* \"#utility.yul\":16793:16886   */\n      tag_220\n      jump\t// in\n    tag_379:\n        /* \"#utility.yul\":16911:16913   */\n      0x40\n        /* \"#utility.yul\":16906:16909   */\n      dup3\n        /* \"#utility.yul\":16902:16914   */\n      add\n        /* \"#utility.yul\":16895:16914   */\n      swap1\n      pop\n        /* \"#utility.yul\":16554:16920   */\n      swap2\n      swap1\n      pop\n      jump\t// out\n        /* \"#utility.yul\":16926:17345   */\n    tag_109:\n        /* \"#utility.yul\":17092:17096   */\n      0x00\n        /* \"#utility.yul\":17130:17132   */\n      0x20\n        /* \"#utility.yul\":17119:17128   */\n      dup3\n        /* \"#utility.yul\":17115:17133   */\n      add\n        /* \"#utility.yul\":17107:17133   */\n      swap1\n      pop\n        /* \"#utility.yul\":17179:17188   */\n      dup2\n        /* \"#utility.yul\":17173:17177   */\n      dup2\n        /* \"#utility.yul\":17169:17189   */\n      sub\n        /* \"#utility.yul\":17165:17166   */\n      0x00\n        /* \"#utility.yul\":17154:17163   */\n      dup4\n        /* \"#utility.yul\":17150:17167   */\n      add\n        /* \"#utility.yul\":17143:17190   */\n      mstore\n        /* \"#utility.yul\":17207:17338   */\n      tag_381\n        /* \"#utility.yul\":17333:17337   */\n      dup2\n        /* \"#utility.yul\":17207:17338   */\n      tag_221\n      jump\t// in\n    tag_381:\n        /* \"#utility.yul\":17199:17338   */\n      swap1\n      pop\n        /* \"#utility.yul\":16926:17345   */\n      swap2\n      swap1\n      pop\n      jump\t// out\n        /* \"#utility.yul\":17351:17542   */\n    tag_111:\n        /* \"#utility.yul\":17391:17394   */\n      0x00\n        /* \"#utility.yul\":17410:17430   */\n      tag_383\n        /* \"#utility.yul\":17428:17429   */\n      dup3\n        /* \"#utility.yul\":17410:17430   */\n      tag_187\n      jump\t// in\n    tag_383:\n        /* \"#utility.yul\":17405:17430   */\n      swap2\n      pop\n        /* \"#utility.yul\":17444:17464   */\n      tag_384\n        /* \"#utility.yul\":17462:17463   */\n      dup4\n        /* \"#utility.yul\":17444:17464   */\n      tag_187\n      jump\t// in\n    tag_384:\n        /* \"#utility.yul\":17439:17464   */\n      swap3\n      pop\n        /* \"#utility.yul\":17487:17488   */\n      dup3\n        /* \"#utility.yul\":17484:17485   */\n      dup3\n        /* \"#utility.yul\":17480:17489   */\n      add\n        /* \"#utility.yul\":17473:17489   */\n      swap1\n      pop\n        /* \"#utility.yul\":17508:17511   */\n      dup1\n        /* \"#utility.yul\":17505:17506   */\n      dup3\n        /* \"#utility.yul\":17502:17512   */\n      gt\n        /* \"#utility.yul\":17499:17535   */\n      iszero\n      tag_385\n      jumpi\n        /* \"#utility.yul\":17515:17533   */\n      tag_386\n      tag_217\n      jump\t// in\n    tag_386:\n        /* \"#utility.yul\":17499:17535   */\n    tag_385:\n        /* \"#utility.yul\":17351:17542   */\n      swap3\n      swap2\n      pop\n      pop\n      jump\t// out\n        /* \"#utility.yul\":17548:17880   */\n    tag_114:\n        /* \"#utility.yul\":17669:17673   */\n      0x00\n        /* \"#utility.yul\":17707:17709   */\n      0x40\n        /* \"#utility.yul\":17696:17705   */\n      dup3\n        /* \"#utility.yul\":17692:17710   */\n      add\n        /* \"#utility.yul\":17684:17710   */\n      swap1\n      pop\n        /* \"#utility.yul\":17720:17791   */\n      tag_388\n        /* \"#utility.yul\":17788:17789   */\n      0x00\n        /* \"#utility.yul\":17777:17786   */\n      dup4\n        /* \"#utility.yul\":17773:17790   */\n      add\n        /* \"#utility.yul\":17764:17770   */\n      dup6\n        /* \"#utility.yul\":17720:17791   */\n      tag_190\n      jump\t// in\n    tag_388:\n        /* \"#utility.yul\":17801:17873   */\n      tag_389\n        /* \"#utility.yul\":17869:17871   */\n      0x20\n        /* \"#utility.yul\":17858:17867   */\n      dup4\n        /* \"#utility.yul\":17854:17872   */\n      add\n        /* \"#utility.yul\":17845:17851   */\n      dup5\n        /* \"#utility.yul\":17801:17873   */\n      tag_190\n      jump\t// in\n    tag_389:\n        /* \"#utility.yul\":17548:17880   */\n      swap4\n      swap3\n      pop\n      pop\n      pop\n      jump\t// out\n        /* \"#utility.yul\":17886:18113   */\n    tag_222:\n        /* \"#utility.yul\":18026:18060   */\n      0x4572726f722c20656c20636c69656e746520796120657374616261206461646f\n        /* \"#utility.yul\":18022:18023   */\n      0x00\n        /* \"#utility.yul\":18014:18020   */\n      dup3\n        /* \"#utility.yul\":18010:18024   */\n      add\n        /* \"#utility.yul\":18003:18061   */\n      mstore\n        /* \"#utility.yul\":18095:18105   */\n      0x20646520616c7461000000000000000000000000000000000000000000000000\n        /* \"#utility.yul\":18090:18092   */\n      0x20\n        /* \"#utility.yul\":18082:18088   */\n      dup3\n        /* \"#utility.yul\":18078:18093   */\n      add\n        /* \"#utility.yul\":18071:18106   */\n      mstore\n        /* \"#utility.yul\":17886:18113   */\n      pop\n      jump\t// out\n        /* \"#utility.yul\":18119:18485   */\n    tag_223:\n        /* \"#utility.yul\":18261:18264   */\n      0x00\n        /* \"#utility.yul\":18282:18349   */\n      tag_392\n        /* \"#utility.yul\":18346:18348   */\n      0x28\n        /* \"#utility.yul\":18341:18344   */\n      dup4\n        /* \"#utility.yul\":18282:18349   */\n      tag_204\n      jump\t// in\n    tag_392:\n        /* \"#utility.yul\":18275:18349   */\n      swap2\n      pop\n        /* \"#utility.yul\":18358:18451   */\n      tag_393\n        /* \"#utility.yul\":18447:18450   */\n      dup3\n        /* \"#utility.yul\":18358:18451   */\n      tag_222\n      jump\t// in\n    tag_393:\n        /* \"#utility.yul\":18476:18478   */\n      0x40\n        /* \"#utility.yul\":18471:18474   */\n      dup3\n        /* \"#utility.yul\":18467:18479   */\n      add\n        /* \"#utility.yul\":18460:18479   */\n      swap1\n      pop\n        /* \"#utility.yul\":18119:18485   */\n      swap2\n      swap1\n      pop\n      jump\t// out\n        /* \"#utility.yul\":18491:18910   */\n    tag_121:\n        /* \"#utility.yul\":18657:18661   */\n      0x00\n        /* \"#utility.yul\":18695:18697   */\n      0x20\n        /* \"#utility.yul\":18684:18693   */\n      dup3\n        /* \"#utility.yul\":18680:18698   */\n      add\n        /* \"#utility.yul\":18672:18698   */\n      swap1\n      pop\n        /* \"#utility.yul\":18744:18753   */\n      dup2\n        /* \"#utility.yul\":18738:18742   */\n      dup2\n        /* \"#utility.yul\":18734:18754   */\n      sub\n        /* \"#utility.yul\":18730:18731   */\n      0x00\n        /* \"#utility.yul\":18719:18728   */\n      dup4\n        /* \"#utility.yul\":18715:18732   */\n      add\n        /* \"#utility.yul\":18708:18755   */\n      mstore\n        /* \"#utility.yul\":18772:18903   */\n      tag_395\n        /* \"#utility.yul\":18898:18902   */\n      dup2\n        /* \"#utility.yul\":18772:18903   */\n      tag_223\n      jump\t// in\n    tag_395:\n        /* \"#utility.yul\":18764:18903   */\n      swap1\n      pop\n        /* \"#utility.yul\":18491:18910   */\n      swap2\n      swap1\n      pop\n      jump\t// out\n        /* \"#utility.yul\":18916:19091   */\n    tag_224:\n        /* \"#utility.yul\":19056:19083   */\n      0x4572726f722c206c61204944206e6f2065732076616c69646100000000000000\n        /* \"#utility.yul\":19052:19053   */\n      0x00\n        /* \"#utility.yul\":19044:19050   */\n      dup3\n        /* \"#utility.yul\":19040:19054   */\n      add\n        /* \"#utility.yul\":19033:19084   */\n      mstore\n        /* \"#utility.yul\":18916:19091   */\n      pop\n      jump\t// out\n        /* \"#utility.yul\":19097:19463   */\n    tag_225:\n        /* \"#utility.yul\":19239:19242   */\n      0x00\n        /* \"#utility.yul\":19260:19327   */\n      tag_398\n        /* \"#utility.yul\":19324:19326   */\n      0x19\n        /* \"#utility.yul\":19319:19322   */\n      dup4\n        /* \"#utility.yul\":19260:19327   */\n      tag_204\n      jump\t// in\n    tag_398:\n        /* \"#utility.yul\":19253:19327   */\n      swap2\n      pop\n        /* \"#utility.yul\":19336:19429   */\n      tag_399\n        /* \"#utility.yul\":19425:19428   */\n      dup3\n        /* \"#utility.yul\":19336:19429   */\n      tag_224\n      jump\t// in\n    tag_399:\n        /* \"#utility.yul\":19454:19456   */\n      0x20\n        /* \"#utility.yul\":19449:19452   */\n      dup3\n        /* \"#utility.yul\":19445:19457   */\n      add\n        /* \"#utility.yul\":19438:19457   */\n      swap1\n      pop\n        /* \"#utility.yul\":19097:19463   */\n      swap2\n      swap1\n      pop\n      jump\t// out\n        /* \"#utility.yul\":19469:19888   */\n    tag_132:\n        /* \"#utility.yul\":19635:19639   */\n      0x00\n        /* \"#utility.yul\":19673:19675   */\n      0x20\n        /* \"#utility.yul\":19662:19671   */\n      dup3\n        /* \"#utility.yul\":19658:19676   */\n      add\n        /* \"#utility.yul\":19650:19676   */\n      swap1\n      pop\n        /* \"#utility.yul\":19722:19731   */\n      dup2\n        /* \"#utility.yul\":19716:19720   */\n      dup2\n        /* \"#utility.yul\":19712:19732   */\n      sub\n        /* \"#utility.yul\":19708:19709   */\n      0x00\n        /* \"#utility.yul\":19697:19706   */\n      dup4\n        /* \"#utility.yul\":19693:19710   */\n      add\n        /* \"#utility.yul\":19686:19733   */\n      mstore\n        /* \"#utility.yul\":19750:19881   */\n      tag_401\n        /* \"#utility.yul\":19876:19880   */\n      dup2\n        /* \"#utility.yul\":19750:19881   */\n      tag_225\n      jump\t// in\n    tag_401:\n        /* \"#utility.yul\":19742:19881   */\n      swap1\n      pop\n        /* \"#utility.yul\":19469:19888   */\n      swap2\n      swap1\n      pop\n      jump\t// out\n        /* \"#utility.yul\":19894:20076   */\n    tag_226:\n        /* \"#utility.yul\":20034:20068   */\n      0x4572726f722c20656c207072657374616d6f2065737461206170726f6261646f\n        /* \"#utility.yul\":20030:20031   */\n      0x00\n        /* \"#utility.yul\":20022:20028   */\n      dup3\n        /* \"#utility.yul\":20018:20032   */\n      add\n        /* \"#utility.yul\":20011:20069   */\n      mstore\n        /* \"#utility.yul\":19894:20076   */\n      pop\n      jump\t// out\n        /* \"#utility.yul\":20082:20448   */\n    tag_227:\n        /* \"#utility.yul\":20224:20227   */\n      0x00\n        /* \"#utility.yul\":20245:20312   */\n      tag_404\n        /* \"#utility.yul\":20309:20311   */\n      0x20\n        /* \"#utility.yul\":20304:20307   */\n      dup4\n        /* \"#utility.yul\":20245:20312   */\n      tag_204\n      jump\t// in\n    tag_404:\n        /* \"#utility.yul\":20238:20312   */\n      swap2\n      pop\n        /* \"#utility.yul\":20321:20414   */\n      tag_405\n        /* \"#utility.yul\":20410:20413   */\n      dup3\n        /* \"#utility.yul\":20321:20414   */\n      tag_226\n      jump\t// in\n    tag_405:\n        /* \"#utility.yul\":20439:20441   */\n      0x20\n        /* \"#utility.yul\":20434:20437   */\n      dup3\n        /* \"#utility.yul\":20430:20442   */\n      add\n        /* \"#utility.yul\":20423:20442   */\n      swap1\n      pop\n        /* \"#utility.yul\":20082:20448   */\n      swap2\n      swap1\n      pop\n      jump\t// out\n        /* \"#utility.yul\":20454:20873   */\n    tag_135:\n        /* \"#utility.yul\":20620:20624   */\n      0x00\n        /* \"#utility.yul\":20658:20660   */\n      0x20\n        /* \"#utility.yul\":20647:20656   */\n      dup3\n        /* \"#utility.yul\":20643:20661   */\n      add\n        /* \"#utility.yul\":20635:20661   */\n      swap1\n      pop\n        /* \"#utility.yul\":20707:20716   */\n      dup2\n        /* \"#utility.yul\":20701:20705   */\n      dup2\n        /* \"#utility.yul\":20697:20717   */\n      sub\n        /* \"#utility.yul\":20693:20694   */\n      0x00\n        /* \"#utility.yul\":20682:20691   */\n      dup4\n        /* \"#utility.yul\":20678:20695   */\n      add\n        /* \"#utility.yul\":20671:20718   */\n      mstore\n        /* \"#utility.yul\":20735:20866   */\n      tag_407\n        /* \"#utility.yul\":20861:20865   */\n      dup2\n        /* \"#utility.yul\":20735:20866   */\n      tag_227\n      jump\t// in\n    tag_407:\n        /* \"#utility.yul\":20727:20866   */\n      swap1\n      pop\n        /* \"#utility.yul\":20454:20873   */\n      swap2\n      swap1\n      pop\n      jump\t// out\n        /* \"#utility.yul\":20879:21104   */\n    tag_228:\n        /* \"#utility.yul\":21019:21053   */\n      0x4572726f722c20656c207072657374616d6f206861207369646f207265656d62\n        /* \"#utility.yul\":21015:21016   */\n      0x00\n        /* \"#utility.yul\":21007:21013   */\n      dup3\n        /* \"#utility.yul\":21003:21017   */\n      add\n        /* \"#utility.yul\":20996:21054   */\n      mstore\n        /* \"#utility.yul\":21088:21096   */\n      0x6f6c7361646f0000000000000000000000000000000000000000000000000000\n        /* \"#utility.yul\":21083:21085   */\n      0x20\n        /* \"#utility.yul\":21075:21081   */\n      dup3\n        /* \"#utility.yul\":21071:21086   */\n      add\n        /* \"#utility.yul\":21064:21097   */\n      mstore\n        /* \"#utility.yul\":20879:21104   */\n      pop\n      jump\t// out\n        /* \"#utility.yul\":21110:21476   */\n    tag_229:\n        /* \"#utility.yul\":21252:21255   */\n      0x00\n        /* \"#utility.yul\":21273:21340   */\n      tag_410\n        /* \"#utility.yul\":21337:21339   */\n      0x26\n        /* \"#utility.yul\":21332:21335   */\n      dup4\n        /* \"#utility.yul\":21273:21340   */\n      tag_204\n      jump\t// in\n    tag_410:\n        /* \"#utility.yul\":21266:21340   */\n      swap2\n      pop\n        /* \"#utility.yul\":21349:21442   */\n      tag_411\n        /* \"#utility.yul\":21438:21441   */\n      dup3\n        /* \"#utility.yul\":21349:21442   */\n      tag_228\n      jump\t// in\n    tag_411:\n        /* \"#utility.yul\":21467:21469   */\n      0x40\n        /* \"#utility.yul\":21462:21465   */\n      dup3\n        /* \"#utility.yul\":21458:21470   */\n      add\n        /* \"#utility.yul\":21451:21470   */\n      swap1\n      pop\n        /* \"#utility.yul\":21110:21476   */\n      swap2\n      swap1\n      pop\n      jump\t// out\n        /* \"#utility.yul\":21482:21901   */\n    tag_138:\n        /* \"#utility.yul\":21648:21652   */\n      0x00\n        /* \"#utility.yul\":21686:21688   */\n      0x20\n        /* \"#utility.yul\":21675:21684   */\n      dup3\n        /* \"#utility.yul\":21671:21689   */\n      add\n        /* \"#utility.yul\":21663:21689   */\n      swap1\n      pop\n        /* \"#utility.yul\":21735:21744   */\n      dup2\n        /* \"#utility.yul\":21729:21733   */\n      dup2\n        /* \"#utility.yul\":21725:21745   */\n      sub\n        /* \"#utility.yul\":21721:21722   */\n      0x00\n        /* \"#utility.yul\":21710:21719   */\n      dup4\n        /* \"#utility.yul\":21706:21723   */\n      add\n        /* \"#utility.yul\":21699:21746   */\n      mstore\n        /* \"#utility.yul\":21763:21894   */\n      tag_413\n        /* \"#utility.yul\":21889:21893   */\n      dup2\n        /* \"#utility.yul\":21763:21894   */\n      tag_229\n      jump\t// in\n    tag_413:\n        /* \"#utility.yul\":21755:21894   */\n      swap1\n      pop\n        /* \"#utility.yul\":21482:21901   */\n      swap2\n      swap1\n      pop\n      jump\t// out\n        /* \"#utility.yul\":21907:22130   */\n    tag_230:\n        /* \"#utility.yul\":22047:22081   */\n      0x4572726f722c20656c207072657374616d6f206861207369646f206c69717569\n        /* \"#utility.yul\":22043:22044   */\n      0x00\n        /* \"#utility.yul\":22035:22041   */\n      dup3\n        /* \"#utility.yul\":22031:22045   */\n      add\n        /* \"#utility.yul\":22024:22082   */\n      mstore\n        /* \"#utility.yul\":22116:22122   */\n      0x6461646f00000000000000000000000000000000000000000000000000000000\n        /* \"#utility.yul\":22111:22113   */\n      0x20\n        /* \"#utility.yul\":22103:22109   */\n      dup3\n        /* \"#utility.yul\":22099:22114   */\n      add\n        /* \"#utility.yul\":22092:22123   */\n      mstore\n        /* \"#utility.yul\":21907:22130   */\n      pop\n      jump\t// out\n        /* \"#utility.yul\":22136:22502   */\n    tag_231:\n        /* \"#utility.yul\":22278:22281   */\n      0x00\n        /* \"#utility.yul\":22299:22366   */\n      tag_416\n        /* \"#utility.yul\":22363:22365   */\n      0x24\n        /* \"#utility.yul\":22358:22361   */\n      dup4\n        /* \"#utility.yul\":22299:22366   */\n      tag_204\n      jump\t// in\n    tag_416:\n        /* \"#utility.yul\":22292:22366   */\n      swap2\n      pop\n        /* \"#utility.yul\":22375:22468   */\n      tag_417\n        /* \"#utility.yul\":22464:22467   */\n      dup3\n        /* \"#utility.yul\":22375:22468   */\n      tag_230\n      jump\t// in\n    tag_417:\n        /* \"#utility.yul\":22493:22495   */\n      0x40\n        /* \"#utility.yul\":22488:22491   */\n      dup3\n        /* \"#utility.yul\":22484:22496   */\n      add\n        /* \"#utility.yul\":22477:22496   */\n      swap1\n      pop\n        /* \"#utility.yul\":22136:22502   */\n      swap2\n      swap1\n      pop\n      jump\t// out\n        /* \"#utility.yul\":22508:22927   */\n    tag_141:\n        /* \"#utility.yul\":22674:22678   */\n      0x00\n        /* \"#utility.yul\":22712:22714   */\n      0x20\n        /* \"#utility.yul\":22701:22710   */\n      dup3\n        /* \"#utility.yul\":22697:22715   */\n      add\n        /* \"#utility.yul\":22689:22715   */\n      swap1\n      pop\n        /* \"#utility.yul\":22761:22770   */\n      dup2\n        /* \"#utility.yul\":22755:22759   */\n      dup2\n        /* \"#utility.yul\":22751:22771   */\n      sub\n        /* \"#utility.yul\":22747:22748   */\n      0x00\n        /* \"#utility.yul\":22736:22745   */\n      dup4\n        /* \"#utility.yul\":22732:22749   */\n      add\n        /* \"#utility.yul\":22725:22772   */\n      mstore\n        /* \"#utility.yul\":22789:22920   */\n      tag_419\n        /* \"#utility.yul\":22915:22919   */\n      dup2\n        /* \"#utility.yul\":22789:22920   */\n      tag_231\n      jump\t// in\n    tag_419:\n        /* \"#utility.yul\":22781:22920   */\n      swap1\n      pop\n        /* \"#utility.yul\":22508:22927   */\n      swap2\n      swap1\n      pop\n      jump\t// out\n        /* \"#utility.yul\":22933:23228   */\n    tag_232:\n        /* \"#utility.yul\":23073:23107   */\n      0x4572726f722c206e6f207075646573207265616c697a61722065737461206163\n        /* \"#utility.yul\":23069:23070   */\n      0x00\n        /* \"#utility.yul\":23061:23067   */\n      dup3\n        /* \"#utility.yul\":23057:23071   */\n      add\n        /* \"#utility.yul\":23050:23108   */\n      mstore\n        /* \"#utility.yul\":23142:23176   */\n      0x63696f6e20706f7220717565206e6f206572657320656c20736f63696f207072\n        /* \"#utility.yul\":23137:23139   */\n      0x20\n        /* \"#utility.yul\":23129:23135   */\n      dup3\n        /* \"#utility.yul\":23125:23140   */\n      add\n        /* \"#utility.yul\":23118:23177   */\n      mstore\n        /* \"#utility.yul\":23211:23220   */\n      0x6f6e636970616c00000000000000000000000000000000000000000000000000\n        /* \"#utility.yul\":23206:23208   */\n      0x40\n        /* \"#utility.yul\":23198:23204   */\n      dup3\n        /* \"#utility.yul\":23194:23209   */\n      add\n        /* \"#utility.yul\":23187:23221   */\n      mstore\n        /* \"#utility.yul\":22933:23228   */\n      pop\n      jump\t// out\n        /* \"#utility.yul\":23234:23600   */\n    tag_233:\n        /* \"#utility.yul\":23376:23379   */\n      0x00\n        /* \"#utility.yul\":23397:23464   */\n      tag_422\n        /* \"#utility.yul\":23461:23463   */\n      0x47\n        /* \"#utility.yul\":23456:23459   */\n      dup4\n        /* \"#utility.yul\":23397:23464   */\n      tag_204\n      jump\t// in\n    tag_422:\n        /* \"#utility.yul\":23390:23464   */\n      swap2\n      pop\n        /* \"#utility.yul\":23473:23566   */\n      tag_423\n        /* \"#utility.yul\":23562:23565   */\n      dup3\n        /* \"#utility.yul\":23473:23566   */\n      tag_232\n      jump\t// in\n    tag_423:\n        /* \"#utility.yul\":23591:23593   */\n      0x60\n        /* \"#utility.yul\":23586:23589   */\n      dup3\n        /* \"#utility.yul\":23582:23594   */\n      add\n        /* \"#utility.yul\":23575:23594   */\n      swap1\n      pop\n        /* \"#utility.yul\":23234:23600   */\n      swap2\n      swap1\n      pop\n      jump\t// out\n        /* \"#utility.yul\":23606:24025   */\n    tag_147:\n        /* \"#utility.yul\":23772:23776   */\n      0x00\n        /* \"#utility.yul\":23810:23812   */\n      0x20\n        /* \"#utility.yul\":23799:23808   */\n      dup3\n        /* \"#utility.yul\":23795:23813   */\n      add\n        /* \"#utility.yul\":23787:23813   */\n      swap1\n      pop\n        /* \"#utility.yul\":23859:23868   */\n      dup2\n        /* \"#utility.yul\":23853:23857   */\n      dup2\n        /* \"#utility.yul\":23849:23869   */\n      sub\n        /* \"#utility.yul\":23845:23846   */\n      0x00\n        /* \"#utility.yul\":23834:23843   */\n      dup4\n        /* \"#utility.yul\":23830:23847   */\n      add\n        /* \"#utility.yul\":23823:23870   */\n      mstore\n        /* \"#utility.yul\":23887:24018   */\n      tag_425\n        /* \"#utility.yul\":24013:24017   */\n      dup2\n        /* \"#utility.yul\":23887:24018   */\n      tag_233\n      jump\t// in\n    tag_425:\n        /* \"#utility.yul\":23879:24018   */\n      swap1\n      pop\n        /* \"#utility.yul\":23606:24025   */\n      swap2\n      swap1\n      pop\n      jump\t// out\n        /* \"#utility.yul\":24031:24258   */\n    tag_234:\n        /* \"#utility.yul\":24171:24205   */\n      0x4572726f7220656c2070726574616d697374612079612065737461206461646f\n        /* \"#utility.yul\":24167:24168   */\n      0x00\n        /* \"#utility.yul\":24159:24165   */\n      dup3\n        /* \"#utility.yul\":24155:24169   */\n      add\n        /* \"#utility.yul\":24148:24206   */\n      mstore\n        /* \"#utility.yul\":24240:24250   */\n      0x20646520616c7461000000000000000000000000000000000000000000000000\n        /* \"#utility.yul\":24235:24237   */\n      0x20\n        /* \"#utility.yul\":24227:24233   */\n      dup3\n        /* \"#utility.yul\":24223:24238   */\n      add\n        /* \"#utility.yul\":24216:24251   */\n      mstore\n        /* \"#utility.yul\":24031:24258   */\n      pop\n      jump\t// out\n        /* \"#utility.yul\":24264:24630   */\n    tag_235:\n        /* \"#utility.yul\":24406:24409   */\n      0x00\n        /* \"#utility.yul\":24427:24494   */\n      tag_428\n        /* \"#utility.yul\":24491:24493   */\n      0x28\n        /* \"#utility.yul\":24486:24489   */\n      dup4\n        /* \"#utility.yul\":24427:24494   */\n      tag_204\n      jump\t// in\n    tag_428:\n        /* \"#utility.yul\":24420:24494   */\n      swap2\n      pop\n        /* \"#utility.yul\":24503:24596   */\n      tag_429\n        /* \"#utility.yul\":24592:24595   */\n      dup3\n        /* \"#utility.yul\":24503:24596   */\n      tag_234\n      jump\t// in\n    tag_429:\n        /* \"#utility.yul\":24621:24623   */\n      0x40\n        /* \"#utility.yul\":24616:24619   */\n      dup3\n        /* \"#utility.yul\":24612:24624   */\n      add\n        /* \"#utility.yul\":24605:24624   */\n      swap1\n      pop\n        /* \"#utility.yul\":24264:24630   */\n      swap2\n      swap1\n      pop\n      jump\t// out\n        /* \"#utility.yul\":24636:25055   */\n    tag_151:\n        /* \"#utility.yul\":24802:24806   */\n      0x00\n        /* \"#utility.yul\":24840:24842   */\n      0x20\n        /* \"#utility.yul\":24829:24838   */\n      dup3\n        /* \"#utility.yul\":24825:24843   */\n      add\n        /* \"#utility.yul\":24817:24843   */\n      swap1\n      pop\n        /* \"#utility.yul\":24889:24898   */\n      dup2\n        /* \"#utility.yul\":24883:24887   */\n      dup2\n        /* \"#utility.yul\":24879:24899   */\n      sub\n        /* \"#utility.yul\":24875:24876   */\n      0x00\n        /* \"#utility.yul\":24864:24873   */\n      dup4\n        /* \"#utility.yul\":24860:24877   */\n      add\n        /* \"#utility.yul\":24853:24900   */\n      mstore\n        /* \"#utility.yul\":24917:25048   */\n      tag_431\n        /* \"#utility.yul\":25043:25047   */\n      dup2\n        /* \"#utility.yul\":24917:25048   */\n      tag_235\n      jump\t// in\n    tag_431:\n        /* \"#utility.yul\":24909:25048   */\n      swap1\n      pop\n        /* \"#utility.yul\":24636:25055   */\n      swap2\n      swap1\n      pop\n      jump\t// out\n        /* \"#utility.yul\":25061:25288   */\n    tag_236:\n        /* \"#utility.yul\":25201:25235   */\n      0x4572726f722c206e6f20657320656c20707265737461746172696f2064656c20\n        /* \"#utility.yul\":25197:25198   */\n      0x00\n        /* \"#utility.yul\":25189:25195   */\n      dup3\n        /* \"#utility.yul\":25185:25199   */\n      add\n        /* \"#utility.yul\":25178:25236   */\n      mstore\n        /* \"#utility.yul\":25270:25280   */\n      0x7072657374616d6f000000000000000000000000000000000000000000000000\n        /* \"#utility.yul\":25265:25267   */\n      0x20\n        /* \"#utility.yul\":25257:25263   */\n      dup3\n        /* \"#utility.yul\":25253:25268   */\n      add\n        /* \"#utility.yul\":25246:25281   */\n      mstore\n        /* \"#utility.yul\":25061:25288   */\n      pop\n      jump\t// out\n        /* \"#utility.yul\":25294:25660   */\n    tag_237:\n        /* \"#utility.yul\":25436:25439   */\n      0x00\n        /* \"#utility.yul\":25457:25524   */\n      tag_434\n        /* \"#utility.yul\":25521:25523   */\n      0x28\n        /* \"#utility.yul\":25516:25519   */\n      dup4\n        /* \"#utility.yul\":25457:25524   */\n      tag_204\n      jump\t// in\n    tag_434:\n        /* \"#utility.yul\":25450:25524   */\n      swap2\n      pop\n        /* \"#utility.yul\":25533:25626   */\n      tag_435\n        /* \"#utility.yul\":25622:25625   */\n      dup3\n        /* \"#utility.yul\":25533:25626   */\n      tag_236\n      jump\t// in\n    tag_435:\n        /* \"#utility.yul\":25651:25653   */\n      0x40\n        /* \"#utility.yul\":25646:25649   */\n      dup3\n        /* \"#utility.yul\":25642:25654   */\n      add\n        /* \"#utility.yul\":25635:25654   */\n      swap1\n      pop\n        /* \"#utility.yul\":25294:25660   */\n      swap2\n      swap1\n      pop\n      jump\t// out\n        /* \"#utility.yul\":25666:26085   */\n    tag_164:\n        /* \"#utility.yul\":25832:25836   */\n      0x00\n        /* \"#utility.yul\":25870:25872   */\n      0x20\n        /* \"#utility.yul\":25859:25868   */\n      dup3\n        /* \"#utility.yul\":25855:25873   */\n      add\n        /* \"#utility.yul\":25847:25873   */\n      swap1\n      pop\n        /* \"#utility.yul\":25919:25928   */\n      dup2\n        /* \"#utility.yul\":25913:25917   */\n      dup2\n        /* \"#utility.yul\":25909:25929   */\n      sub\n        /* \"#utility.yul\":25905:25906   */\n      0x00\n        /* \"#utility.yul\":25894:25903   */\n      dup4\n        /* \"#utility.yul\":25890:25907   */\n      add\n        /* \"#utility.yul\":25883:25930   */\n      mstore\n        /* \"#utility.yul\":25947:26078   */\n      tag_437\n        /* \"#utility.yul\":26073:26077   */\n      dup2\n        /* \"#utility.yul\":25947:26078   */\n      tag_237\n      jump\t// in\n    tag_437:\n        /* \"#utility.yul\":25939:26078   */\n      swap1\n      pop\n        /* \"#utility.yul\":25666:26085   */\n      swap2\n      swap1\n      pop\n      jump\t// out\n        /* \"#utility.yul\":26091:26315   */\n    tag_238:\n        /* \"#utility.yul\":26231:26265   */\n      0x4572726f722c2073652068612070617361646f20656c207469656d706f206465\n        /* \"#utility.yul\":26227:26228   */\n      0x00\n        /* \"#utility.yul\":26219:26225   */\n      dup3\n        /* \"#utility.yul\":26215:26229   */\n      add\n        /* \"#utility.yul\":26208:26266   */\n      mstore\n        /* \"#utility.yul\":26300:26307   */\n      0x207061676f000000000000000000000000000000000000000000000000000000\n        /* \"#utility.yul\":26295:26297   */\n      0x20\n        /* \"#utility.yul\":26287:26293   */\n      dup3\n        /* \"#utility.yul\":26283:26298   */\n      add\n        /* \"#utility.yul\":26276:26308   */\n      mstore\n        /* \"#utility.yul\":26091:26315   */\n      pop\n      jump\t// out\n        /* \"#utility.yul\":26321:26687   */\n    tag_239:\n        /* \"#utility.yul\":26463:26466   */\n      0x00\n        /* \"#utility.yul\":26484:26551   */\n      tag_440\n        /* \"#utility.yul\":26548:26550   */\n      0x25\n        /* \"#utility.yul\":26543:26546   */\n      dup4\n        /* \"#utility.yul\":26484:26551   */\n      tag_204\n      jump\t// in\n    tag_440:\n        /* \"#utility.yul\":26477:26551   */\n      swap2\n      pop\n        /* \"#utility.yul\":26560:26653   */\n      tag_441\n        /* \"#utility.yul\":26649:26652   */\n      dup3\n        /* \"#utility.yul\":26560:26653   */\n      tag_238\n      jump\t// in\n    tag_441:\n        /* \"#utility.yul\":26678:26680   */\n      0x40\n        /* \"#utility.yul\":26673:26676   */\n      dup3\n        /* \"#utility.yul\":26669:26681   */\n      add\n        /* \"#utility.yul\":26662:26681   */\n      swap1\n      pop\n        /* \"#utility.yul\":26321:26687   */\n      swap2\n      swap1\n      pop\n      jump\t// out\n        /* \"#utility.yul\":26693:27112   */\n    tag_173:\n        /* \"#utility.yul\":26859:26863   */\n      0x00\n        /* \"#utility.yul\":26897:26899   */\n      0x20\n        /* \"#utility.yul\":26886:26895   */\n      dup3\n        /* \"#utility.yul\":26882:26900   */\n      add\n        /* \"#utility.yul\":26874:26900   */\n      swap1\n      pop\n        /* \"#utility.yul\":26946:26955   */\n      dup2\n        /* \"#utility.yul\":26940:26944   */\n      dup2\n        /* \"#utility.yul\":26936:26956   */\n      sub\n        /* \"#utility.yul\":26932:26933   */\n      0x00\n        /* \"#utility.yul\":26921:26930   */\n      dup4\n        /* \"#utility.yul\":26917:26934   */\n      add\n        /* \"#utility.yul\":26910:26957   */\n      mstore\n        /* \"#utility.yul\":26974:27105   */\n      tag_443\n        /* \"#utility.yul\":27100:27104   */\n      dup2\n        /* \"#utility.yul\":26974:27105   */\n      tag_239\n      jump\t// in\n    tag_443:\n        /* \"#utility.yul\":26966:27105   */\n      swap1\n      pop\n        /* \"#utility.yul\":26693:27112   */\n      swap2\n      swap1\n      pop\n      jump\t// out\n\n    auxdata: 0xa264697066735822122044bb0bd09b698f869ae71ac160065dad2ac2eea216fc87670dec244e34c2111964736f6c63430008130033\n}\n",
				"bytecode": {
					"linkReferences": {},
					"object": "608060405234801561001057600080fd5b50336000806101000a81548173ffffffffffffffffffffffffffffffffffffffff021916908373ffffffffffffffffffffffffffffffffffffffff1602179055506001600260008060009054906101000a900473ffffffffffffffffffffffffffffffffffffffff1673ffffffffffffffffffffffffffffffffffffffff1673ffffffffffffffffffffffffffffffffffffffff16815260200190815260200160002060006101000a81548160ff0219169083151502179055506124ef806100d96000396000f3fe6080604052600436106100a75760003560e01c80638b08de28116100645780638b08de28146101e1578063c1e833361461020a578063c2b1246114610233578063cb4e6b6614610270578063dea42370146102ad578063f56f47a8146102d6576100a7565b8063118557e0146100ac5780631b2be6e0146100d55780633f88161114610112578063425743bc1461013d578063426cb8e91461016657806374b23349146101a3575b600080fd5b3480156100b857600080fd5b506100d360048036038101906100ce919061174a565b6102e0565b005b3480156100e157600080fd5b506100fc60048036038101906100f7919061178a565b61065f565b60405161010991906117d9565b60405180910390f35b34801561011e57600080fd5b506101276109b4565b6040516101349190611803565b60405180910390f35b34801561014957600080fd5b50610164600480360381019061015f919061181e565b6109d8565b005b34801561017257600080fd5b5061018d6004803603810190610188919061174a565b610b69565b60405161019a919061193b565b60405180910390f35b3480156101af57600080fd5b506101ca60048036038101906101c5919061181e565b610cb1565b6040516101d8929190611966565b60405180910390f35b3480156101ed57600080fd5b506102086004803603810190610203919061174a565b610ce2565b005b34801561021657600080fd5b50610231600480360381019061022c919061181e565b610faa565b005b34801561023f57600080fd5b5061025a6004803603810190610255919061181e565b611120565b604051610267919061198f565b60405180910390f35b34801561027c57600080fd5b506102976004803603810190610292919061181e565b611140565b6040516102a49190611a59565b60405180910390f35b3480156102b957600080fd5b506102d460048036038101906102cf9190611a7b565b6111da565b005b6102de6115ee565b005b60011515600260003373ffffffffffffffffffffffffffffffffffffffff1673ffffffffffffffffffffffffffffffffffffffff16815260200190815260200160002060009054906101000a900460ff16151514610373576040517f08c379a000000000000000000000000000000000000000000000000000000000815260040161036a90611b05565b60405180910390fd5b6000600160008473ffffffffffffffffffffffffffffffffffffffff1673ffffffffffffffffffffffffffffffffffffffff16815260200190815260200160002090506000821180156103cd575080600301805490508211155b61040c576040517f08c379a000000000000000000000000000000000000000000000000000000000815260040161040390611b71565b60405180910390fd5b600081600201600084815260200190815260200160002090508060060160009054906101000a900460ff16610476576040517f08c379a000000000000000000000000000000000000000000000000000000000815260040161046d90611c03565b60405180910390fd5b8060060160019054906101000a900460ff16156104c8576040517f08c379a00000000000000000000000000000000000000000000000000000000081526004016104bf90611c95565b60405180910390fd5b8060060160029054906101000a900460ff161561051a576040517f08c379a000000000000000000000000000000000000000000000000000000000815260040161051190611d27565b60405180910390fd5b80600501544211610560576040517f08c379a000000000000000000000000000000000000000000000000000000000815260040161055790611db9565b60405180910390fd5b60008054906101000a900473ffffffffffffffffffffffffffffffffffffffff1673ffffffffffffffffffffffffffffffffffffffff166108fc82600201549081150290604051600060405180830381858888f193505050501580156105ca573d6000803e3d6000fd5b5060018160060160026101000a81548160ff02191690831515021790555080600201548260010160008282546106009190611e08565b925050819055508373ffffffffffffffffffffffffffffffffffffffff167f20a0b1dc781935ba0bbb6a4cd56d8d1fa7c8c14de23b10f7e34ec35bf57856f4826002015460405161065191906117d9565b60405180910390a250505050565b600060011515600160003373ffffffffffffffffffffffffffffffffffffffff1673ffffffffffffffffffffffffffffffffffffffff16815260200190815260200160002060000160009054906101000a900460ff161515146106f7576040517f08c379a00000000000000000000000000000000000000000000000000000000081526004016106ee90611eae565b60405180910390fd5b82600160003373ffffffffffffffffffffffffffffffffffffffff1673ffffffffffffffffffffffffffffffffffffffff16815260200190815260200160002060010154101561077c576040517f08c379a000000000000000000000000000000000000000000000000000000000815260040161077390611f40565b60405180910390fd5b600060018060003373ffffffffffffffffffffffffffffffffffffffff1673ffffffffffffffffffffffffffffffffffffffff168152602001908152602001600020600301805490506107cf9190611f60565b90506000600160003373ffffffffffffffffffffffffffffffffffffffff1673ffffffffffffffffffffffffffffffffffffffff16815260200190815260200160002060020160008381526020019081526020016000209050818160000181905550338160010160006101000a81548173ffffffffffffffffffffffffffffffffffffffff021916908373ffffffffffffffffffffffffffffffffffffffff1602179055508481600201819055508381600301819055504281600401819055506000816005018190555060008160060160006101000a81548160ff02191690831515021790555060008160060160016101000a81548160ff02191690831515021790555060008160060160026101000a81548160ff021916908315150217905550600160003373ffffffffffffffffffffffffffffffffffffffff1673ffffffffffffffffffffffffffffffffffffffff1681526020019081526020016000206003018290806001815401808255809150506001900390600052602060002001600090919091909150553373ffffffffffffffffffffffffffffffffffffffff167f0d7150be5d539fdc82775ebdc49a82680eda44d3b26a2c76f5d6178c68912d1d86866040516109a1929190611f94565b60405180910390a2819250505092915050565b60008054906101000a900473ffffffffffffffffffffffffffffffffffffffff1681565b60011515600260003373ffffffffffffffffffffffffffffffffffffffff1673ffffffffffffffffffffffffffffffffffffffff16815260200190815260200160002060009054906101000a900460ff16151514610a6b576040517f08c379a0000000000000000000000000000000000000000000000000000000008152600401610a6290611b05565b60405180910390fd5b600160008273ffffffffffffffffffffffffffffffffffffffff1673ffffffffffffffffffffffffffffffffffffffff16815260200190815260200160002060000160009054906101000a900460ff1615610afb576040517f08c379a0000000000000000000000000000000000000000000000000000000008152600401610af29061202f565b60405180910390fd5b6000600160008373ffffffffffffffffffffffffffffffffffffffff1673ffffffffffffffffffffffffffffffffffffffff16815260200190815260200160002090506000816001018190555060018160000160006101000a81548160ff0219169083151502179055505050565b610b71611649565b600160008473ffffffffffffffffffffffffffffffffffffffff1673ffffffffffffffffffffffffffffffffffffffff168152602001908152602001600020600201600083815260200190815260200160002060405180610120016040529081600082015481526020016001820160009054906101000a900473ffffffffffffffffffffffffffffffffffffffff1673ffffffffffffffffffffffffffffffffffffffff1673ffffffffffffffffffffffffffffffffffffffff168152602001600282015481526020016003820154815260200160048201548152602001600582015481526020016006820160009054906101000a900460ff161515151581526020016006820160019054906101000a900460ff161515151581526020016006820160029054906101000a900460ff161515151581525050905092915050565b60016020528060005260406000206000915090508060000160009054906101000a900460ff16908060010154905082565b60011515600260003373ffffffffffffffffffffffffffffffffffffffff1673ffffffffffffffffffffffffffffffffffffffff16815260200190815260200160002060009054906101000a900460ff16151514610d75576040517f08c379a0000000000000000000000000000000000000000000000000000000008152600401610d6c90611b05565b60405180910390fd5b6000600160008473ffffffffffffffffffffffffffffffffffffffff1673ffffffffffffffffffffffffffffffffffffffff1681526020019081526020016000209050600082118015610dcf575080600301805490508211155b610e0e576040517f08c379a0000000000000000000000000000000000000000000000000000000008152600401610e059061209b565b60405180910390fd5b600081600201600084815260200190815260200160002090508060060160009054906101000a900460ff1615610e79576040517f08c379a0000000000000000000000000000000000000000000000000000000008152600401610e7090612107565b60405180910390fd5b8060060160019054906101000a900460ff1615610ecb576040517f08c379a0000000000000000000000000000000000000000000000000000000008152600401610ec290612199565b60405180910390fd5b8060060160029054906101000a900460ff1615610f1d576040517f08c379a0000000000000000000000000000000000000000000000000000000008152600401610f149061222b565b60405180910390fd5b60018160060160006101000a81548160ff021916908315150217905550806003015442610f4a9190611f60565b81600501819055508373ffffffffffffffffffffffffffffffffffffffff167ffc7f7d02b43a7ebb089464354517c20bfb1c1254771258518fa1bd121e3d309a8260020154604051610f9c91906117d9565b60405180910390a250505050565b60008054906101000a900473ffffffffffffffffffffffffffffffffffffffff1673ffffffffffffffffffffffffffffffffffffffff163373ffffffffffffffffffffffffffffffffffffffff1614611038576040517f08c379a000000000000000000000000000000000000000000000000000000000815260040161102f906122e3565b60405180910390fd5b600260008273ffffffffffffffffffffffffffffffffffffffff1673ffffffffffffffffffffffffffffffffffffffff16815260200190815260200160002060009054906101000a900460ff16156110c5576040517f08c379a00000000000000000000000000000000000000000000000000000000081526004016110bc90612375565b60405180910390fd5b6001600260008373ffffffffffffffffffffffffffffffffffffffff1673ffffffffffffffffffffffffffffffffffffffff16815260200190815260200160002060006101000a81548160ff02191690831515021790555050565b60026020528060005260406000206000915054906101000a900460ff1681565b6060600160008373ffffffffffffffffffffffffffffffffffffffff1673ffffffffffffffffffffffffffffffffffffffff1681526020019081526020016000206003018054806020026020016040519081016040528092919081815260200182805480156111ce57602002820191906000526020600020905b8154815260200190600101908083116111ba575b50505050509050919050565b60011515600160003373ffffffffffffffffffffffffffffffffffffffff1673ffffffffffffffffffffffffffffffffffffffff16815260200190815260200160002060000160009054906101000a900460ff16151514611270576040517f08c379a000000000000000000000000000000000000000000000000000000000815260040161126790611eae565b60405180910390fd5b6000600160003373ffffffffffffffffffffffffffffffffffffffff1673ffffffffffffffffffffffffffffffffffffffff16815260200190815260200160002090506000821180156112ca575080600301805490508211155b611309576040517f08c379a000000000000000000000000000000000000000000000000000000000815260040161130090611b71565b60405180910390fd5b600081600201600084815260200190815260200160002090508060010160009054906101000a900473ffffffffffffffffffffffffffffffffffffffff1673ffffffffffffffffffffffffffffffffffffffff163373ffffffffffffffffffffffffffffffffffffffff16146113b4576040517f08c379a00000000000000000000000000000000000000000000000000000000081526004016113ab90612407565b60405180910390fd5b8060060160009054906101000a900460ff16611405576040517f08c379a00000000000000000000000000000000000000000000000000000000081526004016113fc90611c03565b60405180910390fd5b8060060160019054906101000a900460ff1615611457576040517f08c379a000000000000000000000000000000000000000000000000000000000815260040161144e90611c95565b60405180910390fd5b8060060160029054906101000a900460ff16156114a9576040517f08c379a00000000000000000000000000000000000000000000000000000000081526004016114a090611d27565b60405180910390fd5b80600501544211156114f0576040517f08c379a00000000000000000000000000000000000000000000000000000000081526004016114e790612499565b60405180910390fd5b60008054906101000a900473ffffffffffffffffffffffffffffffffffffffff1673ffffffffffffffffffffffffffffffffffffffff166108fc82600201549081150290604051600060405180830381858888f1935050505015801561155a573d6000803e3d6000fd5b5060018160060160016101000a81548160ff02191690831515021790555080600201548260010160008282546115909190611e08565b925050819055503373ffffffffffffffffffffffffffffffffffffffff167fcafe7262442382b92dbcf9d83f09d266be4eb5af9cf783bc0a28eab4015defd882600201546040516115e191906117d9565b60405180910390a2505050565b34600160003373ffffffffffffffffffffffffffffffffffffffff1673ffffffffffffffffffffffffffffffffffffffff16815260200190815260200160002060010160008282546116409190611f60565b92505081905550565b60405180610120016040528060008152602001600073ffffffffffffffffffffffffffffffffffffffff168152602001600081526020016000815260200160008152602001600081526020016000151581526020016000151581526020016000151581525090565b600080fd5b600073ffffffffffffffffffffffffffffffffffffffff82169050919050565b60006116e1826116b6565b9050919050565b6116f1816116d6565b81146116fc57600080fd5b50565b60008135905061170e816116e8565b92915050565b6000819050919050565b61172781611714565b811461173257600080fd5b50565b6000813590506117448161171e565b92915050565b60008060408385031215611761576117606116b1565b5b600061176f858286016116ff565b925050602061178085828601611735565b9150509250929050565b600080604083850312156117a1576117a06116b1565b5b60006117af85828601611735565b92505060206117c085828601611735565b9150509250929050565b6117d381611714565b82525050565b60006020820190506117ee60008301846117ca565b92915050565b6117fd816116d6565b82525050565b600060208201905061181860008301846117f4565b92915050565b600060208284031215611834576118336116b1565b5b6000611842848285016116ff565b91505092915050565b61185481611714565b82525050565b611863816116d6565b82525050565b60008115159050919050565b61187e81611869565b82525050565b6101208201600082015161189b600085018261184b565b5060208201516118ae602085018261185a565b5060408201516118c1604085018261184b565b5060608201516118d4606085018261184b565b5060808201516118e7608085018261184b565b5060a08201516118fa60a085018261184b565b5060c082015161190d60c0850182611875565b5060e082015161192060e0850182611875565b50610100820151611935610100850182611875565b50505050565b6000610120820190506119516000830184611884565b92915050565b61196081611869565b82525050565b600060408201905061197b6000830185611957565b61198860208301846117ca565b9392505050565b60006020820190506119a46000830184611957565b92915050565b600081519050919050565b600082825260208201905092915050565b6000819050602082019050919050565b60006119e2838361184b565b60208301905092915050565b6000602082019050919050565b6000611a06826119aa565b611a1081856119b5565b9350611a1b836119c6565b8060005b83811015611a4c578151611a3388826119d6565b9750611a3e836119ee565b925050600181019050611a1f565b5085935050505092915050565b60006020820190508181036000830152611a7381846119fb565b905092915050565b600060208284031215611a9157611a906116b1565b5b6000611a9f84828501611735565b91505092915050565b600082825260208201905092915050565b7f4572726f722c206e6f206573746173206461646f20646520616c746100000000600082015250565b6000611aef601c83611aa8565b9150611afa82611ab9565b602082019050919050565b60006020820190508181036000830152611b1e81611ae2565b9050919050565b7f4572726f722c206c61204944206e6f2065732076616c69646f00000000000000600082015250565b6000611b5b601983611aa8565b9150611b6682611b25565b602082019050919050565b60006020820190508181036000830152611b8a81611b4e565b9050919050565b7f4572726f722c20656c207072657374616d6f206e6f2065737461206170726f6260008201527f61646f0000000000000000000000000000000000000000000000000000000000602082015250565b6000611bed602383611aa8565b9150611bf882611b91565b604082019050919050565b60006020820190508181036000830152611c1c81611be0565b9050919050565b7f4572726f722c20656c207072657374616d6f2065737461207265656d626f6c7360008201527f61646f0000000000000000000000000000000000000000000000000000000000602082015250565b6000611c7f602383611aa8565b9150611c8a82611c23565b604082019050919050565b60006020820190508181036000830152611cae81611c72565b9050919050565b7f4572726f722c20656c207072657374616d6f2065737461206c6971756964616460008201527f6f00000000000000000000000000000000000000000000000000000000000000602082015250565b6000611d11602183611aa8565b9150611d1c82611cb5565b604082019050919050565b60006020820190508181036000830152611d4081611d04565b9050919050565b7f4572726f722c206e6f2073652068612070617361646f20656c207469656d706f60008201527f206465207061676f000000000000000000000000000000000000000000000000602082015250565b6000611da3602883611aa8565b9150611dae82611d47565b604082019050919050565b60006020820190508181036000830152611dd281611d96565b9050919050565b7f4e487b7100000000000000000000000000000000000000000000000000000000600052601160045260246000fd5b6000611e1382611714565b9150611e1e83611714565b9250828203905081811115611e3657611e35611dd9565b5b92915050565b7f4572726f722c20656c20636c69656e7465206e6f20657374612072656769737460008201527f7261646f00000000000000000000000000000000000000000000000000000000602082015250565b6000611e98602483611aa8565b9150611ea382611e3c565b604082019050919050565b60006020820190508181036000830152611ec781611e8b565b9050919050565b7f4572726f722c206e6f207469656e6520737566696369656e74652073616c646f60008201527f20646520676172616e7469610000000000000000000000000000000000000000602082015250565b6000611f2a602c83611aa8565b9150611f3582611ece565b604082019050919050565b60006020820190508181036000830152611f5981611f1d565b9050919050565b6000611f6b82611714565b9150611f7683611714565b9250828201905080821115611f8e57611f8d611dd9565b5b92915050565b6000604082019050611fa960008301856117ca565b611fb660208301846117ca565b9392505050565b7f4572726f722c20656c20636c69656e746520796120657374616261206461646f60008201527f20646520616c7461000000000000000000000000000000000000000000000000602082015250565b6000612019602883611aa8565b915061202482611fbd565b604082019050919050565b600060208201905081810360008301526120488161200c565b9050919050565b7f4572726f722c206c61204944206e6f2065732076616c69646100000000000000600082015250565b6000612085601983611aa8565b91506120908261204f565b602082019050919050565b600060208201905081810360008301526120b481612078565b9050919050565b7f4572726f722c20656c207072657374616d6f2065737461206170726f6261646f600082015250565b60006120f1602083611aa8565b91506120fc826120bb565b602082019050919050565b60006020820190508181036000830152612120816120e4565b9050919050565b7f4572726f722c20656c207072657374616d6f206861207369646f207265656d6260008201527f6f6c7361646f0000000000000000000000000000000000000000000000000000602082015250565b6000612183602683611aa8565b915061218e82612127565b604082019050919050565b600060208201905081810360008301526121b281612176565b9050919050565b7f4572726f722c20656c207072657374616d6f206861207369646f206c6971756960008201527f6461646f00000000000000000000000000000000000000000000000000000000602082015250565b6000612215602483611aa8565b9150612220826121b9565b604082019050919050565b6000602082019050818103600083015261224481612208565b9050919050565b7f4572726f722c206e6f207075646573207265616c697a6172206573746120616360008201527f63696f6e20706f7220717565206e6f206572657320656c20736f63696f20707260208201527f6f6e636970616c00000000000000000000000000000000000000000000000000604082015250565b60006122cd604783611aa8565b91506122d88261224b565b606082019050919050565b600060208201905081810360008301526122fc816122c0565b9050919050565b7f4572726f7220656c2070726574616d697374612079612065737461206461646f60008201527f20646520616c7461000000000000000000000000000000000000000000000000602082015250565b600061235f602883611aa8565b915061236a82612303565b604082019050919050565b6000602082019050818103600083015261238e81612352565b9050919050565b7f4572726f722c206e6f20657320656c20707265737461746172696f2064656c2060008201527f7072657374616d6f000000000000000000000000000000000000000000000000602082015250565b60006123f1602883611aa8565b91506123fc82612395565b604082019050919050565b60006020820190508181036000830152612420816123e4565b9050919050565b7f4572726f722c2073652068612070617361646f20656c207469656d706f20646560008201527f207061676f000000000000000000000000000000000000000000000000000000602082015250565b6000612483602583611aa8565b915061248e82612427565b604082019050919050565b600060208201905081810360008301526124b281612476565b905091905056fea264697066735822122044bb0bd09b698f869ae71ac160065dad2ac2eea216fc87670dec244e34c2111964736f6c63430008130033",
					"opcodes": "PUSH1 0x80 PUSH1 0x40 MSTORE CALLVALUE DUP1 ISZERO PUSH2 0x10 JUMPI PUSH1 0x0 DUP1 REVERT JUMPDEST POP CALLER PUSH1 0x0 DUP1 PUSH2 0x100 EXP DUP2 SLOAD DUP2 PUSH20 0xFFFFFFFFFFFFFFFFFFFFFFFFFFFFFFFFFFFFFFFF MUL NOT AND SWAP1 DUP4 PUSH20 0xFFFFFFFFFFFFFFFFFFFFFFFFFFFFFFFFFFFFFFFF AND MUL OR SWAP1 SSTORE POP PUSH1 0x1 PUSH1 0x2 PUSH1 0x0 DUP1 PUSH1 0x0 SWAP1 SLOAD SWAP1 PUSH2 0x100 EXP SWAP1 DIV PUSH20 0xFFFFFFFFFFFFFFFFFFFFFFFFFFFFFFFFFFFFFFFF AND PUSH20 0xFFFFFFFFFFFFFFFFFFFFFFFFFFFFFFFFFFFFFFFF AND PUSH20 0xFFFFFFFFFFFFFFFFFFFFFFFFFFFFFFFFFFFFFFFF AND DUP2 MSTORE PUSH1 0x20 ADD SWAP1 DUP2 MSTORE PUSH1 0x20 ADD PUSH1 0x0 KECCAK256 PUSH1 0x0 PUSH2 0x100 EXP DUP2 SLOAD DUP2 PUSH1 0xFF MUL NOT AND SWAP1 DUP4 ISZERO ISZERO MUL OR SWAP1 SSTORE POP PUSH2 0x24EF DUP1 PUSH2 0xD9 PUSH1 0x0 CODECOPY PUSH1 0x0 RETURN INVALID PUSH1 0x80 PUSH1 0x40 MSTORE PUSH1 0x4 CALLDATASIZE LT PUSH2 0xA7 JUMPI PUSH1 0x0 CALLDATALOAD PUSH1 0xE0 SHR DUP1 PUSH4 0x8B08DE28 GT PUSH2 0x64 JUMPI DUP1 PUSH4 0x8B08DE28 EQ PUSH2 0x1E1 JUMPI DUP1 PUSH4 0xC1E83336 EQ PUSH2 0x20A JUMPI DUP1 PUSH4 0xC2B12461 EQ PUSH2 0x233 JUMPI DUP1 PUSH4 0xCB4E6B66 EQ PUSH2 0x270 JUMPI DUP1 PUSH4 0xDEA42370 EQ PUSH2 0x2AD JUMPI DUP1 PUSH4 0xF56F47A8 EQ PUSH2 0x2D6 JUMPI PUSH2 0xA7 JUMP JUMPDEST DUP1 PUSH4 0x118557E0 EQ PUSH2 0xAC JUMPI DUP1 PUSH4 0x1B2BE6E0 EQ PUSH2 0xD5 JUMPI DUP1 PUSH4 0x3F881611 EQ PUSH2 0x112 JUMPI DUP1 PUSH4 0x425743BC EQ PUSH2 0x13D JUMPI DUP1 PUSH4 0x426CB8E9 EQ PUSH2 0x166 JUMPI DUP1 PUSH4 0x74B23349 EQ PUSH2 0x1A3 JUMPI JUMPDEST PUSH1 0x0 DUP1 REVERT JUMPDEST CALLVALUE DUP1 ISZERO PUSH2 0xB8 JUMPI PUSH1 0x0 DUP1 REVERT JUMPDEST POP PUSH2 0xD3 PUSH1 0x4 DUP1 CALLDATASIZE SUB DUP2 ADD SWAP1 PUSH2 0xCE SWAP2 SWAP1 PUSH2 0x174A JUMP JUMPDEST PUSH2 0x2E0 JUMP JUMPDEST STOP JUMPDEST CALLVALUE DUP1 ISZERO PUSH2 0xE1 JUMPI PUSH1 0x0 DUP1 REVERT JUMPDEST POP PUSH2 0xFC PUSH1 0x4 DUP1 CALLDATASIZE SUB DUP2 ADD SWAP1 PUSH2 0xF7 SWAP2 SWAP1 PUSH2 0x178A JUMP JUMPDEST PUSH2 0x65F JUMP JUMPDEST PUSH1 0x40 MLOAD PUSH2 0x109 SWAP2 SWAP1 PUSH2 0x17D9 JUMP JUMPDEST PUSH1 0x40 MLOAD DUP1 SWAP2 SUB SWAP1 RETURN JUMPDEST CALLVALUE DUP1 ISZERO PUSH2 0x11E JUMPI PUSH1 0x0 DUP1 REVERT JUMPDEST POP PUSH2 0x127 PUSH2 0x9B4 JUMP JUMPDEST PUSH1 0x40 MLOAD PUSH2 0x134 SWAP2 SWAP1 PUSH2 0x1803 JUMP JUMPDEST PUSH1 0x40 MLOAD DUP1 SWAP2 SUB SWAP1 RETURN JUMPDEST CALLVALUE DUP1 ISZERO PUSH2 0x149 JUMPI PUSH1 0x0 DUP1 REVERT JUMPDEST POP PUSH2 0x164 PUSH1 0x4 DUP1 CALLDATASIZE SUB DUP2 ADD SWAP1 PUSH2 0x15F SWAP2 SWAP1 PUSH2 0x181E JUMP JUMPDEST PUSH2 0x9D8 JUMP JUMPDEST STOP JUMPDEST CALLVALUE DUP1 ISZERO PUSH2 0x172 JUMPI PUSH1 0x0 DUP1 REVERT JUMPDEST POP PUSH2 0x18D PUSH1 0x4 DUP1 CALLDATASIZE SUB DUP2 ADD SWAP1 PUSH2 0x188 SWAP2 SWAP1 PUSH2 0x174A JUMP JUMPDEST PUSH2 0xB69 JUMP JUMPDEST PUSH1 0x40 MLOAD PUSH2 0x19A SWAP2 SWAP1 PUSH2 0x193B JUMP JUMPDEST PUSH1 0x40 MLOAD DUP1 SWAP2 SUB SWAP1 RETURN JUMPDEST CALLVALUE DUP1 ISZERO PUSH2 0x1AF JUMPI PUSH1 0x0 DUP1 REVERT JUMPDEST POP PUSH2 0x1CA PUSH1 0x4 DUP1 CALLDATASIZE SUB DUP2 ADD SWAP1 PUSH2 0x1C5 SWAP2 SWAP1 PUSH2 0x181E JUMP JUMPDEST PUSH2 0xCB1 JUMP JUMPDEST PUSH1 0x40 MLOAD PUSH2 0x1D8 SWAP3 SWAP2 SWAP1 PUSH2 0x1966 JUMP JUMPDEST PUSH1 0x40 MLOAD DUP1 SWAP2 SUB SWAP1 RETURN JUMPDEST CALLVALUE DUP1 ISZERO PUSH2 0x1ED JUMPI PUSH1 0x0 DUP1 REVERT JUMPDEST POP PUSH2 0x208 PUSH1 0x4 DUP1 CALLDATASIZE SUB DUP2 ADD SWAP1 PUSH2 0x203 SWAP2 SWAP1 PUSH2 0x174A JUMP JUMPDEST PUSH2 0xCE2 JUMP JUMPDEST STOP JUMPDEST CALLVALUE DUP1 ISZERO PUSH2 0x216 JUMPI PUSH1 0x0 DUP1 REVERT JUMPDEST POP PUSH2 0x231 PUSH1 0x4 DUP1 CALLDATASIZE SUB DUP2 ADD SWAP1 PUSH2 0x22C SWAP2 SWAP1 PUSH2 0x181E JUMP JUMPDEST PUSH2 0xFAA JUMP JUMPDEST STOP JUMPDEST CALLVALUE DUP1 ISZERO PUSH2 0x23F JUMPI PUSH1 0x0 DUP1 REVERT JUMPDEST POP PUSH2 0x25A PUSH1 0x4 DUP1 CALLDATASIZE SUB DUP2 ADD SWAP1 PUSH2 0x255 SWAP2 SWAP1 PUSH2 0x181E JUMP JUMPDEST PUSH2 0x1120 JUMP JUMPDEST PUSH1 0x40 MLOAD PUSH2 0x267 SWAP2 SWAP1 PUSH2 0x198F JUMP JUMPDEST PUSH1 0x40 MLOAD DUP1 SWAP2 SUB SWAP1 RETURN JUMPDEST CALLVALUE DUP1 ISZERO PUSH2 0x27C JUMPI PUSH1 0x0 DUP1 REVERT JUMPDEST POP PUSH2 0x297 PUSH1 0x4 DUP1 CALLDATASIZE SUB DUP2 ADD SWAP1 PUSH2 0x292 SWAP2 SWAP1 PUSH2 0x181E JUMP JUMPDEST PUSH2 0x1140 JUMP JUMPDEST PUSH1 0x40 MLOAD PUSH2 0x2A4 SWAP2 SWAP1 PUSH2 0x1A59 JUMP JUMPDEST PUSH1 0x40 MLOAD DUP1 SWAP2 SUB SWAP1 RETURN JUMPDEST CALLVALUE DUP1 ISZERO PUSH2 0x2B9 JUMPI PUSH1 0x0 DUP1 REVERT JUMPDEST POP PUSH2 0x2D4 PUSH1 0x4 DUP1 CALLDATASIZE SUB DUP2 ADD SWAP1 PUSH2 0x2CF SWAP2 SWAP1 PUSH2 0x1A7B JUMP JUMPDEST PUSH2 0x11DA JUMP JUMPDEST STOP JUMPDEST PUSH2 0x2DE PUSH2 0x15EE JUMP JUMPDEST STOP JUMPDEST PUSH1 0x1 ISZERO ISZERO PUSH1 0x2 PUSH1 0x0 CALLER PUSH20 0xFFFFFFFFFFFFFFFFFFFFFFFFFFFFFFFFFFFFFFFF AND PUSH20 0xFFFFFFFFFFFFFFFFFFFFFFFFFFFFFFFFFFFFFFFF AND DUP2 MSTORE PUSH1 0x20 ADD SWAP1 DUP2 MSTORE PUSH1 0x20 ADD PUSH1 0x0 KECCAK256 PUSH1 0x0 SWAP1 SLOAD SWAP1 PUSH2 0x100 EXP SWAP1 DIV PUSH1 0xFF AND ISZERO ISZERO EQ PUSH2 0x373 JUMPI PUSH1 0x40 MLOAD PUSH32 0x8C379A000000000000000000000000000000000000000000000000000000000 DUP2 MSTORE PUSH1 0x4 ADD PUSH2 0x36A SWAP1 PUSH2 0x1B05 JUMP JUMPDEST PUSH1 0x40 MLOAD DUP1 SWAP2 SUB SWAP1 REVERT JUMPDEST PUSH1 0x0 PUSH1 0x1 PUSH1 0x0 DUP5 PUSH20 0xFFFFFFFFFFFFFFFFFFFFFFFFFFFFFFFFFFFFFFFF AND PUSH20 0xFFFFFFFFFFFFFFFFFFFFFFFFFFFFFFFFFFFFFFFF AND DUP2 MSTORE PUSH1 0x20 ADD SWAP1 DUP2 MSTORE PUSH1 0x20 ADD PUSH1 0x0 KECCAK256 SWAP1 POP PUSH1 0x0 DUP3 GT DUP1 ISZERO PUSH2 0x3CD JUMPI POP DUP1 PUSH1 0x3 ADD DUP1 SLOAD SWAP1 POP DUP3 GT ISZERO JUMPDEST PUSH2 0x40C JUMPI PUSH1 0x40 MLOAD PUSH32 0x8C379A000000000000000000000000000000000000000000000000000000000 DUP2 MSTORE PUSH1 0x4 ADD PUSH2 0x403 SWAP1 PUSH2 0x1B71 JUMP JUMPDEST PUSH1 0x40 MLOAD DUP1 SWAP2 SUB SWAP1 REVERT JUMPDEST PUSH1 0x0 DUP2 PUSH1 0x2 ADD PUSH1 0x0 DUP5 DUP2 MSTORE PUSH1 0x20 ADD SWAP1 DUP2 MSTORE PUSH1 0x20 ADD PUSH1 0x0 KECCAK256 SWAP1 POP DUP1 PUSH1 0x6 ADD PUSH1 0x0 SWAP1 SLOAD SWAP1 PUSH2 0x100 EXP SWAP1 DIV PUSH1 0xFF AND PUSH2 0x476 JUMPI PUSH1 0x40 MLOAD PUSH32 0x8C379A000000000000000000000000000000000000000000000000000000000 DUP2 MSTORE PUSH1 0x4 ADD PUSH2 0x46D SWAP1 PUSH2 0x1C03 JUMP JUMPDEST PUSH1 0x40 MLOAD DUP1 SWAP2 SUB SWAP1 REVERT JUMPDEST DUP1 PUSH1 0x6 ADD PUSH1 0x1 SWAP1 SLOAD SWAP1 PUSH2 0x100 EXP SWAP1 DIV PUSH1 0xFF AND ISZERO PUSH2 0x4C8 JUMPI PUSH1 0x40 MLOAD PUSH32 0x8C379A000000000000000000000000000000000000000000000000000000000 DUP2 MSTORE PUSH1 0x4 ADD PUSH2 0x4BF SWAP1 PUSH2 0x1C95 JUMP JUMPDEST PUSH1 0x40 MLOAD DUP1 SWAP2 SUB SWAP1 REVERT JUMPDEST DUP1 PUSH1 0x6 ADD PUSH1 0x2 SWAP1 SLOAD SWAP1 PUSH2 0x100 EXP SWAP1 DIV PUSH1 0xFF AND ISZERO PUSH2 0x51A JUMPI PUSH1 0x40 MLOAD PUSH32 0x8C379A000000000000000000000000000000000000000000000000000000000 DUP2 MSTORE PUSH1 0x4 ADD PUSH2 0x511 SWAP1 PUSH2 0x1D27 JUMP JUMPDEST PUSH1 0x40 MLOAD DUP1 SWAP2 SUB SWAP1 REVERT JUMPDEST DUP1 PUSH1 0x5 ADD SLOAD TIMESTAMP GT PUSH2 0x560 JUMPI PUSH1 0x40 MLOAD PUSH32 0x8C379A000000000000000000000000000000000000000000000000000000000 DUP2 MSTORE PUSH1 0x4 ADD PUSH2 0x557 SWAP1 PUSH2 0x1DB9 JUMP JUMPDEST PUSH1 0x40 MLOAD DUP1 SWAP2 SUB SWAP1 REVERT JUMPDEST PUSH1 0x0 DUP1 SLOAD SWAP1 PUSH2 0x100 EXP SWAP1 DIV PUSH20 0xFFFFFFFFFFFFFFFFFFFFFFFFFFFFFFFFFFFFFFFF AND PUSH20 0xFFFFFFFFFFFFFFFFFFFFFFFFFFFFFFFFFFFFFFFF AND PUSH2 0x8FC DUP3 PUSH1 0x2 ADD SLOAD SWAP1 DUP2 ISZERO MUL SWAP1 PUSH1 0x40 MLOAD PUSH1 0x0 PUSH1 0x40 MLOAD DUP1 DUP4 SUB DUP2 DUP6 DUP9 DUP9 CALL SWAP4 POP POP POP POP ISZERO DUP1 ISZERO PUSH2 0x5CA JUMPI RETURNDATASIZE PUSH1 0x0 DUP1 RETURNDATACOPY RETURNDATASIZE PUSH1 0x0 REVERT JUMPDEST POP PUSH1 0x1 DUP2 PUSH1 0x6 ADD PUSH1 0x2 PUSH2 0x100 EXP DUP2 SLOAD DUP2 PUSH1 0xFF MUL NOT AND SWAP1 DUP4 ISZERO ISZERO MUL OR SWAP1 SSTORE POP DUP1 PUSH1 0x2 ADD SLOAD DUP3 PUSH1 0x1 ADD PUSH1 0x0 DUP3 DUP3 SLOAD PUSH2 0x600 SWAP2 SWAP1 PUSH2 0x1E08 JUMP JUMPDEST SWAP3 POP POP DUP2 SWAP1 SSTORE POP DUP4 PUSH20 0xFFFFFFFFFFFFFFFFFFFFFFFFFFFFFFFFFFFFFFFF AND PUSH32 0x20A0B1DC781935BA0BBB6A4CD56D8D1FA7C8C14DE23B10F7E34EC35BF57856F4 DUP3 PUSH1 0x2 ADD SLOAD PUSH1 0x40 MLOAD PUSH2 0x651 SWAP2 SWAP1 PUSH2 0x17D9 JUMP JUMPDEST PUSH1 0x40 MLOAD DUP1 SWAP2 SUB SWAP1 LOG2 POP POP POP POP JUMP JUMPDEST PUSH1 0x0 PUSH1 0x1 ISZERO ISZERO PUSH1 0x1 PUSH1 0x0 CALLER PUSH20 0xFFFFFFFFFFFFFFFFFFFFFFFFFFFFFFFFFFFFFFFF AND PUSH20 0xFFFFFFFFFFFFFFFFFFFFFFFFFFFFFFFFFFFFFFFF AND DUP2 MSTORE PUSH1 0x20 ADD SWAP1 DUP2 MSTORE PUSH1 0x20 ADD PUSH1 0x0 KECCAK256 PUSH1 0x0 ADD PUSH1 0x0 SWAP1 SLOAD SWAP1 PUSH2 0x100 EXP SWAP1 DIV PUSH1 0xFF AND ISZERO ISZERO EQ PUSH2 0x6F7 JUMPI PUSH1 0x40 MLOAD PUSH32 0x8C379A000000000000000000000000000000000000000000000000000000000 DUP2 MSTORE PUSH1 0x4 ADD PUSH2 0x6EE SWAP1 PUSH2 0x1EAE JUMP JUMPDEST PUSH1 0x40 MLOAD DUP1 SWAP2 SUB SWAP1 REVERT JUMPDEST DUP3 PUSH1 0x1 PUSH1 0x0 CALLER PUSH20 0xFFFFFFFFFFFFFFFFFFFFFFFFFFFFFFFFFFFFFFFF AND PUSH20 0xFFFFFFFFFFFFFFFFFFFFFFFFFFFFFFFFFFFFFFFF AND DUP2 MSTORE PUSH1 0x20 ADD SWAP1 DUP2 MSTORE PUSH1 0x20 ADD PUSH1 0x0 KECCAK256 PUSH1 0x1 ADD SLOAD LT ISZERO PUSH2 0x77C JUMPI PUSH1 0x40 MLOAD PUSH32 0x8C379A000000000000000000000000000000000000000000000000000000000 DUP2 MSTORE PUSH1 0x4 ADD PUSH2 0x773 SWAP1 PUSH2 0x1F40 JUMP JUMPDEST PUSH1 0x40 MLOAD DUP1 SWAP2 SUB SWAP1 REVERT JUMPDEST PUSH1 0x0 PUSH1 0x1 DUP1 PUSH1 0x0 CALLER PUSH20 0xFFFFFFFFFFFFFFFFFFFFFFFFFFFFFFFFFFFFFFFF AND PUSH20 0xFFFFFFFFFFFFFFFFFFFFFFFFFFFFFFFFFFFFFFFF AND DUP2 MSTORE PUSH1 0x20 ADD SWAP1 DUP2 MSTORE PUSH1 0x20 ADD PUSH1 0x0 KECCAK256 PUSH1 0x3 ADD DUP1 SLOAD SWAP1 POP PUSH2 0x7CF SWAP2 SWAP1 PUSH2 0x1F60 JUMP JUMPDEST SWAP1 POP PUSH1 0x0 PUSH1 0x1 PUSH1 0x0 CALLER PUSH20 0xFFFFFFFFFFFFFFFFFFFFFFFFFFFFFFFFFFFFFFFF AND PUSH20 0xFFFFFFFFFFFFFFFFFFFFFFFFFFFFFFFFFFFFFFFF AND DUP2 MSTORE PUSH1 0x20 ADD SWAP1 DUP2 MSTORE PUSH1 0x20 ADD PUSH1 0x0 KECCAK256 PUSH1 0x2 ADD PUSH1 0x0 DUP4 DUP2 MSTORE PUSH1 0x20 ADD SWAP1 DUP2 MSTORE PUSH1 0x20 ADD PUSH1 0x0 KECCAK256 SWAP1 POP DUP2 DUP2 PUSH1 0x0 ADD DUP2 SWAP1 SSTORE POP CALLER DUP2 PUSH1 0x1 ADD PUSH1 0x0 PUSH2 0x100 EXP DUP2 SLOAD DUP2 PUSH20 0xFFFFFFFFFFFFFFFFFFFFFFFFFFFFFFFFFFFFFFFF MUL NOT AND SWAP1 DUP4 PUSH20 0xFFFFFFFFFFFFFFFFFFFFFFFFFFFFFFFFFFFFFFFF AND MUL OR SWAP1 SSTORE POP DUP5 DUP2 PUSH1 0x2 ADD DUP2 SWAP1 SSTORE POP DUP4 DUP2 PUSH1 0x3 ADD DUP2 SWAP1 SSTORE POP TIMESTAMP DUP2 PUSH1 0x4 ADD DUP2 SWAP1 SSTORE POP PUSH1 0x0 DUP2 PUSH1 0x5 ADD DUP2 SWAP1 SSTORE POP PUSH1 0x0 DUP2 PUSH1 0x6 ADD PUSH1 0x0 PUSH2 0x100 EXP DUP2 SLOAD DUP2 PUSH1 0xFF MUL NOT AND SWAP1 DUP4 ISZERO ISZERO MUL OR SWAP1 SSTORE POP PUSH1 0x0 DUP2 PUSH1 0x6 ADD PUSH1 0x1 PUSH2 0x100 EXP DUP2 SLOAD DUP2 PUSH1 0xFF MUL NOT AND SWAP1 DUP4 ISZERO ISZERO MUL OR SWAP1 SSTORE POP PUSH1 0x0 DUP2 PUSH1 0x6 ADD PUSH1 0x2 PUSH2 0x100 EXP DUP2 SLOAD DUP2 PUSH1 0xFF MUL NOT AND SWAP1 DUP4 ISZERO ISZERO MUL OR SWAP1 SSTORE POP PUSH1 0x1 PUSH1 0x0 CALLER PUSH20 0xFFFFFFFFFFFFFFFFFFFFFFFFFFFFFFFFFFFFFFFF AND PUSH20 0xFFFFFFFFFFFFFFFFFFFFFFFFFFFFFFFFFFFFFFFF AND DUP2 MSTORE PUSH1 0x20 ADD SWAP1 DUP2 MSTORE PUSH1 0x20 ADD PUSH1 0x0 KECCAK256 PUSH1 0x3 ADD DUP3 SWAP1 DUP1 PUSH1 0x1 DUP2 SLOAD ADD DUP1 DUP3 SSTORE DUP1 SWAP2 POP POP PUSH1 0x1 SWAP1 SUB SWAP1 PUSH1 0x0 MSTORE PUSH1 0x20 PUSH1 0x0 KECCAK256 ADD PUSH1 0x0 SWAP1 SWAP2 SWAP1 SWAP2 SWAP1 SWAP2 POP SSTORE CALLER PUSH20 0xFFFFFFFFFFFFFFFFFFFFFFFFFFFFFFFFFFFFFFFF AND PUSH32 0xD7150BE5D539FDC82775EBDC49A82680EDA44D3B26A2C76F5D6178C68912D1D DUP7 DUP7 PUSH1 0x40 MLOAD PUSH2 0x9A1 SWAP3 SWAP2 SWAP1 PUSH2 0x1F94 JUMP JUMPDEST PUSH1 0x40 MLOAD DUP1 SWAP2 SUB SWAP1 LOG2 DUP2 SWAP3 POP POP POP SWAP3 SWAP2 POP POP JUMP JUMPDEST PUSH1 0x0 DUP1 SLOAD SWAP1 PUSH2 0x100 EXP SWAP1 DIV PUSH20 0xFFFFFFFFFFFFFFFFFFFFFFFFFFFFFFFFFFFFFFFF AND DUP2 JUMP JUMPDEST PUSH1 0x1 ISZERO ISZERO PUSH1 0x2 PUSH1 0x0 CALLER PUSH20 0xFFFFFFFFFFFFFFFFFFFFFFFFFFFFFFFFFFFFFFFF AND PUSH20 0xFFFFFFFFFFFFFFFFFFFFFFFFFFFFFFFFFFFFFFFF AND DUP2 MSTORE PUSH1 0x20 ADD SWAP1 DUP2 MSTORE PUSH1 0x20 ADD PUSH1 0x0 KECCAK256 PUSH1 0x0 SWAP1 SLOAD SWAP1 PUSH2 0x100 EXP SWAP1 DIV PUSH1 0xFF AND ISZERO ISZERO EQ PUSH2 0xA6B JUMPI PUSH1 0x40 MLOAD PUSH32 0x8C379A000000000000000000000000000000000000000000000000000000000 DUP2 MSTORE PUSH1 0x4 ADD PUSH2 0xA62 SWAP1 PUSH2 0x1B05 JUMP JUMPDEST PUSH1 0x40 MLOAD DUP1 SWAP2 SUB SWAP1 REVERT JUMPDEST PUSH1 0x1 PUSH1 0x0 DUP3 PUSH20 0xFFFFFFFFFFFFFFFFFFFFFFFFFFFFFFFFFFFFFFFF AND PUSH20 0xFFFFFFFFFFFFFFFFFFFFFFFFFFFFFFFFFFFFFFFF AND DUP2 MSTORE PUSH1 0x20 ADD SWAP1 DUP2 MSTORE PUSH1 0x20 ADD PUSH1 0x0 KECCAK256 PUSH1 0x0 ADD PUSH1 0x0 SWAP1 SLOAD SWAP1 PUSH2 0x100 EXP SWAP1 DIV PUSH1 0xFF AND ISZERO PUSH2 0xAFB JUMPI PUSH1 0x40 MLOAD PUSH32 0x8C379A000000000000000000000000000000000000000000000000000000000 DUP2 MSTORE PUSH1 0x4 ADD PUSH2 0xAF2 SWAP1 PUSH2 0x202F JUMP JUMPDEST PUSH1 0x40 MLOAD DUP1 SWAP2 SUB SWAP1 REVERT JUMPDEST PUSH1 0x0 PUSH1 0x1 PUSH1 0x0 DUP4 PUSH20 0xFFFFFFFFFFFFFFFFFFFFFFFFFFFFFFFFFFFFFFFF AND PUSH20 0xFFFFFFFFFFFFFFFFFFFFFFFFFFFFFFFFFFFFFFFF AND DUP2 MSTORE PUSH1 0x20 ADD SWAP1 DUP2 MSTORE PUSH1 0x20 ADD PUSH1 0x0 KECCAK256 SWAP1 POP PUSH1 0x0 DUP2 PUSH1 0x1 ADD DUP2 SWAP1 SSTORE POP PUSH1 0x1 DUP2 PUSH1 0x0 ADD PUSH1 0x0 PUSH2 0x100 EXP DUP2 SLOAD DUP2 PUSH1 0xFF MUL NOT AND SWAP1 DUP4 ISZERO ISZERO MUL OR SWAP1 SSTORE POP POP POP JUMP JUMPDEST PUSH2 0xB71 PUSH2 0x1649 JUMP JUMPDEST PUSH1 0x1 PUSH1 0x0 DUP5 PUSH20 0xFFFFFFFFFFFFFFFFFFFFFFFFFFFFFFFFFFFFFFFF AND PUSH20 0xFFFFFFFFFFFFFFFFFFFFFFFFFFFFFFFFFFFFFFFF AND DUP2 MSTORE PUSH1 0x20 ADD SWAP1 DUP2 MSTORE PUSH1 0x20 ADD PUSH1 0x0 KECCAK256 PUSH1 0x2 ADD PUSH1 0x0 DUP4 DUP2 MSTORE PUSH1 0x20 ADD SWAP1 DUP2 MSTORE PUSH1 0x20 ADD PUSH1 0x0 KECCAK256 PUSH1 0x40 MLOAD DUP1 PUSH2 0x120 ADD PUSH1 0x40 MSTORE SWAP1 DUP2 PUSH1 0x0 DUP3 ADD SLOAD DUP2 MSTORE PUSH1 0x20 ADD PUSH1 0x1 DUP3 ADD PUSH1 0x0 SWAP1 SLOAD SWAP1 PUSH2 0x100 EXP SWAP1 DIV PUSH20 0xFFFFFFFFFFFFFFFFFFFFFFFFFFFFFFFFFFFFFFFF AND PUSH20 0xFFFFFFFFFFFFFFFFFFFFFFFFFFFFFFFFFFFFFFFF AND PUSH20 0xFFFFFFFFFFFFFFFFFFFFFFFFFFFFFFFFFFFFFFFF AND DUP2 MSTORE PUSH1 0x20 ADD PUSH1 0x2 DUP3 ADD SLOAD DUP2 MSTORE PUSH1 0x20 ADD PUSH1 0x3 DUP3 ADD SLOAD DUP2 MSTORE PUSH1 0x20 ADD PUSH1 0x4 DUP3 ADD SLOAD DUP2 MSTORE PUSH1 0x20 ADD PUSH1 0x5 DUP3 ADD SLOAD DUP2 MSTORE PUSH1 0x20 ADD PUSH1 0x6 DUP3 ADD PUSH1 0x0 SWAP1 SLOAD SWAP1 PUSH2 0x100 EXP SWAP1 DIV PUSH1 0xFF AND ISZERO ISZERO ISZERO ISZERO DUP2 MSTORE PUSH1 0x20 ADD PUSH1 0x6 DUP3 ADD PUSH1 0x1 SWAP1 SLOAD SWAP1 PUSH2 0x100 EXP SWAP1 DIV PUSH1 0xFF AND ISZERO ISZERO ISZERO ISZERO DUP2 MSTORE PUSH1 0x20 ADD PUSH1 0x6 DUP3 ADD PUSH1 0x2 SWAP1 SLOAD SWAP1 PUSH2 0x100 EXP SWAP1 DIV PUSH1 0xFF AND ISZERO ISZERO ISZERO ISZERO DUP2 MSTORE POP POP SWAP1 POP SWAP3 SWAP2 POP POP JUMP JUMPDEST PUSH1 0x1 PUSH1 0x20 MSTORE DUP1 PUSH1 0x0 MSTORE PUSH1 0x40 PUSH1 0x0 KECCAK256 PUSH1 0x0 SWAP2 POP SWAP1 POP DUP1 PUSH1 0x0 ADD PUSH1 0x0 SWAP1 SLOAD SWAP1 PUSH2 0x100 EXP SWAP1 DIV PUSH1 0xFF AND SWAP1 DUP1 PUSH1 0x1 ADD SLOAD SWAP1 POP DUP3 JUMP JUMPDEST PUSH1 0x1 ISZERO ISZERO PUSH1 0x2 PUSH1 0x0 CALLER PUSH20 0xFFFFFFFFFFFFFFFFFFFFFFFFFFFFFFFFFFFFFFFF AND PUSH20 0xFFFFFFFFFFFFFFFFFFFFFFFFFFFFFFFFFFFFFFFF AND DUP2 MSTORE PUSH1 0x20 ADD SWAP1 DUP2 MSTORE PUSH1 0x20 ADD PUSH1 0x0 KECCAK256 PUSH1 0x0 SWAP1 SLOAD SWAP1 PUSH2 0x100 EXP SWAP1 DIV PUSH1 0xFF AND ISZERO ISZERO EQ PUSH2 0xD75 JUMPI PUSH1 0x40 MLOAD PUSH32 0x8C379A000000000000000000000000000000000000000000000000000000000 DUP2 MSTORE PUSH1 0x4 ADD PUSH2 0xD6C SWAP1 PUSH2 0x1B05 JUMP JUMPDEST PUSH1 0x40 MLOAD DUP1 SWAP2 SUB SWAP1 REVERT JUMPDEST PUSH1 0x0 PUSH1 0x1 PUSH1 0x0 DUP5 PUSH20 0xFFFFFFFFFFFFFFFFFFFFFFFFFFFFFFFFFFFFFFFF AND PUSH20 0xFFFFFFFFFFFFFFFFFFFFFFFFFFFFFFFFFFFFFFFF AND DUP2 MSTORE PUSH1 0x20 ADD SWAP1 DUP2 MSTORE PUSH1 0x20 ADD PUSH1 0x0 KECCAK256 SWAP1 POP PUSH1 0x0 DUP3 GT DUP1 ISZERO PUSH2 0xDCF JUMPI POP DUP1 PUSH1 0x3 ADD DUP1 SLOAD SWAP1 POP DUP3 GT ISZERO JUMPDEST PUSH2 0xE0E JUMPI PUSH1 0x40 MLOAD PUSH32 0x8C379A000000000000000000000000000000000000000000000000000000000 DUP2 MSTORE PUSH1 0x4 ADD PUSH2 0xE05 SWAP1 PUSH2 0x209B JUMP JUMPDEST PUSH1 0x40 MLOAD DUP1 SWAP2 SUB SWAP1 REVERT JUMPDEST PUSH1 0x0 DUP2 PUSH1 0x2 ADD PUSH1 0x0 DUP5 DUP2 MSTORE PUSH1 0x20 ADD SWAP1 DUP2 MSTORE PUSH1 0x20 ADD PUSH1 0x0 KECCAK256 SWAP1 POP DUP1 PUSH1 0x6 ADD PUSH1 0x0 SWAP1 SLOAD SWAP1 PUSH2 0x100 EXP SWAP1 DIV PUSH1 0xFF AND ISZERO PUSH2 0xE79 JUMPI PUSH1 0x40 MLOAD PUSH32 0x8C379A000000000000000000000000000000000000000000000000000000000 DUP2 MSTORE PUSH1 0x4 ADD PUSH2 0xE70 SWAP1 PUSH2 0x2107 JUMP JUMPDEST PUSH1 0x40 MLOAD DUP1 SWAP2 SUB SWAP1 REVERT JUMPDEST DUP1 PUSH1 0x6 ADD PUSH1 0x1 SWAP1 SLOAD SWAP1 PUSH2 0x100 EXP SWAP1 DIV PUSH1 0xFF AND ISZERO PUSH2 0xECB JUMPI PUSH1 0x40 MLOAD PUSH32 0x8C379A000000000000000000000000000000000000000000000000000000000 DUP2 MSTORE PUSH1 0x4 ADD PUSH2 0xEC2 SWAP1 PUSH2 0x2199 JUMP JUMPDEST PUSH1 0x40 MLOAD DUP1 SWAP2 SUB SWAP1 REVERT JUMPDEST DUP1 PUSH1 0x6 ADD PUSH1 0x2 SWAP1 SLOAD SWAP1 PUSH2 0x100 EXP SWAP1 DIV PUSH1 0xFF AND ISZERO PUSH2 0xF1D JUMPI PUSH1 0x40 MLOAD PUSH32 0x8C379A000000000000000000000000000000000000000000000000000000000 DUP2 MSTORE PUSH1 0x4 ADD PUSH2 0xF14 SWAP1 PUSH2 0x222B JUMP JUMPDEST PUSH1 0x40 MLOAD DUP1 SWAP2 SUB SWAP1 REVERT JUMPDEST PUSH1 0x1 DUP2 PUSH1 0x6 ADD PUSH1 0x0 PUSH2 0x100 EXP DUP2 SLOAD DUP2 PUSH1 0xFF MUL NOT AND SWAP1 DUP4 ISZERO ISZERO MUL OR SWAP1 SSTORE POP DUP1 PUSH1 0x3 ADD SLOAD TIMESTAMP PUSH2 0xF4A SWAP2 SWAP1 PUSH2 0x1F60 JUMP JUMPDEST DUP2 PUSH1 0x5 ADD DUP2 SWAP1 SSTORE POP DUP4 PUSH20 0xFFFFFFFFFFFFFFFFFFFFFFFFFFFFFFFFFFFFFFFF AND PUSH32 0xFC7F7D02B43A7EBB089464354517C20BFB1C1254771258518FA1BD121E3D309A DUP3 PUSH1 0x2 ADD SLOAD PUSH1 0x40 MLOAD PUSH2 0xF9C SWAP2 SWAP1 PUSH2 0x17D9 JUMP JUMPDEST PUSH1 0x40 MLOAD DUP1 SWAP2 SUB SWAP1 LOG2 POP POP POP POP JUMP JUMPDEST PUSH1 0x0 DUP1 SLOAD SWAP1 PUSH2 0x100 EXP SWAP1 DIV PUSH20 0xFFFFFFFFFFFFFFFFFFFFFFFFFFFFFFFFFFFFFFFF AND PUSH20 0xFFFFFFFFFFFFFFFFFFFFFFFFFFFFFFFFFFFFFFFF AND CALLER PUSH20 0xFFFFFFFFFFFFFFFFFFFFFFFFFFFFFFFFFFFFFFFF AND EQ PUSH2 0x1038 JUMPI PUSH1 0x40 MLOAD PUSH32 0x8C379A000000000000000000000000000000000000000000000000000000000 DUP2 MSTORE PUSH1 0x4 ADD PUSH2 0x102F SWAP1 PUSH2 0x22E3 JUMP JUMPDEST PUSH1 0x40 MLOAD DUP1 SWAP2 SUB SWAP1 REVERT JUMPDEST PUSH1 0x2 PUSH1 0x0 DUP3 PUSH20 0xFFFFFFFFFFFFFFFFFFFFFFFFFFFFFFFFFFFFFFFF AND PUSH20 0xFFFFFFFFFFFFFFFFFFFFFFFFFFFFFFFFFFFFFFFF AND DUP2 MSTORE PUSH1 0x20 ADD SWAP1 DUP2 MSTORE PUSH1 0x20 ADD PUSH1 0x0 KECCAK256 PUSH1 0x0 SWAP1 SLOAD SWAP1 PUSH2 0x100 EXP SWAP1 DIV PUSH1 0xFF AND ISZERO PUSH2 0x10C5 JUMPI PUSH1 0x40 MLOAD PUSH32 0x8C379A000000000000000000000000000000000000000000000000000000000 DUP2 MSTORE PUSH1 0x4 ADD PUSH2 0x10BC SWAP1 PUSH2 0x2375 JUMP JUMPDEST PUSH1 0x40 MLOAD DUP1 SWAP2 SUB SWAP1 REVERT JUMPDEST PUSH1 0x1 PUSH1 0x2 PUSH1 0x0 DUP4 PUSH20 0xFFFFFFFFFFFFFFFFFFFFFFFFFFFFFFFFFFFFFFFF AND PUSH20 0xFFFFFFFFFFFFFFFFFFFFFFFFFFFFFFFFFFFFFFFF AND DUP2 MSTORE PUSH1 0x20 ADD SWAP1 DUP2 MSTORE PUSH1 0x20 ADD PUSH1 0x0 KECCAK256 PUSH1 0x0 PUSH2 0x100 EXP DUP2 SLOAD DUP2 PUSH1 0xFF MUL NOT AND SWAP1 DUP4 ISZERO ISZERO MUL OR SWAP1 SSTORE POP POP JUMP JUMPDEST PUSH1 0x2 PUSH1 0x20 MSTORE DUP1 PUSH1 0x0 MSTORE PUSH1 0x40 PUSH1 0x0 KECCAK256 PUSH1 0x0 SWAP2 POP SLOAD SWAP1 PUSH2 0x100 EXP SWAP1 DIV PUSH1 0xFF AND DUP2 JUMP JUMPDEST PUSH1 0x60 PUSH1 0x1 PUSH1 0x0 DUP4 PUSH20 0xFFFFFFFFFFFFFFFFFFFFFFFFFFFFFFFFFFFFFFFF AND PUSH20 0xFFFFFFFFFFFFFFFFFFFFFFFFFFFFFFFFFFFFFFFF AND DUP2 MSTORE PUSH1 0x20 ADD SWAP1 DUP2 MSTORE PUSH1 0x20 ADD PUSH1 0x0 KECCAK256 PUSH1 0x3 ADD DUP1 SLOAD DUP1 PUSH1 0x20 MUL PUSH1 0x20 ADD PUSH1 0x40 MLOAD SWAP1 DUP2 ADD PUSH1 0x40 MSTORE DUP1 SWAP3 SWAP2 SWAP1 DUP2 DUP2 MSTORE PUSH1 0x20 ADD DUP3 DUP1 SLOAD DUP1 ISZERO PUSH2 0x11CE JUMPI PUSH1 0x20 MUL DUP3 ADD SWAP2 SWAP1 PUSH1 0x0 MSTORE PUSH1 0x20 PUSH1 0x0 KECCAK256 SWAP1 JUMPDEST DUP2 SLOAD DUP2 MSTORE PUSH1 0x20 ADD SWAP1 PUSH1 0x1 ADD SWAP1 DUP1 DUP4 GT PUSH2 0x11BA JUMPI JUMPDEST POP POP POP POP POP SWAP1 POP SWAP2 SWAP1 POP JUMP JUMPDEST PUSH1 0x1 ISZERO ISZERO PUSH1 0x1 PUSH1 0x0 CALLER PUSH20 0xFFFFFFFFFFFFFFFFFFFFFFFFFFFFFFFFFFFFFFFF AND PUSH20 0xFFFFFFFFFFFFFFFFFFFFFFFFFFFFFFFFFFFFFFFF AND DUP2 MSTORE PUSH1 0x20 ADD SWAP1 DUP2 MSTORE PUSH1 0x20 ADD PUSH1 0x0 KECCAK256 PUSH1 0x0 ADD PUSH1 0x0 SWAP1 SLOAD SWAP1 PUSH2 0x100 EXP SWAP1 DIV PUSH1 0xFF AND ISZERO ISZERO EQ PUSH2 0x1270 JUMPI PUSH1 0x40 MLOAD PUSH32 0x8C379A000000000000000000000000000000000000000000000000000000000 DUP2 MSTORE PUSH1 0x4 ADD PUSH2 0x1267 SWAP1 PUSH2 0x1EAE JUMP JUMPDEST PUSH1 0x40 MLOAD DUP1 SWAP2 SUB SWAP1 REVERT JUMPDEST PUSH1 0x0 PUSH1 0x1 PUSH1 0x0 CALLER PUSH20 0xFFFFFFFFFFFFFFFFFFFFFFFFFFFFFFFFFFFFFFFF AND PUSH20 0xFFFFFFFFFFFFFFFFFFFFFFFFFFFFFFFFFFFFFFFF AND DUP2 MSTORE PUSH1 0x20 ADD SWAP1 DUP2 MSTORE PUSH1 0x20 ADD PUSH1 0x0 KECCAK256 SWAP1 POP PUSH1 0x0 DUP3 GT DUP1 ISZERO PUSH2 0x12CA JUMPI POP DUP1 PUSH1 0x3 ADD DUP1 SLOAD SWAP1 POP DUP3 GT ISZERO JUMPDEST PUSH2 0x1309 JUMPI PUSH1 0x40 MLOAD PUSH32 0x8C379A000000000000000000000000000000000000000000000000000000000 DUP2 MSTORE PUSH1 0x4 ADD PUSH2 0x1300 SWAP1 PUSH2 0x1B71 JUMP JUMPDEST PUSH1 0x40 MLOAD DUP1 SWAP2 SUB SWAP1 REVERT JUMPDEST PUSH1 0x0 DUP2 PUSH1 0x2 ADD PUSH1 0x0 DUP5 DUP2 MSTORE PUSH1 0x20 ADD SWAP1 DUP2 MSTORE PUSH1 0x20 ADD PUSH1 0x0 KECCAK256 SWAP1 POP DUP1 PUSH1 0x1 ADD PUSH1 0x0 SWAP1 SLOAD SWAP1 PUSH2 0x100 EXP SWAP1 DIV PUSH20 0xFFFFFFFFFFFFFFFFFFFFFFFFFFFFFFFFFFFFFFFF AND PUSH20 0xFFFFFFFFFFFFFFFFFFFFFFFFFFFFFFFFFFFFFFFF AND CALLER PUSH20 0xFFFFFFFFFFFFFFFFFFFFFFFFFFFFFFFFFFFFFFFF AND EQ PUSH2 0x13B4 JUMPI PUSH1 0x40 MLOAD PUSH32 0x8C379A000000000000000000000000000000000000000000000000000000000 DUP2 MSTORE PUSH1 0x4 ADD PUSH2 0x13AB SWAP1 PUSH2 0x2407 JUMP JUMPDEST PUSH1 0x40 MLOAD DUP1 SWAP2 SUB SWAP1 REVERT JUMPDEST DUP1 PUSH1 0x6 ADD PUSH1 0x0 SWAP1 SLOAD SWAP1 PUSH2 0x100 EXP SWAP1 DIV PUSH1 0xFF AND PUSH2 0x1405 JUMPI PUSH1 0x40 MLOAD PUSH32 0x8C379A000000000000000000000000000000000000000000000000000000000 DUP2 MSTORE PUSH1 0x4 ADD PUSH2 0x13FC SWAP1 PUSH2 0x1C03 JUMP JUMPDEST PUSH1 0x40 MLOAD DUP1 SWAP2 SUB SWAP1 REVERT JUMPDEST DUP1 PUSH1 0x6 ADD PUSH1 0x1 SWAP1 SLOAD SWAP1 PUSH2 0x100 EXP SWAP1 DIV PUSH1 0xFF AND ISZERO PUSH2 0x1457 JUMPI PUSH1 0x40 MLOAD PUSH32 0x8C379A000000000000000000000000000000000000000000000000000000000 DUP2 MSTORE PUSH1 0x4 ADD PUSH2 0x144E SWAP1 PUSH2 0x1C95 JUMP JUMPDEST PUSH1 0x40 MLOAD DUP1 SWAP2 SUB SWAP1 REVERT JUMPDEST DUP1 PUSH1 0x6 ADD PUSH1 0x2 SWAP1 SLOAD SWAP1 PUSH2 0x100 EXP SWAP1 DIV PUSH1 0xFF AND ISZERO PUSH2 0x14A9 JUMPI PUSH1 0x40 MLOAD PUSH32 0x8C379A000000000000000000000000000000000000000000000000000000000 DUP2 MSTORE PUSH1 0x4 ADD PUSH2 0x14A0 SWAP1 PUSH2 0x1D27 JUMP JUMPDEST PUSH1 0x40 MLOAD DUP1 SWAP2 SUB SWAP1 REVERT JUMPDEST DUP1 PUSH1 0x5 ADD SLOAD TIMESTAMP GT ISZERO PUSH2 0x14F0 JUMPI PUSH1 0x40 MLOAD PUSH32 0x8C379A000000000000000000000000000000000000000000000000000000000 DUP2 MSTORE PUSH1 0x4 ADD PUSH2 0x14E7 SWAP1 PUSH2 0x2499 JUMP JUMPDEST PUSH1 0x40 MLOAD DUP1 SWAP2 SUB SWAP1 REVERT JUMPDEST PUSH1 0x0 DUP1 SLOAD SWAP1 PUSH2 0x100 EXP SWAP1 DIV PUSH20 0xFFFFFFFFFFFFFFFFFFFFFFFFFFFFFFFFFFFFFFFF AND PUSH20 0xFFFFFFFFFFFFFFFFFFFFFFFFFFFFFFFFFFFFFFFF AND PUSH2 0x8FC DUP3 PUSH1 0x2 ADD SLOAD SWAP1 DUP2 ISZERO MUL SWAP1 PUSH1 0x40 MLOAD PUSH1 0x0 PUSH1 0x40 MLOAD DUP1 DUP4 SUB DUP2 DUP6 DUP9 DUP9 CALL SWAP4 POP POP POP POP ISZERO DUP1 ISZERO PUSH2 0x155A JUMPI RETURNDATASIZE PUSH1 0x0 DUP1 RETURNDATACOPY RETURNDATASIZE PUSH1 0x0 REVERT JUMPDEST POP PUSH1 0x1 DUP2 PUSH1 0x6 ADD PUSH1 0x1 PUSH2 0x100 EXP DUP2 SLOAD DUP2 PUSH1 0xFF MUL NOT AND SWAP1 DUP4 ISZERO ISZERO MUL OR SWAP1 SSTORE POP DUP1 PUSH1 0x2 ADD SLOAD DUP3 PUSH1 0x1 ADD PUSH1 0x0 DUP3 DUP3 SLOAD PUSH2 0x1590 SWAP2 SWAP1 PUSH2 0x1E08 JUMP JUMPDEST SWAP3 POP POP DUP2 SWAP1 SSTORE POP CALLER PUSH20 0xFFFFFFFFFFFFFFFFFFFFFFFFFFFFFFFFFFFFFFFF AND PUSH32 0xCAFE7262442382B92DBCF9D83F09D266BE4EB5AF9CF783BC0A28EAB4015DEFD8 DUP3 PUSH1 0x2 ADD SLOAD PUSH1 0x40 MLOAD PUSH2 0x15E1 SWAP2 SWAP1 PUSH2 0x17D9 JUMP JUMPDEST PUSH1 0x40 MLOAD DUP1 SWAP2 SUB SWAP1 LOG2 POP POP POP JUMP JUMPDEST CALLVALUE PUSH1 0x1 PUSH1 0x0 CALLER PUSH20 0xFFFFFFFFFFFFFFFFFFFFFFFFFFFFFFFFFFFFFFFF AND PUSH20 0xFFFFFFFFFFFFFFFFFFFFFFFFFFFFFFFFFFFFFFFF AND DUP2 MSTORE PUSH1 0x20 ADD SWAP1 DUP2 MSTORE PUSH1 0x20 ADD PUSH1 0x0 KECCAK256 PUSH1 0x1 ADD PUSH1 0x0 DUP3 DUP3 SLOAD PUSH2 0x1640 SWAP2 SWAP1 PUSH2 0x1F60 JUMP JUMPDEST SWAP3 POP POP DUP2 SWAP1 SSTORE POP JUMP JUMPDEST PUSH1 0x40 MLOAD DUP1 PUSH2 0x120 ADD PUSH1 0x40 MSTORE DUP1 PUSH1 0x0 DUP2 MSTORE PUSH1 0x20 ADD PUSH1 0x0 PUSH20 0xFFFFFFFFFFFFFFFFFFFFFFFFFFFFFFFFFFFFFFFF AND DUP2 MSTORE PUSH1 0x20 ADD PUSH1 0x0 DUP2 MSTORE PUSH1 0x20 ADD PUSH1 0x0 DUP2 MSTORE PUSH1 0x20 ADD PUSH1 0x0 DUP2 MSTORE PUSH1 0x20 ADD PUSH1 0x0 DUP2 MSTORE PUSH1 0x20 ADD PUSH1 0x0 ISZERO ISZERO DUP2 MSTORE PUSH1 0x20 ADD PUSH1 0x0 ISZERO ISZERO DUP2 MSTORE PUSH1 0x20 ADD PUSH1 0x0 ISZERO ISZERO DUP2 MSTORE POP SWAP1 JUMP JUMPDEST PUSH1 0x0 DUP1 REVERT JUMPDEST PUSH1 0x0 PUSH20 0xFFFFFFFFFFFFFFFFFFFFFFFFFFFFFFFFFFFFFFFF DUP3 AND SWAP1 POP SWAP2 SWAP1 POP JUMP JUMPDEST PUSH1 0x0 PUSH2 0x16E1 DUP3 PUSH2 0x16B6 JUMP JUMPDEST SWAP1 POP SWAP2 SWAP1 POP JUMP JUMPDEST PUSH2 0x16F1 DUP2 PUSH2 0x16D6 JUMP JUMPDEST DUP2 EQ PUSH2 0x16FC JUMPI PUSH1 0x0 DUP1 REVERT JUMPDEST POP JUMP JUMPDEST PUSH1 0x0 DUP2 CALLDATALOAD SWAP1 POP PUSH2 0x170E DUP2 PUSH2 0x16E8 JUMP JUMPDEST SWAP3 SWAP2 POP POP JUMP JUMPDEST PUSH1 0x0 DUP2 SWAP1 POP SWAP2 SWAP1 POP JUMP JUMPDEST PUSH2 0x1727 DUP2 PUSH2 0x1714 JUMP JUMPDEST DUP2 EQ PUSH2 0x1732 JUMPI PUSH1 0x0 DUP1 REVERT JUMPDEST POP JUMP JUMPDEST PUSH1 0x0 DUP2 CALLDATALOAD SWAP1 POP PUSH2 0x1744 DUP2 PUSH2 0x171E JUMP JUMPDEST SWAP3 SWAP2 POP POP JUMP JUMPDEST PUSH1 0x0 DUP1 PUSH1 0x40 DUP4 DUP6 SUB SLT ISZERO PUSH2 0x1761 JUMPI PUSH2 0x1760 PUSH2 0x16B1 JUMP JUMPDEST JUMPDEST PUSH1 0x0 PUSH2 0x176F DUP6 DUP3 DUP7 ADD PUSH2 0x16FF JUMP JUMPDEST SWAP3 POP POP PUSH1 0x20 PUSH2 0x1780 DUP6 DUP3 DUP7 ADD PUSH2 0x1735 JUMP JUMPDEST SWAP2 POP POP SWAP3 POP SWAP3 SWAP1 POP JUMP JUMPDEST PUSH1 0x0 DUP1 PUSH1 0x40 DUP4 DUP6 SUB SLT ISZERO PUSH2 0x17A1 JUMPI PUSH2 0x17A0 PUSH2 0x16B1 JUMP JUMPDEST JUMPDEST PUSH1 0x0 PUSH2 0x17AF DUP6 DUP3 DUP7 ADD PUSH2 0x1735 JUMP JUMPDEST SWAP3 POP POP PUSH1 0x20 PUSH2 0x17C0 DUP6 DUP3 DUP7 ADD PUSH2 0x1735 JUMP JUMPDEST SWAP2 POP POP SWAP3 POP SWAP3 SWAP1 POP JUMP JUMPDEST PUSH2 0x17D3 DUP2 PUSH2 0x1714 JUMP JUMPDEST DUP3 MSTORE POP POP JUMP JUMPDEST PUSH1 0x0 PUSH1 0x20 DUP3 ADD SWAP1 POP PUSH2 0x17EE PUSH1 0x0 DUP4 ADD DUP5 PUSH2 0x17CA JUMP JUMPDEST SWAP3 SWAP2 POP POP JUMP JUMPDEST PUSH2 0x17FD DUP2 PUSH2 0x16D6 JUMP JUMPDEST DUP3 MSTORE POP POP JUMP JUMPDEST PUSH1 0x0 PUSH1 0x20 DUP3 ADD SWAP1 POP PUSH2 0x1818 PUSH1 0x0 DUP4 ADD DUP5 PUSH2 0x17F4 JUMP JUMPDEST SWAP3 SWAP2 POP POP JUMP JUMPDEST PUSH1 0x0 PUSH1 0x20 DUP3 DUP5 SUB SLT ISZERO PUSH2 0x1834 JUMPI PUSH2 0x1833 PUSH2 0x16B1 JUMP JUMPDEST JUMPDEST PUSH1 0x0 PUSH2 0x1842 DUP5 DUP3 DUP6 ADD PUSH2 0x16FF JUMP JUMPDEST SWAP2 POP POP SWAP3 SWAP2 POP POP JUMP JUMPDEST PUSH2 0x1854 DUP2 PUSH2 0x1714 JUMP JUMPDEST DUP3 MSTORE POP POP JUMP JUMPDEST PUSH2 0x1863 DUP2 PUSH2 0x16D6 JUMP JUMPDEST DUP3 MSTORE POP POP JUMP JUMPDEST PUSH1 0x0 DUP2 ISZERO ISZERO SWAP1 POP SWAP2 SWAP1 POP JUMP JUMPDEST PUSH2 0x187E DUP2 PUSH2 0x1869 JUMP JUMPDEST DUP3 MSTORE POP POP JUMP JUMPDEST PUSH2 0x120 DUP3 ADD PUSH1 0x0 DUP3 ADD MLOAD PUSH2 0x189B PUSH1 0x0 DUP6 ADD DUP3 PUSH2 0x184B JUMP JUMPDEST POP PUSH1 0x20 DUP3 ADD MLOAD PUSH2 0x18AE PUSH1 0x20 DUP6 ADD DUP3 PUSH2 0x185A JUMP JUMPDEST POP PUSH1 0x40 DUP3 ADD MLOAD PUSH2 0x18C1 PUSH1 0x40 DUP6 ADD DUP3 PUSH2 0x184B JUMP JUMPDEST POP PUSH1 0x60 DUP3 ADD MLOAD PUSH2 0x18D4 PUSH1 0x60 DUP6 ADD DUP3 PUSH2 0x184B JUMP JUMPDEST POP PUSH1 0x80 DUP3 ADD MLOAD PUSH2 0x18E7 PUSH1 0x80 DUP6 ADD DUP3 PUSH2 0x184B JUMP JUMPDEST POP PUSH1 0xA0 DUP3 ADD MLOAD PUSH2 0x18FA PUSH1 0xA0 DUP6 ADD DUP3 PUSH2 0x184B JUMP JUMPDEST POP PUSH1 0xC0 DUP3 ADD MLOAD PUSH2 0x190D PUSH1 0xC0 DUP6 ADD DUP3 PUSH2 0x1875 JUMP JUMPDEST POP PUSH1 0xE0 DUP3 ADD MLOAD PUSH2 0x1920 PUSH1 0xE0 DUP6 ADD DUP3 PUSH2 0x1875 JUMP JUMPDEST POP PUSH2 0x100 DUP3 ADD MLOAD PUSH2 0x1935 PUSH2 0x100 DUP6 ADD DUP3 PUSH2 0x1875 JUMP JUMPDEST POP POP POP POP JUMP JUMPDEST PUSH1 0x0 PUSH2 0x120 DUP3 ADD SWAP1 POP PUSH2 0x1951 PUSH1 0x0 DUP4 ADD DUP5 PUSH2 0x1884 JUMP JUMPDEST SWAP3 SWAP2 POP POP JUMP JUMPDEST PUSH2 0x1960 DUP2 PUSH2 0x1869 JUMP JUMPDEST DUP3 MSTORE POP POP JUMP JUMPDEST PUSH1 0x0 PUSH1 0x40 DUP3 ADD SWAP1 POP PUSH2 0x197B PUSH1 0x0 DUP4 ADD DUP6 PUSH2 0x1957 JUMP JUMPDEST PUSH2 0x1988 PUSH1 0x20 DUP4 ADD DUP5 PUSH2 0x17CA JUMP JUMPDEST SWAP4 SWAP3 POP POP POP JUMP JUMPDEST PUSH1 0x0 PUSH1 0x20 DUP3 ADD SWAP1 POP PUSH2 0x19A4 PUSH1 0x0 DUP4 ADD DUP5 PUSH2 0x1957 JUMP JUMPDEST SWAP3 SWAP2 POP POP JUMP JUMPDEST PUSH1 0x0 DUP2 MLOAD SWAP1 POP SWAP2 SWAP1 POP JUMP JUMPDEST PUSH1 0x0 DUP3 DUP3 MSTORE PUSH1 0x20 DUP3 ADD SWAP1 POP SWAP3 SWAP2 POP POP JUMP JUMPDEST PUSH1 0x0 DUP2 SWAP1 POP PUSH1 0x20 DUP3 ADD SWAP1 POP SWAP2 SWAP1 POP JUMP JUMPDEST PUSH1 0x0 PUSH2 0x19E2 DUP4 DUP4 PUSH2 0x184B JUMP JUMPDEST PUSH1 0x20 DUP4 ADD SWAP1 POP SWAP3 SWAP2 POP POP JUMP JUMPDEST PUSH1 0x0 PUSH1 0x20 DUP3 ADD SWAP1 POP SWAP2 SWAP1 POP JUMP JUMPDEST PUSH1 0x0 PUSH2 0x1A06 DUP3 PUSH2 0x19AA JUMP JUMPDEST PUSH2 0x1A10 DUP2 DUP6 PUSH2 0x19B5 JUMP JUMPDEST SWAP4 POP PUSH2 0x1A1B DUP4 PUSH2 0x19C6 JUMP JUMPDEST DUP1 PUSH1 0x0 JUMPDEST DUP4 DUP2 LT ISZERO PUSH2 0x1A4C JUMPI DUP2 MLOAD PUSH2 0x1A33 DUP9 DUP3 PUSH2 0x19D6 JUMP JUMPDEST SWAP8 POP PUSH2 0x1A3E DUP4 PUSH2 0x19EE JUMP JUMPDEST SWAP3 POP POP PUSH1 0x1 DUP2 ADD SWAP1 POP PUSH2 0x1A1F JUMP JUMPDEST POP DUP6 SWAP4 POP POP POP POP SWAP3 SWAP2 POP POP JUMP JUMPDEST PUSH1 0x0 PUSH1 0x20 DUP3 ADD SWAP1 POP DUP2 DUP2 SUB PUSH1 0x0 DUP4 ADD MSTORE PUSH2 0x1A73 DUP2 DUP5 PUSH2 0x19FB JUMP JUMPDEST SWAP1 POP SWAP3 SWAP2 POP POP JUMP JUMPDEST PUSH1 0x0 PUSH1 0x20 DUP3 DUP5 SUB SLT ISZERO PUSH2 0x1A91 JUMPI PUSH2 0x1A90 PUSH2 0x16B1 JUMP JUMPDEST JUMPDEST PUSH1 0x0 PUSH2 0x1A9F DUP5 DUP3 DUP6 ADD PUSH2 0x1735 JUMP JUMPDEST SWAP2 POP POP SWAP3 SWAP2 POP POP JUMP JUMPDEST PUSH1 0x0 DUP3 DUP3 MSTORE PUSH1 0x20 DUP3 ADD SWAP1 POP SWAP3 SWAP2 POP POP JUMP JUMPDEST PUSH32 0x4572726F722C206E6F206573746173206461646F20646520616C746100000000 PUSH1 0x0 DUP3 ADD MSTORE POP JUMP JUMPDEST PUSH1 0x0 PUSH2 0x1AEF PUSH1 0x1C DUP4 PUSH2 0x1AA8 JUMP JUMPDEST SWAP2 POP PUSH2 0x1AFA DUP3 PUSH2 0x1AB9 JUMP JUMPDEST PUSH1 0x20 DUP3 ADD SWAP1 POP SWAP2 SWAP1 POP JUMP JUMPDEST PUSH1 0x0 PUSH1 0x20 DUP3 ADD SWAP1 POP DUP2 DUP2 SUB PUSH1 0x0 DUP4 ADD MSTORE PUSH2 0x1B1E DUP2 PUSH2 0x1AE2 JUMP JUMPDEST SWAP1 POP SWAP2 SWAP1 POP JUMP JUMPDEST PUSH32 0x4572726F722C206C61204944206E6F2065732076616C69646F00000000000000 PUSH1 0x0 DUP3 ADD MSTORE POP JUMP JUMPDEST PUSH1 0x0 PUSH2 0x1B5B PUSH1 0x19 DUP4 PUSH2 0x1AA8 JUMP JUMPDEST SWAP2 POP PUSH2 0x1B66 DUP3 PUSH2 0x1B25 JUMP JUMPDEST PUSH1 0x20 DUP3 ADD SWAP1 POP SWAP2 SWAP1 POP JUMP JUMPDEST PUSH1 0x0 PUSH1 0x20 DUP3 ADD SWAP1 POP DUP2 DUP2 SUB PUSH1 0x0 DUP4 ADD MSTORE PUSH2 0x1B8A DUP2 PUSH2 0x1B4E JUMP JUMPDEST SWAP1 POP SWAP2 SWAP1 POP JUMP JUMPDEST PUSH32 0x4572726F722C20656C207072657374616D6F206E6F2065737461206170726F62 PUSH1 0x0 DUP3 ADD MSTORE PUSH32 0x61646F0000000000000000000000000000000000000000000000000000000000 PUSH1 0x20 DUP3 ADD MSTORE POP JUMP JUMPDEST PUSH1 0x0 PUSH2 0x1BED PUSH1 0x23 DUP4 PUSH2 0x1AA8 JUMP JUMPDEST SWAP2 POP PUSH2 0x1BF8 DUP3 PUSH2 0x1B91 JUMP JUMPDEST PUSH1 0x40 DUP3 ADD SWAP1 POP SWAP2 SWAP1 POP JUMP JUMPDEST PUSH1 0x0 PUSH1 0x20 DUP3 ADD SWAP1 POP DUP2 DUP2 SUB PUSH1 0x0 DUP4 ADD MSTORE PUSH2 0x1C1C DUP2 PUSH2 0x1BE0 JUMP JUMPDEST SWAP1 POP SWAP2 SWAP1 POP JUMP JUMPDEST PUSH32 0x4572726F722C20656C207072657374616D6F2065737461207265656D626F6C73 PUSH1 0x0 DUP3 ADD MSTORE PUSH32 0x61646F0000000000000000000000000000000000000000000000000000000000 PUSH1 0x20 DUP3 ADD MSTORE POP JUMP JUMPDEST PUSH1 0x0 PUSH2 0x1C7F PUSH1 0x23 DUP4 PUSH2 0x1AA8 JUMP JUMPDEST SWAP2 POP PUSH2 0x1C8A DUP3 PUSH2 0x1C23 JUMP JUMPDEST PUSH1 0x40 DUP3 ADD SWAP1 POP SWAP2 SWAP1 POP JUMP JUMPDEST PUSH1 0x0 PUSH1 0x20 DUP3 ADD SWAP1 POP DUP2 DUP2 SUB PUSH1 0x0 DUP4 ADD MSTORE PUSH2 0x1CAE DUP2 PUSH2 0x1C72 JUMP JUMPDEST SWAP1 POP SWAP2 SWAP1 POP JUMP JUMPDEST PUSH32 0x4572726F722C20656C207072657374616D6F2065737461206C69717569646164 PUSH1 0x0 DUP3 ADD MSTORE PUSH32 0x6F00000000000000000000000000000000000000000000000000000000000000 PUSH1 0x20 DUP3 ADD MSTORE POP JUMP JUMPDEST PUSH1 0x0 PUSH2 0x1D11 PUSH1 0x21 DUP4 PUSH2 0x1AA8 JUMP JUMPDEST SWAP2 POP PUSH2 0x1D1C DUP3 PUSH2 0x1CB5 JUMP JUMPDEST PUSH1 0x40 DUP3 ADD SWAP1 POP SWAP2 SWAP1 POP JUMP JUMPDEST PUSH1 0x0 PUSH1 0x20 DUP3 ADD SWAP1 POP DUP2 DUP2 SUB PUSH1 0x0 DUP4 ADD MSTORE PUSH2 0x1D40 DUP2 PUSH2 0x1D04 JUMP JUMPDEST SWAP1 POP SWAP2 SWAP1 POP JUMP JUMPDEST PUSH32 0x4572726F722C206E6F2073652068612070617361646F20656C207469656D706F PUSH1 0x0 DUP3 ADD MSTORE PUSH32 0x206465207061676F000000000000000000000000000000000000000000000000 PUSH1 0x20 DUP3 ADD MSTORE POP JUMP JUMPDEST PUSH1 0x0 PUSH2 0x1DA3 PUSH1 0x28 DUP4 PUSH2 0x1AA8 JUMP JUMPDEST SWAP2 POP PUSH2 0x1DAE DUP3 PUSH2 0x1D47 JUMP JUMPDEST PUSH1 0x40 DUP3 ADD SWAP1 POP SWAP2 SWAP1 POP JUMP JUMPDEST PUSH1 0x0 PUSH1 0x20 DUP3 ADD SWAP1 POP DUP2 DUP2 SUB PUSH1 0x0 DUP4 ADD MSTORE PUSH2 0x1DD2 DUP2 PUSH2 0x1D96 JUMP JUMPDEST SWAP1 POP SWAP2 SWAP1 POP JUMP JUMPDEST PUSH32 0x4E487B7100000000000000000000000000000000000000000000000000000000 PUSH1 0x0 MSTORE PUSH1 0x11 PUSH1 0x4 MSTORE PUSH1 0x24 PUSH1 0x0 REVERT JUMPDEST PUSH1 0x0 PUSH2 0x1E13 DUP3 PUSH2 0x1714 JUMP JUMPDEST SWAP2 POP PUSH2 0x1E1E DUP4 PUSH2 0x1714 JUMP JUMPDEST SWAP3 POP DUP3 DUP3 SUB SWAP1 POP DUP2 DUP2 GT ISZERO PUSH2 0x1E36 JUMPI PUSH2 0x1E35 PUSH2 0x1DD9 JUMP JUMPDEST JUMPDEST SWAP3 SWAP2 POP POP JUMP JUMPDEST PUSH32 0x4572726F722C20656C20636C69656E7465206E6F206573746120726567697374 PUSH1 0x0 DUP3 ADD MSTORE PUSH32 0x7261646F00000000000000000000000000000000000000000000000000000000 PUSH1 0x20 DUP3 ADD MSTORE POP JUMP JUMPDEST PUSH1 0x0 PUSH2 0x1E98 PUSH1 0x24 DUP4 PUSH2 0x1AA8 JUMP JUMPDEST SWAP2 POP PUSH2 0x1EA3 DUP3 PUSH2 0x1E3C JUMP JUMPDEST PUSH1 0x40 DUP3 ADD SWAP1 POP SWAP2 SWAP1 POP JUMP JUMPDEST PUSH1 0x0 PUSH1 0x20 DUP3 ADD SWAP1 POP DUP2 DUP2 SUB PUSH1 0x0 DUP4 ADD MSTORE PUSH2 0x1EC7 DUP2 PUSH2 0x1E8B JUMP JUMPDEST SWAP1 POP SWAP2 SWAP1 POP JUMP JUMPDEST PUSH32 0x4572726F722C206E6F207469656E6520737566696369656E74652073616C646F PUSH1 0x0 DUP3 ADD MSTORE PUSH32 0x20646520676172616E7469610000000000000000000000000000000000000000 PUSH1 0x20 DUP3 ADD MSTORE POP JUMP JUMPDEST PUSH1 0x0 PUSH2 0x1F2A PUSH1 0x2C DUP4 PUSH2 0x1AA8 JUMP JUMPDEST SWAP2 POP PUSH2 0x1F35 DUP3 PUSH2 0x1ECE JUMP JUMPDEST PUSH1 0x40 DUP3 ADD SWAP1 POP SWAP2 SWAP1 POP JUMP JUMPDEST PUSH1 0x0 PUSH1 0x20 DUP3 ADD SWAP1 POP DUP2 DUP2 SUB PUSH1 0x0 DUP4 ADD MSTORE PUSH2 0x1F59 DUP2 PUSH2 0x1F1D JUMP JUMPDEST SWAP1 POP SWAP2 SWAP1 POP JUMP JUMPDEST PUSH1 0x0 PUSH2 0x1F6B DUP3 PUSH2 0x1714 JUMP JUMPDEST SWAP2 POP PUSH2 0x1F76 DUP4 PUSH2 0x1714 JUMP JUMPDEST SWAP3 POP DUP3 DUP3 ADD SWAP1 POP DUP1 DUP3 GT ISZERO PUSH2 0x1F8E JUMPI PUSH2 0x1F8D PUSH2 0x1DD9 JUMP JUMPDEST JUMPDEST SWAP3 SWAP2 POP POP JUMP JUMPDEST PUSH1 0x0 PUSH1 0x40 DUP3 ADD SWAP1 POP PUSH2 0x1FA9 PUSH1 0x0 DUP4 ADD DUP6 PUSH2 0x17CA JUMP JUMPDEST PUSH2 0x1FB6 PUSH1 0x20 DUP4 ADD DUP5 PUSH2 0x17CA JUMP JUMPDEST SWAP4 SWAP3 POP POP POP JUMP JUMPDEST PUSH32 0x4572726F722C20656C20636C69656E746520796120657374616261206461646F PUSH1 0x0 DUP3 ADD MSTORE PUSH32 0x20646520616C7461000000000000000000000000000000000000000000000000 PUSH1 0x20 DUP3 ADD MSTORE POP JUMP JUMPDEST PUSH1 0x0 PUSH2 0x2019 PUSH1 0x28 DUP4 PUSH2 0x1AA8 JUMP JUMPDEST SWAP2 POP PUSH2 0x2024 DUP3 PUSH2 0x1FBD JUMP JUMPDEST PUSH1 0x40 DUP3 ADD SWAP1 POP SWAP2 SWAP1 POP JUMP JUMPDEST PUSH1 0x0 PUSH1 0x20 DUP3 ADD SWAP1 POP DUP2 DUP2 SUB PUSH1 0x0 DUP4 ADD MSTORE PUSH2 0x2048 DUP2 PUSH2 0x200C JUMP JUMPDEST SWAP1 POP SWAP2 SWAP1 POP JUMP JUMPDEST PUSH32 0x4572726F722C206C61204944206E6F2065732076616C69646100000000000000 PUSH1 0x0 DUP3 ADD MSTORE POP JUMP JUMPDEST PUSH1 0x0 PUSH2 0x2085 PUSH1 0x19 DUP4 PUSH2 0x1AA8 JUMP JUMPDEST SWAP2 POP PUSH2 0x2090 DUP3 PUSH2 0x204F JUMP JUMPDEST PUSH1 0x20 DUP3 ADD SWAP1 POP SWAP2 SWAP1 POP JUMP JUMPDEST PUSH1 0x0 PUSH1 0x20 DUP3 ADD SWAP1 POP DUP2 DUP2 SUB PUSH1 0x0 DUP4 ADD MSTORE PUSH2 0x20B4 DUP2 PUSH2 0x2078 JUMP JUMPDEST SWAP1 POP SWAP2 SWAP1 POP JUMP JUMPDEST PUSH32 0x4572726F722C20656C207072657374616D6F2065737461206170726F6261646F PUSH1 0x0 DUP3 ADD MSTORE POP JUMP JUMPDEST PUSH1 0x0 PUSH2 0x20F1 PUSH1 0x20 DUP4 PUSH2 0x1AA8 JUMP JUMPDEST SWAP2 POP PUSH2 0x20FC DUP3 PUSH2 0x20BB JUMP JUMPDEST PUSH1 0x20 DUP3 ADD SWAP1 POP SWAP2 SWAP1 POP JUMP JUMPDEST PUSH1 0x0 PUSH1 0x20 DUP3 ADD SWAP1 POP DUP2 DUP2 SUB PUSH1 0x0 DUP4 ADD MSTORE PUSH2 0x2120 DUP2 PUSH2 0x20E4 JUMP JUMPDEST SWAP1 POP SWAP2 SWAP1 POP JUMP JUMPDEST PUSH32 0x4572726F722C20656C207072657374616D6F206861207369646F207265656D62 PUSH1 0x0 DUP3 ADD MSTORE PUSH32 0x6F6C7361646F0000000000000000000000000000000000000000000000000000 PUSH1 0x20 DUP3 ADD MSTORE POP JUMP JUMPDEST PUSH1 0x0 PUSH2 0x2183 PUSH1 0x26 DUP4 PUSH2 0x1AA8 JUMP JUMPDEST SWAP2 POP PUSH2 0x218E DUP3 PUSH2 0x2127 JUMP JUMPDEST PUSH1 0x40 DUP3 ADD SWAP1 POP SWAP2 SWAP1 POP JUMP JUMPDEST PUSH1 0x0 PUSH1 0x20 DUP3 ADD SWAP1 POP DUP2 DUP2 SUB PUSH1 0x0 DUP4 ADD MSTORE PUSH2 0x21B2 DUP2 PUSH2 0x2176 JUMP JUMPDEST SWAP1 POP SWAP2 SWAP1 POP JUMP JUMPDEST PUSH32 0x4572726F722C20656C207072657374616D6F206861207369646F206C69717569 PUSH1 0x0 DUP3 ADD MSTORE PUSH32 0x6461646F00000000000000000000000000000000000000000000000000000000 PUSH1 0x20 DUP3 ADD MSTORE POP JUMP JUMPDEST PUSH1 0x0 PUSH2 0x2215 PUSH1 0x24 DUP4 PUSH2 0x1AA8 JUMP JUMPDEST SWAP2 POP PUSH2 0x2220 DUP3 PUSH2 0x21B9 JUMP JUMPDEST PUSH1 0x40 DUP3 ADD SWAP1 POP SWAP2 SWAP1 POP JUMP JUMPDEST PUSH1 0x0 PUSH1 0x20 DUP3 ADD SWAP1 POP DUP2 DUP2 SUB PUSH1 0x0 DUP4 ADD MSTORE PUSH2 0x2244 DUP2 PUSH2 0x2208 JUMP JUMPDEST SWAP1 POP SWAP2 SWAP1 POP JUMP JUMPDEST PUSH32 0x4572726F722C206E6F207075646573207265616C697A61722065737461206163 PUSH1 0x0 DUP3 ADD MSTORE PUSH32 0x63696F6E20706F7220717565206E6F206572657320656C20736F63696F207072 PUSH1 0x20 DUP3 ADD MSTORE PUSH32 0x6F6E636970616C00000000000000000000000000000000000000000000000000 PUSH1 0x40 DUP3 ADD MSTORE POP JUMP JUMPDEST PUSH1 0x0 PUSH2 0x22CD PUSH1 0x47 DUP4 PUSH2 0x1AA8 JUMP JUMPDEST SWAP2 POP PUSH2 0x22D8 DUP3 PUSH2 0x224B JUMP JUMPDEST PUSH1 0x60 DUP3 ADD SWAP1 POP SWAP2 SWAP1 POP JUMP JUMPDEST PUSH1 0x0 PUSH1 0x20 DUP3 ADD SWAP1 POP DUP2 DUP2 SUB PUSH1 0x0 DUP4 ADD MSTORE PUSH2 0x22FC DUP2 PUSH2 0x22C0 JUMP JUMPDEST SWAP1 POP SWAP2 SWAP1 POP JUMP JUMPDEST PUSH32 0x4572726F7220656C2070726574616D697374612079612065737461206461646F PUSH1 0x0 DUP3 ADD MSTORE PUSH32 0x20646520616C7461000000000000000000000000000000000000000000000000 PUSH1 0x20 DUP3 ADD MSTORE POP JUMP JUMPDEST PUSH1 0x0 PUSH2 0x235F PUSH1 0x28 DUP4 PUSH2 0x1AA8 JUMP JUMPDEST SWAP2 POP PUSH2 0x236A DUP3 PUSH2 0x2303 JUMP JUMPDEST PUSH1 0x40 DUP3 ADD SWAP1 POP SWAP2 SWAP1 POP JUMP JUMPDEST PUSH1 0x0 PUSH1 0x20 DUP3 ADD SWAP1 POP DUP2 DUP2 SUB PUSH1 0x0 DUP4 ADD MSTORE PUSH2 0x238E DUP2 PUSH2 0x2352 JUMP JUMPDEST SWAP1 POP SWAP2 SWAP1 POP JUMP JUMPDEST PUSH32 0x4572726F722C206E6F20657320656C20707265737461746172696F2064656C20 PUSH1 0x0 DUP3 ADD MSTORE PUSH32 0x7072657374616D6F000000000000000000000000000000000000000000000000 PUSH1 0x20 DUP3 ADD MSTORE POP JUMP JUMPDEST PUSH1 0x0 PUSH2 0x23F1 PUSH1 0x28 DUP4 PUSH2 0x1AA8 JUMP JUMPDEST SWAP2 POP PUSH2 0x23FC DUP3 PUSH2 0x2395 JUMP JUMPDEST PUSH1 0x40 DUP3 ADD SWAP1 POP SWAP2 SWAP1 POP JUMP JUMPDEST PUSH1 0x0 PUSH1 0x20 DUP3 ADD SWAP1 POP DUP2 DUP2 SUB PUSH1 0x0 DUP4 ADD MSTORE PUSH2 0x2420 DUP2 PUSH2 0x23E4 JUMP JUMPDEST SWAP1 POP SWAP2 SWAP1 POP JUMP JUMPDEST PUSH32 0x4572726F722C2073652068612070617361646F20656C207469656D706F206465 PUSH1 0x0 DUP3 ADD MSTORE PUSH32 0x207061676F000000000000000000000000000000000000000000000000000000 PUSH1 0x20 DUP3 ADD MSTORE POP JUMP JUMPDEST PUSH1 0x0 PUSH2 0x2483 PUSH1 0x25 DUP4 PUSH2 0x1AA8 JUMP JUMPDEST SWAP2 POP PUSH2 0x248E DUP3 PUSH2 0x2427 JUMP JUMPDEST PUSH1 0x40 DUP3 ADD SWAP1 POP SWAP2 SWAP1 POP JUMP JUMPDEST PUSH1 0x0 PUSH1 0x20 DUP3 ADD SWAP1 POP DUP2 DUP2 SUB PUSH1 0x0 DUP4 ADD MSTORE PUSH2 0x24B2 DUP2 PUSH2 0x2476 JUMP JUMPDEST SWAP1 POP SWAP2 SWAP1 POP JUMP INVALID LOG2 PUSH5 0x6970667358 0x22 SLT KECCAK256 PREVRANDAO 0xBB SIGNEXTEND 0xD0 SWAP12 PUSH10 0x8F869AE71AC160065DAD 0x2A 0xC2 0xEE LOG2 AND 0xFC DUP8 PUSH8 0xDEC244E34C21119 PUSH5 0x736F6C6343 STOP ADDMOD SGT STOP CALLER "
				},
				"gasEstimates": {
					"creation": {
						"codeDepositCost": "1891000",
						"executionCost": "52757",
						"totalCost": "1943757"
					},
					"external": {
						"altaCliente(address)": "34430",
						"altaPrestamista(address)": "29247",
						"aprobarPrestamo(address,uint256)": "infinite",
						"clientes(address)": "5193",
						"depositarGarantia()": "infinite",
						"empleadosPrestamista(address)": "2889",
						"liquidarGrantia(address,uint256)": "infinite",
						"obtenerDetallaPrestamo(address,uint256)": "infinite",
						"obtenerPrestamosPorPrestatario(address)": "infinite",
						"reembolsarPrestamo(uint256)": "infinite",
						"socioPrincipal()": "2556",
						"solicitarPrestamos(uint256,uint256)": "infinite"
					}
				},
				"methodIdentifiers": {
					"altaCliente(address)": "425743bc",
					"altaPrestamista(address)": "c1e83336",
					"aprobarPrestamo(address,uint256)": "8b08de28",
					"clientes(address)": "74b23349",
					"depositarGarantia()": "f56f47a8",
					"empleadosPrestamista(address)": "c2b12461",
					"liquidarGrantia(address,uint256)": "118557e0",
					"obtenerDetallaPrestamo(address,uint256)": "426cb8e9",
					"obtenerPrestamosPorPrestatario(address)": "cb4e6b66",
					"reembolsarPrestamo(uint256)": "dea42370",
					"socioPrincipal()": "3f881611",
					"solicitarPrestamos(uint256,uint256)": "1b2be6e0"
				}
			},
			"storageLayout": {
				"storage": [
					{
						"astId": 3,
						"contract": "PrestamoDefi.sol:PrestamoDefi",
						"label": "socioPrincipal",
						"offset": 0,
						"slot": "0",
						"type": "t_address"
					},
					{
						"astId": 40,
						"contract": "PrestamoDefi.sol:PrestamoDefi",
						"label": "clientes",
						"offset": 0,
						"slot": "1",
						"type": "t_mapping(t_address,t_struct(Cliente)35_storage)"
					},
					{
						"astId": 44,
						"contract": "PrestamoDefi.sol:PrestamoDefi",
						"label": "empleadosPrestamista",
						"offset": 0,
						"slot": "2",
						"type": "t_mapping(t_address,t_bool)"
					}
				],
				"types": {
					"t_address": {
						"encoding": "inplace",
						"label": "address",
						"numberOfBytes": "20"
					},
					"t_array(t_uint256)dyn_storage": {
						"base": "t_uint256",
						"encoding": "dynamic_array",
						"label": "uint256[]",
						"numberOfBytes": "32"
					},
					"t_bool": {
						"encoding": "inplace",
						"label": "bool",
						"numberOfBytes": "1"
					},
					"t_mapping(t_address,t_bool)": {
						"encoding": "mapping",
						"key": "t_address",
						"label": "mapping(address => bool)",
						"numberOfBytes": "32",
						"value": "t_bool"
					},
					"t_mapping(t_address,t_struct(Cliente)35_storage)": {
						"encoding": "mapping",
						"key": "t_address",
						"label": "mapping(address => struct PrestamoDefi.Cliente)",
						"numberOfBytes": "32",
						"value": "t_struct(Cliente)35_storage"
					},
					"t_mapping(t_uint256,t_struct(Prestamo)22_storage)": {
						"encoding": "mapping",
						"key": "t_uint256",
						"label": "mapping(uint256 => struct PrestamoDefi.Prestamo)",
						"numberOfBytes": "32",
						"value": "t_struct(Prestamo)22_storage"
					},
					"t_struct(Cliente)35_storage": {
						"encoding": "inplace",
						"label": "struct PrestamoDefi.Cliente",
						"members": [
							{
								"astId": 24,
								"contract": "PrestamoDefi.sol:PrestamoDefi",
								"label": "activado",
								"offset": 0,
								"slot": "0",
								"type": "t_bool"
							},
							{
								"astId": 26,
								"contract": "PrestamoDefi.sol:PrestamoDefi",
								"label": "saldoGarantia",
								"offset": 0,
								"slot": "1",
								"type": "t_uint256"
							},
							{
								"astId": 31,
								"contract": "PrestamoDefi.sol:PrestamoDefi",
								"label": "prestamos",
								"offset": 0,
								"slot": "2",
								"type": "t_mapping(t_uint256,t_struct(Prestamo)22_storage)"
							},
							{
								"astId": 34,
								"contract": "PrestamoDefi.sol:PrestamoDefi",
								"label": "prestamoIds",
								"offset": 0,
								"slot": "3",
								"type": "t_array(t_uint256)dyn_storage"
							}
						],
						"numberOfBytes": "128"
					},
					"t_struct(Prestamo)22_storage": {
						"encoding": "inplace",
						"label": "struct PrestamoDefi.Prestamo",
						"members": [
							{
								"astId": 5,
								"contract": "PrestamoDefi.sol:PrestamoDefi",
								"label": "id",
								"offset": 0,
								"slot": "0",
								"type": "t_uint256"
							},
							{
								"astId": 7,
								"contract": "PrestamoDefi.sol:PrestamoDefi",
								"label": "prestatario",
								"offset": 0,
								"slot": "1",
								"type": "t_address"
							},
							{
								"astId": 9,
								"contract": "PrestamoDefi.sol:PrestamoDefi",
								"label": "monto",
								"offset": 0,
								"slot": "2",
								"type": "t_uint256"
							},
							{
								"astId": 11,
								"contract": "PrestamoDefi.sol:PrestamoDefi",
								"label": "plazo",
								"offset": 0,
								"slot": "3",
								"type": "t_uint256"
							},
							{
								"astId": 13,
								"contract": "PrestamoDefi.sol:PrestamoDefi",
								"label": "tiempoSolicitud",
								"offset": 0,
								"slot": "4",
								"type": "t_uint256"
							},
							{
								"astId": 15,
								"contract": "PrestamoDefi.sol:PrestamoDefi",
								"label": "tiempoLimite",
								"offset": 0,
								"slot": "5",
								"type": "t_uint256"
							},
							{
								"astId": 17,
								"contract": "PrestamoDefi.sol:PrestamoDefi",
								"label": "aprobado",
								"offset": 0,
								"slot": "6",
								"type": "t_bool"
							},
							{
								"astId": 19,
								"contract": "PrestamoDefi.sol:PrestamoDefi",
								"label": "reembolsado",
								"offset": 1,
								"slot": "6",
								"type": "t_bool"
							},
							{
								"astId": 21,
								"contract": "PrestamoDefi.sol:PrestamoDefi",
								"label": "liquidado",
								"offset": 2,
								"slot": "6",
								"type": "t_bool"
							}
						],
						"numberOfBytes": "224"
					},
					"t_uint256": {
						"encoding": "inplace",
						"label": "uint256",
						"numberOfBytes": "32"
					}
				}
			},
			"userdoc": {
				"kind": "user",
				"methods": {},
				"version": 1
			}
		}
	}
}